{
  "contractName": "Marketplace",
  "abi": [
    {
      "inputs": [
        {
          "internalType": "uint256",
          "name": "fee",
          "type": "uint256"
        },
        {
          "internalType": "address",
          "name": "hub",
          "type": "address"
        }
      ],
      "stateMutability": "nonpayable",
      "type": "constructor"
    },
    {
      "anonymous": false,
      "inputs": [
        {
          "indexed": false,
          "internalType": "uint256",
          "name": "itemId",
          "type": "uint256"
        },
        {
          "indexed": false,
          "internalType": "address",
          "name": "nftContract",
          "type": "address"
        },
        {
          "indexed": false,
          "internalType": "uint256",
          "name": "tokenId",
          "type": "uint256"
        },
        {
          "indexed": false,
          "internalType": "address",
          "name": "bidder",
          "type": "address"
        },
        {
          "indexed": false,
          "internalType": "uint256",
          "name": "price",
          "type": "uint256"
        }
      ],
      "name": "NFTAddAuction",
      "type": "event"
    },
    {
      "anonymous": false,
      "inputs": [
        {
          "indexed": false,
          "internalType": "uint256",
          "name": "itemId",
          "type": "uint256"
        },
        {
          "indexed": false,
          "internalType": "address",
          "name": "nftContract",
          "type": "address"
        },
        {
          "indexed": false,
          "internalType": "uint256",
          "name": "tokenId",
          "type": "uint256"
        },
        {
          "indexed": false,
          "internalType": "address",
          "name": "seller",
          "type": "address"
        },
        {
          "indexed": false,
          "internalType": "address",
          "name": "ftContract",
          "type": "address"
        },
        {
          "indexed": false,
          "internalType": "uint256",
          "name": "price",
          "type": "uint256"
        },
        {
          "indexed": false,
          "internalType": "bool",
          "name": "auction",
          "type": "bool"
        }
      ],
      "name": "NFTListed",
      "type": "event"
    },
    {
      "anonymous": false,
      "inputs": [
        {
          "indexed": false,
          "internalType": "uint256",
          "name": "itemId",
          "type": "uint256"
        },
        {
          "indexed": false,
          "internalType": "address",
          "name": "nftContract",
          "type": "address"
        },
        {
          "indexed": false,
          "internalType": "uint256",
          "name": "tokenId",
          "type": "uint256"
        },
        {
          "indexed": false,
          "internalType": "address",
          "name": "seller",
          "type": "address"
        },
        {
          "indexed": false,
          "internalType": "address",
          "name": "buyer",
          "type": "address"
        },
        {
          "indexed": false,
          "internalType": "uint256",
          "name": "price",
          "type": "uint256"
        }
      ],
      "name": "NFTSold",
      "type": "event"
    },
    {
      "anonymous": false,
      "inputs": [
        {
          "indexed": false,
          "internalType": "uint256",
          "name": "itemId",
          "type": "uint256"
        }
      ],
      "name": "NFTUnlisted",
      "type": "event"
    },
    {
      "anonymous": false,
      "inputs": [
        {
          "indexed": true,
          "internalType": "address",
          "name": "previousOwner",
          "type": "address"
        },
        {
          "indexed": true,
          "internalType": "address",
          "name": "newOwner",
          "type": "address"
        }
      ],
      "name": "OwnershipTransferred",
      "type": "event"
    },
    {
      "inputs": [],
      "name": "DENOMINATOR",
      "outputs": [
        {
          "internalType": "uint256",
          "name": "",
          "type": "uint256"
        }
      ],
      "stateMutability": "view",
      "type": "function"
    },
    {
      "inputs": [],
      "name": "ERC2981INTERFACE",
      "outputs": [
        {
          "internalType": "bytes4",
          "name": "",
          "type": "bytes4"
        }
      ],
      "stateMutability": "view",
      "type": "function"
    },
    {
      "inputs": [],
      "name": "ERC721INTERFACE",
      "outputs": [
        {
          "internalType": "bytes4",
          "name": "",
          "type": "bytes4"
        }
      ],
      "stateMutability": "view",
      "type": "function"
    },
    {
      "inputs": [],
      "name": "RATE_FEE",
      "outputs": [
        {
          "internalType": "uint256",
          "name": "",
          "type": "uint256"
        }
      ],
      "stateMutability": "view",
      "type": "function"
    },
    {
      "inputs": [
        {
          "internalType": "address",
          "name": "tokenAddr",
          "type": "address"
        }
      ],
      "name": "addAcceptToken",
      "outputs": [],
      "stateMutability": "nonpayable",
      "type": "function"
    },
    {
      "inputs": [
        {
          "internalType": "address",
          "name": "whitelistAddress",
          "type": "address"
        },
        {
          "internalType": "uint256",
          "name": "fee",
          "type": "uint256"
        }
      ],
      "name": "addWhitelistAddress",
      "outputs": [],
      "stateMutability": "nonpayable",
      "type": "function"
    },
    {
      "inputs": [
        {
          "internalType": "address",
          "name": "walletAddress",
          "type": "address"
        },
        {
          "internalType": "address",
          "name": "tokenAddress",
          "type": "address"
        }
      ],
      "name": "feeOf",
      "outputs": [
        {
          "internalType": "uint256",
          "name": "",
          "type": "uint256"
        }
      ],
      "stateMutability": "view",
      "type": "function"
    },
    {
      "inputs": [],
      "name": "getAcceptTokens",
      "outputs": [
        {
          "internalType": "address[]",
          "name": "",
          "type": "address[]"
        }
      ],
      "stateMutability": "view",
      "type": "function"
    },
    {
      "inputs": [],
      "name": "getRateFee",
      "outputs": [
        {
          "internalType": "uint256",
          "name": "",
          "type": "uint256"
        }
      ],
      "stateMutability": "view",
      "type": "function"
    },
    {
      "inputs": [
        {
          "internalType": "address",
          "name": "tokenAddress",
          "type": "address"
        }
      ],
      "name": "getTokenFee",
      "outputs": [
        {
          "internalType": "uint256",
          "name": "",
          "type": "uint256"
        }
      ],
      "stateMutability": "view",
      "type": "function"
    },
    {
      "inputs": [],
      "name": "getWhitelist",
      "outputs": [
        {
          "components": [
            {
              "internalType": "address",
              "name": "addr",
              "type": "address"
            },
            {
              "internalType": "uint256",
              "name": "fee",
              "type": "uint256"
            }
          ],
          "internalType": "struct IHubChild.WhitelistVars[]",
          "name": "",
          "type": "tuple[]"
        }
      ],
      "stateMutability": "view",
      "type": "function"
    },
    {
      "inputs": [],
      "name": "hubAddr",
      "outputs": [
        {
          "internalType": "address",
          "name": "",
          "type": "address"
        }
      ],
      "stateMutability": "view",
      "type": "function"
    },
    {
      "inputs": [],
      "name": "owner",
      "outputs": [
        {
          "internalType": "address",
          "name": "",
          "type": "address"
        }
      ],
      "stateMutability": "view",
      "type": "function"
    },
    {
      "inputs": [
        {
          "internalType": "address",
          "name": "tokenAddr",
          "type": "address"
        }
      ],
      "name": "removeToken",
      "outputs": [],
      "stateMutability": "nonpayable",
      "type": "function"
    },
    {
      "inputs": [
        {
          "internalType": "address",
          "name": "whitelistAddress",
          "type": "address"
        }
      ],
      "name": "removeWhitelistAddress",
      "outputs": [],
      "stateMutability": "nonpayable",
      "type": "function"
    },
    {
      "inputs": [],
      "name": "renounceOwnership",
      "outputs": [],
      "stateMutability": "nonpayable",
      "type": "function"
    },
    {
      "inputs": [
        {
          "internalType": "address",
          "name": "hub",
          "type": "address"
        }
      ],
      "name": "setHub",
      "outputs": [],
      "stateMutability": "nonpayable",
      "type": "function"
    },
    {
      "inputs": [
        {
          "internalType": "uint256",
          "name": "rateFee",
          "type": "uint256"
        }
      ],
      "name": "setRateFee",
      "outputs": [],
      "stateMutability": "nonpayable",
      "type": "function"
    },
    {
      "inputs": [
        {
          "internalType": "address",
          "name": "newOwner",
          "type": "address"
        }
      ],
      "name": "transferOwnership",
      "outputs": [],
      "stateMutability": "nonpayable",
      "type": "function"
    },
    {
      "inputs": [
        {
          "internalType": "address",
          "name": "nftContract",
          "type": "address"
        },
        {
          "internalType": "address",
          "name": "ftContract",
          "type": "address"
        },
        {
          "internalType": "uint256",
          "name": "tokenId",
          "type": "uint256"
        },
        {
          "internalType": "uint256",
          "name": "price",
          "type": "uint256"
        }
      ],
      "name": "list",
      "outputs": [],
      "stateMutability": "nonpayable",
      "type": "function"
    },
    {
      "inputs": [
        {
          "internalType": "address",
          "name": "nftContract",
          "type": "address"
        },
        {
          "internalType": "address",
          "name": "ftContract",
          "type": "address"
        },
        {
          "internalType": "uint256",
          "name": "tokenId",
          "type": "uint256"
        },
        {
          "internalType": "uint256",
          "name": "price",
          "type": "uint256"
        },
        {
          "internalType": "uint256",
          "name": "duration",
          "type": "uint256"
        }
      ],
      "name": "bidding",
      "outputs": [],
      "stateMutability": "nonpayable",
      "type": "function"
    },
    {
      "inputs": [
        {
          "internalType": "uint256",
          "name": "itemId",
          "type": "uint256"
        },
        {
          "internalType": "address",
          "name": "ftContract",
          "type": "address"
        },
        {
          "internalType": "uint256",
          "name": "price",
          "type": "uint256"
        },
        {
          "internalType": "bool",
          "name": "isAuction",
          "type": "bool"
        },
        {
          "internalType": "uint256",
          "name": "duration",
          "type": "uint256"
        }
      ],
      "name": "edit",
      "outputs": [],
      "stateMutability": "nonpayable",
      "type": "function"
    },
    {
      "inputs": [
        {
          "internalType": "uint256",
          "name": "itemId",
          "type": "uint256"
        },
        {
          "internalType": "address",
          "name": "ftContract",
          "type": "address"
        },
        {
          "internalType": "uint256",
          "name": "price",
          "type": "uint256"
        }
      ],
      "name": "relist",
      "outputs": [],
      "stateMutability": "nonpayable",
      "type": "function"
    },
    {
      "inputs": [
        {
          "internalType": "uint256",
          "name": "itemId",
          "type": "uint256"
        },
        {
          "internalType": "address",
          "name": "ftContract",
          "type": "address"
        },
        {
          "internalType": "uint256",
          "name": "price",
          "type": "uint256"
        },
        {
          "internalType": "uint256",
          "name": "duration",
          "type": "uint256"
        }
      ],
      "name": "reauction",
      "outputs": [],
      "stateMutability": "nonpayable",
      "type": "function"
    },
    {
      "inputs": [
        {
          "internalType": "uint256",
          "name": "itemId",
          "type": "uint256"
        }
      ],
      "name": "unlist",
      "outputs": [],
      "stateMutability": "nonpayable",
      "type": "function"
    },
    {
      "inputs": [
        {
          "internalType": "uint256",
          "name": "itemId",
          "type": "uint256"
        }
      ],
      "name": "buy",
      "outputs": [],
      "stateMutability": "payable",
      "type": "function"
    },
    {
      "inputs": [
        {
          "internalType": "uint256",
          "name": "itemId",
          "type": "uint256"
        },
        {
          "internalType": "uint256",
          "name": "value",
          "type": "uint256"
        }
      ],
      "name": "addAuction",
      "outputs": [],
      "stateMutability": "payable",
      "type": "function"
    },
    {
      "inputs": [
        {
          "internalType": "uint256",
          "name": "itemId",
          "type": "uint256"
        }
      ],
      "name": "acceptAuction",
      "outputs": [],
      "stateMutability": "payable",
      "type": "function"
    },
    {
      "inputs": [
        {
          "internalType": "uint256",
          "name": "itemId",
          "type": "uint256"
        }
      ],
      "name": "claimAuction",
      "outputs": [],
      "stateMutability": "payable",
      "type": "function"
    },
    {
      "inputs": [],
      "name": "getListedNfts",
      "outputs": [
        {
          "components": [
            {
              "internalType": "uint256",
              "name": "itemId",
              "type": "uint256"
            },
            {
              "internalType": "address",
              "name": "nftContract",
              "type": "address"
            },
            {
              "internalType": "uint256",
              "name": "tokenId",
              "type": "uint256"
            },
            {
              "internalType": "address",
              "name": "seller",
              "type": "address"
            },
            {
              "internalType": "address",
              "name": "ftContract",
              "type": "address"
            },
            {
              "internalType": "uint256",
              "name": "price",
              "type": "uint256"
            },
            {
              "internalType": "bool",
              "name": "listed",
              "type": "bool"
            },
            {
              "internalType": "bool",
              "name": "auction",
              "type": "bool"
            }
          ],
          "internalType": "struct Marketplace.NFT[]",
          "name": "",
          "type": "tuple[]"
        }
      ],
      "stateMutability": "view",
      "type": "function"
    },
    {
      "inputs": [],
      "name": "getMyListedNfts",
      "outputs": [
        {
          "components": [
            {
              "internalType": "uint256",
              "name": "itemId",
              "type": "uint256"
            },
            {
              "internalType": "address",
              "name": "nftContract",
              "type": "address"
            },
            {
              "internalType": "uint256",
              "name": "tokenId",
              "type": "uint256"
            },
            {
              "internalType": "address",
              "name": "seller",
              "type": "address"
            },
            {
              "internalType": "address",
              "name": "ftContract",
              "type": "address"
            },
            {
              "internalType": "uint256",
              "name": "price",
              "type": "uint256"
            },
            {
              "internalType": "bool",
              "name": "listed",
              "type": "bool"
            },
            {
              "internalType": "bool",
              "name": "auction",
              "type": "bool"
            }
          ],
          "internalType": "struct Marketplace.NFT[]",
          "name": "",
          "type": "tuple[]"
        }
      ],
      "stateMutability": "view",
      "type": "function"
    },
    {
      "inputs": [],
      "name": "getUserBids",
      "outputs": [
        {
          "components": [
            {
              "internalType": "uint256",
              "name": "itemId",
              "type": "uint256"
            },
            {
              "internalType": "address",
              "name": "nftContract",
              "type": "address"
            },
            {
              "internalType": "uint256",
              "name": "tokenId",
              "type": "uint256"
            },
            {
              "internalType": "address",
              "name": "seller",
              "type": "address"
            },
            {
              "internalType": "address",
              "name": "ftContract",
              "type": "address"
            },
            {
              "internalType": "uint256",
              "name": "price",
              "type": "uint256"
            },
            {
              "internalType": "bool",
              "name": "listed",
              "type": "bool"
            },
            {
              "internalType": "bool",
              "name": "auction",
              "type": "bool"
            }
          ],
          "internalType": "struct Marketplace.NFT[]",
          "name": "",
          "type": "tuple[]"
        },
        {
          "components": [
            {
              "internalType": "address",
              "name": "bidder",
              "type": "address"
            },
            {
              "internalType": "uint256",
              "name": "highestBid",
              "type": "uint256"
            },
            {
              "internalType": "uint256",
              "name": "timeEnd",
              "type": "uint256"
            }
          ],
          "internalType": "struct Marketplace.Auction[]",
          "name": "",
          "type": "tuple[]"
        }
      ],
      "stateMutability": "view",
      "type": "function"
    },
    {
      "inputs": [],
      "name": "getListAuction",
      "outputs": [
        {
          "components": [
            {
              "internalType": "address",
              "name": "bidder",
              "type": "address"
            },
            {
              "internalType": "uint256",
              "name": "highestBid",
              "type": "uint256"
            },
            {
              "internalType": "uint256",
              "name": "timeEnd",
              "type": "uint256"
            }
          ],
          "internalType": "struct Marketplace.Auction[]",
          "name": "",
          "type": "tuple[]"
        }
      ],
      "stateMutability": "view",
      "type": "function"
    },
    {
      "inputs": [
        {
          "internalType": "address",
          "name": "contractAddress",
          "type": "address"
        },
        {
          "internalType": "uint256",
          "name": "tokenId",
          "type": "uint256"
        }
      ],
      "name": "getMarketData",
      "outputs": [
        {
          "components": [
            {
              "internalType": "uint256",
              "name": "itemId",
              "type": "uint256"
            },
            {
              "internalType": "address",
              "name": "nftContract",
              "type": "address"
            },
            {
              "internalType": "uint256",
              "name": "tokenId",
              "type": "uint256"
            },
            {
              "internalType": "address",
              "name": "seller",
              "type": "address"
            },
            {
              "internalType": "address",
              "name": "ftContract",
              "type": "address"
            },
            {
              "internalType": "uint256",
              "name": "price",
              "type": "uint256"
            },
            {
              "internalType": "bool",
              "name": "listed",
              "type": "bool"
            },
            {
              "internalType": "bool",
              "name": "auction",
              "type": "bool"
            }
          ],
          "internalType": "struct Marketplace.NFT",
          "name": "",
          "type": "tuple"
        },
        {
          "components": [
            {
              "internalType": "address",
              "name": "bidder",
              "type": "address"
            },
            {
              "internalType": "uint256",
              "name": "highestBid",
              "type": "uint256"
            },
            {
              "internalType": "uint256",
              "name": "timeEnd",
              "type": "uint256"
            }
          ],
          "internalType": "struct Marketplace.Auction",
          "name": "",
          "type": "tuple"
        }
      ],
      "stateMutability": "view",
      "type": "function"
    }
  ],
  "bytecode": "0x60806040523480156200001157600080fd5b5060405162003f0038038062003f0083398101604081905262000034916200012c565b6200003f336200005b565b6001805560078290556200005381620000ab565b505062000169565b600080546001600160a01b038381166001600160a01b0319831681178455604051919092169283917f8be0079c531659141344cd1fd0a4f28419497f9722a3daafe3b4186f6b6457e09190a35050565b6000546001600160a01b031633146200010a5760405162461bcd60e51b815260206004820181905260248201527f4f776e61626c653a2063616c6c6572206973206e6f7420746865206f776e6572604482015260640160405180910390fd5b600880546001600160a01b0319166001600160a01b0392909216919091179055565b600080604083850312156200013f578182fd5b825160208401519092506001600160a01b03811681146200015e578182fd5b809150509250929050565b613d8780620001796000396000f3fe6080604052600436106101f95760003560e01c80638d6cb3fb1161010d578063bf5a4dd3116100a0578063debd22721161006f578063debd227214610595578063ef108af7146105b5578063f2fde38b146105c8578063f4a446e4146105e8578063fc8d9cd51461060857600080fd5b8063bf5a4dd31461051e578063ca6ca4851461053e578063d01f63f514610560578063d96a094a1461058257600080fd5b8063a037f4fc116100dc578063a037f4fc14610490578063a432309b146104b0578063a89eccfd146104de578063b7ecbaae146104fe57600080fd5b80638d6cb3fb146104345780638da5cb5b14610449578063918f8674146104675780639aafc6c91461047d57600080fd5b80634f17ef8111610190578063715018a61161015f578063715018a6146103b557806373187d27146103ca5780637ac2abae146103dd5780638563e10e146103fd57806386c3b08a1461041f57600080fd5b80634f17ef811461033c578063502a676c1461035f5780635254aca9146103755780635fa7b5841461039557600080fd5b8063252154fa116101cc578063252154fa1461029657806331962cdc146102c4578063394682c0146102e457806349095a211461030457600080fd5b806307cb1a6e146101fe5780630f15e9be146102375780631879c750146102595780631f4cc4db14610274575b600080fd5b34801561020a57600080fd5b506102196380ac58cd60e01b81565b6040516001600160e01b031990911681526020015b60405180910390f35b34801561024357600080fd5b50610257610252366004613770565b610628565b005b34801561026557600080fd5b5061021963152a902d60e11b81565b34801561028057600080fd5b506102896106bb565b60405161022e9190613a12565b3480156102a257600080fd5b506102b66102b1366004613613565b6108c1565b60405190815260200161022e565b3480156102d057600080fd5b506102576102df366004613613565b6108d4565b3480156102f057600080fd5b506102576102ff3660046137bf565b610920565b34801561031057600080fd5b50600854610324906001600160a01b031681565b6040516001600160a01b03909116815260200161022e565b34801561034857600080fd5b50610351610b71565b60405161022e929190613a25565b34801561036b57600080fd5b506102b660075481565b34801561038157600080fd5b506102576103903660046136fc565b610e00565b3480156103a157600080fd5b506102576103b0366004613613565b610e3b565b3480156103c157600080fd5b50610257610e74565b6102576103d8366004613837565b610eaa565b3480156103e957600080fd5b506102576103f8366004613810565b6111d8565b34801561040957600080fd5b506104126113a1565b60405161022e91906139b2565b34801561042b57600080fd5b506007546102b6565b34801561044057600080fd5b5061028961146d565b34801561045557600080fd5b506000546001600160a01b0316610324565b34801561047357600080fd5b506102b661271081565b61025761048b366004613770565b611615565b34801561049c57600080fd5b506102576104ab366004613788565b611a71565b3480156104bc57600080fd5b506104d06104cb3660046136fc565b611bf9565b60405161022e929190613bf4565b3480156104ea57600080fd5b506102b66104f936600461362f565b611d4b565b34801561050a57600080fd5b50610257610519366004613613565b611d5e565b34801561052a57600080fd5b50610257610539366004613770565b611d93565b34801561054a57600080fd5b50610553611feb565b60405161022e91906139ff565b34801561056c57600080fd5b50610575612100565b60405161022e9190613a53565b610257610590366004613770565b6121fc565b3480156105a157600080fd5b506102576105b0366004613613565b6125e1565b6102576105c3366004613770565b612616565b3480156105d457600080fd5b506102576105e3366004613613565b612757565b3480156105f457600080fd5b506102576106033660046136ac565b6127f2565b34801561061457600080fd5b50610257610623366004613667565b612ac9565b6008546001600160a01b0316331461065b5760405162461bcd60e51b815260040161065290613b0f565b60405180910390fd5b61271081106106b65760405162461bcd60e51b815260206004820152602160248201527f466565206e756d657261746f72206d757374206c657373207468616e203130306044820152602560f81b6064820152608401610652565b600755565b606060006106c8600a5490565b9050600060015b828111610735576000818152600c60205260409020600301546001600160a01b03163314801561071057506000818152600c602052604090206006015460ff165b15610723578161071f81613cdd565b9250505b8061072d81613cdd565b9150506106cf565b5060008167ffffffffffffffff81111561075f57634e487b7160e01b600052604160045260246000fd5b60405190808252806020026020018201604052801561079857816020015b6107856135a5565b81526020019060019003908161077d5790505b5090506000805b848110156108b7576000818152600c60205260409020600301546001600160a01b0316331480156107e157506000818152600c602052604090206006015460ff165b156108a5576000818152600c6020908152604091829020825161010080820185528254825260018301546001600160a01b039081169483019490945260028301549482019490945260038201548316606082015260048201549092166080830152600581015460a08301526006015460ff808216151560c0840152929004909116151560e0820152835184908490811061088b57634e487b7160e01b600052603260045260246000fd5b602002602001018190525081806108a190613cdd565b9250505b806108af81613cdd565b91505061079f565b5090949350505050565b60006108ce600483612de3565b92915050565b6000546001600160a01b031633146108fe5760405162461bcd60e51b815260040161065290613ada565b600880546001600160a01b0319166001600160a01b0392909216919091179055565b836001600160a01b038116158061093d575061093d600282612df8565b6109595760405162461bcd60e51b815260040161065290613aab565b6002600154141561097c5760405162461bcd60e51b815260040161065290613b3d565b60026001558361099e5760405162461bcd60e51b815260040161065290613b74565b6000868152600c6020526040902060038101546001600160a01b03163314610a005760405162461bcd60e51b815260206004820152601560248201527429b2b73232b91036bab9ba1031329039b2b63632b960591b6044820152606401610652565b6000878152600c6020526040902060060154610100900460ff1615610a92576000878152600d60205260409020546001600160a01b0316158015610a5457506000878152600d602052604090206002015442115b610a925760405162461bcd60e51b815260206004820152600f60248201526e4974656d2069732062696464696e6760881b6044820152606401610652565b6000878152600d602052604090208415610acd576001810186905583610ab9576000610ac3565b610ac38442613c6f565b6002820155610aea565b80546001600160a01b031916815560006001820155600281018490555b6004820180546001600160a01b0319166001600160a01b038981169182179092556005840188905560068401805461ff0019166101008915150217905560018401546002850154604051600080516020613d3283398151915294610b5b948e9490911692913391908d908d90613c2f565b60405180910390a1505060018055505050505050565b6060806000610b7f600a5490565b905060008060005b83811015610bce576000818152600d60205260409020546001600160a01b0316331415610bbc57610bb9600184613c6f565b92505b80610bc681613cdd565b915050610b87565b5060008267ffffffffffffffff811115610bf857634e487b7160e01b600052604160045260246000fd5b604051908082528060200260200182016040528015610c3157816020015b610c1e6135a5565b815260200190600190039081610c165790505b50905060008367ffffffffffffffff811115610c5d57634e487b7160e01b600052604160045260246000fd5b604051908082528060200260200182016040528015610c9657816020015b610c836135e9565b815260200190600190039081610c7b5790505b50905060015b858111610df3576000818152600d60205260409020546001600160a01b0316331415610de1576000818152600c6020908152604080832081516101008082018452825482526001808401546001600160a01b03908116848801526002808601548588015260038601548216606080870191909152600487015483166080870152600587015460a087015260069096015460ff808216151560c0880152949004909316151560e0850152888852600d8752968590208551948501865280549097168452860154948301949094529390920154908201528451839291908290879089908110610d9957634e487b7160e01b600052603260045260246000fd5b602002602001018190525080858881518110610dc557634e487b7160e01b600052603260045260246000fd5b6020908102919091010152610ddb600188613c6f565b96505050505b80610deb81613cdd565b915050610c9c565b5090969095509350505050565b6008546001600160a01b03163314610e2a5760405162461bcd60e51b815260040161065290613b0f565b610e3660048383612e1a565b505050565b6008546001600160a01b03163314610e655760405162461bcd60e51b815260040161065290613b0f565b610e70600282612e38565b5050565b6000546001600160a01b03163314610e9e5760405162461bcd60e51b815260040161065290613ada565b610ea86000612e4d565b565b60026001541415610ecd5760405162461bcd60e51b815260040161065290613b3d565b60026001556000828152600c60205260409020600681015460ff168015610efd57506006810154610100900460ff165b610f195760405162461bcd60e51b815260040161065290613bab565b6000838152600d6020526040902080546001600160a01b03163314801590610f4e575060038201546001600160a01b03163314155b610fae5760405162461bcd60e51b815260206004820152602b60248201527f53656e646572206d757374206265206e6f742073656c6c6572206f722068696760448201526a3432b9ba103134b23232b960a91b6064820152608401610652565b60028101541580610fc25750428160020154115b61100e5760405162461bcd60e51b815260206004820152601960248201527f41756374696f6e2068617320616c726561647920656e646564000000000000006044820152606401610652565b806001015483116110795760405162461bcd60e51b815260206004820152602f60248201527f4e6f7420656e6f75676820657468657220746f20636f7665722068696768657360448201526e742061756374696f6e20707269636560881b6064820152608401610652565b600482015433906001600160a01b031615611117576004808401546040516323b872dd60e01b81526001600160a01b03909116916323b872dd916110c391859130918a910161398e565b602060405180830381600087803b1580156110dd57600080fd5b505af11580156110f1573d6000803e3d6000fd5b505050506040513d601f19601f820116820180604052508101906111159190613754565b505b81546001600160a01b03161561114d5781546004840154600184015461114d9230926001600160a01b0391821692911690612e9d565b81546001600160a01b0319166001600160a01b03828116918217845560018085018790558501546002860154604080518a8152929093166020830152918101919091526060810191909152608081018590527f1ec22f773eb11b65e580f47284fbf084529fa09c8c8b8b96cb76b665e38a72aa9060a0015b60405180910390a1505060018055505050565b826001600160a01b03811615806111f557506111f5600282612df8565b6112115760405162461bcd60e51b815260040161065290613aab565b600260015414156112345760405162461bcd60e51b815260040161065290613b3d565b6002600155826112565760405162461bcd60e51b815260040161065290613b74565b6000858152600c6020526040908190206001810154600282015492516323b872dd60e01b815291926001600160a01b03909116916323b872dd916112a0913391309160040161398e565b600060405180830381600087803b1580156112ba57600080fd5b505af11580156112ce573d6000803e3d6000fd5b50505050600381018054336001600160a01b0319918216179091556006820180546004840180549093166001600160a01b0389161790925561ffff1990911661010117905561131d6009613003565b6000868152600d60205260409020600181018590558361133e576000611348565b6113488442613c6f565b60028083019190915560018084015491840154604051600080516020613d328339815191529361138c938c936001600160a01b039092169233918d918d9190613c2f565b60405180910390a15050600180555050505050565b606060006113af600261305a565b905060008167ffffffffffffffff8111156113da57634e487b7160e01b600052604160045260246000fd5b604051908082528060200260200182016040528015611403578160200160208202803683370190505b50905060005b828110156114665761141c600282613064565b82828151811061143c57634e487b7160e01b600052603260045260246000fd5b6001600160a01b03909216602092830291909101909101528061145e81613cdd565b915050611409565b5092915050565b6060600061147a600a5490565b90506000611487600b5490565b9050600061149460095490565b61149e9083613cc6565b905060008167ffffffffffffffff8111156114c957634e487b7160e01b600052604160045260246000fd5b60405190808252806020026020018201604052801561150257816020015b6114ef6135a5565b8152602001906001900390816114e75790505b509050600060015b85811115801561151a5750838211155b1561160a576000818152600c602052604090206006015460ff16156115f8576000818152600c6020908152604091829020825161010080820185528254825260018301546001600160a01b039081169483019490945260028301549482019490945260038201548316606082015260048201549092166080830152600581015460a08301526006015460ff808216151560c0840152929004909116151560e082015283518490849081106115de57634e487b7160e01b600052603260045260246000fd5b602002602001018190525081806115f490613cdd565b9250505b8061160281613cdd565b91505061150a565b509095945050505050565b600260015414156116385760405162461bcd60e51b815260040161065290613b3d565b60026001556000818152600c60205260409020600681015460ff16801561166857506006810154610100900460ff165b6116845760405162461bcd60e51b815260040161065290613bab565b6000828152600d6020526040902080546001600160a01b031633146116e35760405162461bcd60e51b815260206004820152601560248201527429b2b73232b91036bab9ba103132903134b23232b960591b6044820152606401610652565b60028101541515806116f85750428160020154105b6117505760405162461bcd60e51b8152602060048201526024808201527f41756374696f6e206d75737420626520656e64656420616e64206c696d69742060448201526374696d6560e01b6064820152608401610652565b600482015460009061176c9033906001600160a01b0316613070565b905061179161271061178b8385600101546130da90919063ffffffff16565b906130e6565b60018401549091506117b3906001600160a01b031663152a902d60e11b6130f2565b156119025760018381015460028501549184015460405163152a902d60e11b81526004810193909352602483015260009182916001600160a01b031690632a55205a90604401604080518083038186803b15801561181057600080fd5b505afa158015611824573d6000803e3d6000fd5b505050506040513d601f19601f820116820180604052508101906118489190613727565b600387015491935091506001600160a01b0380841691161480159061186d5750600081115b156118cd57600485015461188e90309084906001600160a01b031684612e9d565b600385015460048601546118c89130916001600160a01b0391821691166118c36118b8868961310e565b60018a01549061311a565b612e9d565b6118fb565b6003850154600486015460018601546118fb9230926001600160a01b03918216929116906118c3908861311a565b5050611930565b6003830154600484015460018401546119309230926001600160a01b03918216929116906118c3908661311a565b60085460048401546119519133916001600160a01b03918216911684612e9d565b6001830154825460028501546040516323b872dd60e01b81526001600160a01b03938416936323b872dd9361198f933093929091169160040161398e565b600060405180830381600087803b1580156119a957600080fd5b505af11580156119bd573d6000803e3d6000fd5b5050505060068301805460ff1916905581546001600160a01b031916825560006001838101829055600280850183905590850154908501546003860154604080518981526001600160a01b03948516602082015280820193909352921660608201526080810183905260a0810192909252517ffbd14ef83c9e36d4cd05cdc496d3b3a07da3041679b4142908d0ef3cef210dc49181900360c00190a1611a67600980546001019055565b5050600180555050565b816001600160a01b0381161580611a8e5750611a8e600282612df8565b611aaa5760405162461bcd60e51b815260040161065290613aab565b60026001541415611acd5760405162461bcd60e51b815260040161065290613b3d565b600260015581611aef5760405162461bcd60e51b815260040161065290613b74565b6000848152600c6020526040908190206001810154600282015492516323b872dd60e01b815291926001600160a01b03909116916323b872dd91611b39913391309160040161398e565b600060405180830381600087803b158015611b5357600080fd5b505af1158015611b67573d6000803e3d6000fd5b50505050600381018054336001600160a01b0319918216179091556006820180546004840180549093166001600160a01b038816179092556005830185905561ffff199091166001179055611bbc6009613003565b60018101546002820154604051600080516020613d32833981519152926111c59289926001600160a01b039092169133908a908a90600090613c2f565b611c016135a5565b611c096135e9565b611c116135a5565b611c196135e9565b6000611c24600a5490565b905060015b818111611d3c576000818152600c60205260409020600101546001600160a01b038981169116148015611c6c57506000818152600c602052604090206002015487145b15611d2a576000818152600c6020908152604080832081516101008082018452825482526001808401546001600160a01b03908116848801526002808601548588015260038601548216606080870191909152600487015483166080870152600587015460a087015260069096015460ff808216151560c0880152949004909316151560e0850152888852600d8752968590208551948501865280549097168452860154948301949094529390920154908201529094509250611d3c565b80611d3481613cdd565b915050611c29565b509193509150505b9250929050565b6000611d578383613070565b9392505050565b6008546001600160a01b03163314611d885760405162461bcd60e51b815260040161065290613b0f565b610e70600482613126565b60026001541415611db65760405162461bcd60e51b815260040161065290613b3d565b60026001556000818152600c60205260409020600301546001600160a01b03163314611e1b5760405162461bcd60e51b815260206004820152601460248201527329b2b73232b91034b9903737ba103634b9ba32b960611b6044820152606401610652565b6000818152600c6020526040902060060154610100900460ff1615611ed5576000818152600d60205260409020546001600160a01b0316158015611e6f57506000818152600d602052604090206002015442115b611ead5760405162461bcd60e51b815260206004820152600f60248201526e4974656d2069732062696464696e6760881b6044820152606401610652565b6000818152600d6020526040812080546001600160a01b031916815560018101829055600201555b6000818152600c602052604090819020600181015460029091015491516323b872dd60e01b81526001600160a01b03909116916323b872dd91611f1f91309133919060040161398e565b600060405180830381600087803b158015611f3957600080fd5b505af1158015611f4d573d6000803e3d6000fd5b5050506000828152600c602052604081208181556001810180546001600160a01b0319908116909155600282018390556003820180548216905560048201805490911690556005810191909155600601805461ffff1916905550611fb1600b613003565b6040518181527fcd14eb7ebf273ed59a9fd1cf8651f3f40d9a04355b3511376f0d17b37ba224ff9060200160405180910390a15060018055565b60606000611ff8600a5490565b905060008167ffffffffffffffff81111561202357634e487b7160e01b600052604160045260246000fd5b60405190808252806020026020018201604052801561205c57816020015b6120496135e9565b8152602001906001900390816120415790505b509050600060015b8381116120f7576000818152600d6020908152604091829020825160608101845281546001600160a01b03168152600182015492810192909252600201549181019190915283518490849081106120cb57634e487b7160e01b600052603260045260246000fd5b602002602001018190525081806120e190613cdd565b92505080806120ef90613cdd565b915050612064565b50909392505050565b6060600061210e600461313b565b905060008167ffffffffffffffff81111561213957634e487b7160e01b600052604160045260246000fd5b60405190808252806020026020018201604052801561217e57816020015b60408051808201909152600080825260208201528152602001906001900390816121575790505b50905060005b828110156114665760008061219a600484613146565b915091506040518060400160405280836001600160a01b03168152602001828152508484815181106121dc57634e487b7160e01b600052603260045260246000fd5b6020026020010181905250505080806121f490613cdd565b915050612184565b6002600154141561221f5760405162461bcd60e51b815260040161065290613b3d565b60026001556000818152600c6020526040902060048101546001600160a01b03166122a75780600501543410156122a75760405162461bcd60e51b815260206004820152602660248201527f4e6f7420656e6f75676820657468657220746f20636f7665722061736b696e6760448201526520707269636560d01b6064820152608401610652565b600681015460ff1680156122c557506006810154610100900460ff16155b6122e15760405162461bcd60e51b815260040161065290613bab565b600481015433906000906122ff9083906001600160a01b0316613070565b905061231e61271061178b8386600501546130da90919063ffffffff16565b6001840154909150612340906001600160a01b031663152a902d60e11b6130f2565b1561248c5760018301546002840154600585015460405163152a902d60e11b81526004810192909252602482015260009182916001600160a01b0390911690632a55205a90604401604080518083038186803b15801561239f57600080fd5b505afa1580156123b3573d6000803e3d6000fd5b505050506040513d601f19601f820116820180604052508101906123d79190613727565b600387015491935091506001600160a01b038084169116148015906123fc5750600081115b1561245757600485015461241d90339084906001600160a01b031684612e9d565b600385015460048601546124529133916001600160a01b0391821691166118c3612447868961310e565b60058b01549061311a565b612485565b6003850154600486015460058701546124859233926001600160a01b03918216929116906118c3908861311a565b50506124ba565b6003830154600484015460058501546124ba9233926001600160a01b03918216929116906118c3908661311a565b60085460048401546124db9133916001600160a01b03918216911684612e9d565b600183015460028401546040516323b872dd60e01b81526001600160a01b03909216916323b872dd91612514913091879160040161398e565b600060405180830381600087803b15801561252e57600080fd5b505af1158015612542573d6000803e3d6000fd5b50505060068401805460ff1916905550612560600980546001019055565b6001830154600284015460038501546005860154604080518981526001600160a01b039586166020820152908101939093529083166060830152918416608082015260a08101919091527ffbd14ef83c9e36d4cd05cdc496d3b3a07da3041679b4142908d0ef3cef210dc49060c00160405180910390a15050600180555050565b6008546001600160a01b0316331461260b5760405162461bcd60e51b815260040161065290613b0f565b610e70600282613162565b600260015414156126395760405162461bcd60e51b815260040161065290613b3d565b60026001556000818152600c60205260409020600681015460ff16801561266957506006810154610100900460ff165b6126855760405162461bcd60e51b815260040161065290613bab565b6000828152600d6020526040902060038201546001600160a01b031633146126e75760405162461bcd60e51b815260206004820152601560248201527429b2b73232b91036bab9ba1031329039b2b63632b960591b6044820152606401610652565b600281015415806126fb5750428160020154105b6117505760405162461bcd60e51b815260206004820152602760248201527f41756374696f6e206d75737420626520656e646564206f72206e6f74206c696d60448201526669742074696d6560c81b6064820152608401610652565b6000546001600160a01b031633146127815760405162461bcd60e51b815260040161065290613ada565b6001600160a01b0381166127e65760405162461bcd60e51b815260206004820152602660248201527f4f776e61626c653a206e6577206f776e657220697320746865207a65726f206160448201526564647265737360d01b6064820152608401610652565b6127ef81612e4d565b50565b836001600160a01b038116158061280f575061280f600282612df8565b61282b5760405162461bcd60e51b815260040161065290613aab565b6002600154141561284e5760405162461bcd60e51b815260040161065290613b3d565b6002600155826128705760405162461bcd60e51b815260040161065290613b74565b612881866380ac58cd60e01b6130f2565b6128cd5760405162461bcd60e51b815260206004820152601b60248201527f436f6e7472616374206e6565647320746f2062652045524337323100000000006044820152606401610652565b6040516323b872dd60e01b81526001600160a01b038716906323b872dd906128fd9033903090899060040161398e565b600060405180830381600087803b15801561291757600080fd5b505af115801561292b573d6000803e3d6000fd5b5050505061293d600a80546001019055565b61294b600b80546001019055565b6000612956600a5490565b6040805161010080820183528382526001600160a01b03808c1660208085019182528486018c81523360608088019182528f86166080890190815260a089018f8152600160c08b0181815260e08c0182815260008f8152600c8a528e81209d518e559951928d018054938c166001600160a01b0319948516179055965160028d0155945160038c018054918b16918316919091179055915160048b018054919099169216919091179096559451600588015551600690960180549151151590950261ff00199615159690961661ffff19909116179490941790925583519081018452908152908101879052919250810184612a52576000612a5c565b612a5c8542613c6f565b90526000828152600d6020908152604091829020835181546001600160a01b0319166001600160a01b03909116178155908301516001808301919091559282015160029091015551600080516020613d328339815191529161138c9184918b918a9133918d918c91613c2f565b826001600160a01b0381161580612ae65750612ae6600282612df8565b612b025760405162461bcd60e51b815260040161065290613aab565b60026001541415612b255760405162461bcd60e51b815260040161065290613b3d565b600260015581612b475760405162461bcd60e51b815260040161065290613b74565b6040516323b872dd60e01b81526001600160a01b038616906323b872dd90612b779033903090889060040161398e565b600060405180830381600087803b158015612b9157600080fd5b505af1158015612ba5573d6000803e3d6000fd5b50505050612bb7600a80546001019055565b612bc5600b80546001019055565b6000612bd0600a5490565b9050604051806101000160405280828152602001876001600160a01b03168152602001858152602001336001600160a01b03168152602001866001600160a01b0316815260200184815260200160011515815260200160001515815250600c60008381526020019081526020016000206000820151816000015560208201518160010160006101000a8154816001600160a01b0302191690836001600160a01b031602179055506040820151816002015560608201518160030160006101000a8154816001600160a01b0302191690836001600160a01b0316021790555060808201518160040160006101000a8154816001600160a01b0302191690836001600160a01b0316021790555060a0820151816005015560c08201518160060160006101000a81548160ff02191690831515021790555060e08201518160060160016101000a81548160ff021916908315150217905550905050604051806060016040528060006001600160a01b031681526020018481526020016000815250600d600083815260200190815260200160002060008201518160000160006101000a8154816001600160a01b0302191690836001600160a01b031602179055506020820151816001015560408201518160020155905050600080516020613d328339815191528187863389886000604051612dcf9796959493929190613c2f565b60405180910390a150506001805550505050565b6000611d57836001600160a01b038416613177565b6001600160a01b03811660009081526001830160205260408120541515611d57565b6000612e30846001600160a01b038516846131e7565b949350505050565b6000611d57836001600160a01b038416613204565b600080546001600160a01b038381166001600160a01b0319831681178455604051919092169283917f8be0079c531659141344cd1fd0a4f28419497f9722a3daafe3b4186f6b6457e09190a35050565b6001600160a01b038216612ee7576040516001600160a01b0384169082156108fc029083906000818181858888f19350505050158015612ee1573d6000803e3d6000fd5b50612ffd565b6001600160a01b0384163014612f79576040516323b872dd60e01b81526001600160a01b038316906323b872dd90612f279087908790869060040161398e565b602060405180830381600087803b158015612f4157600080fd5b505af1158015612f55573d6000803e3d6000fd5b505050506040513d601f19601f82011682018060405250810190612ee19190613754565b60405163a9059cbb60e01b81526001600160a01b0384811660048301526024820183905283169063a9059cbb90604401602060405180830381600087803b158015612fc357600080fd5b505af1158015612fd7573d6000803e3d6000fd5b505050506040513d601f19601f82011682018060405250810190612ffb9190613754565b505b50505050565b8054806130525760405162461bcd60e51b815260206004820152601b60248201527f436f756e7465723a2064656372656d656e74206f766572666c6f7700000000006044820152606401610652565b600019019055565b60006108ce825490565b6000611d578383613321565b6040805180820190915260008082526020820181905290613092600485613359565b602083015215801582526130ab576020015190506108ce565b6130b6600484613359565b602083015215801582526130cf576020015190506108ce565b505060075492915050565b6000611d578284613ca7565b6000611d578284613c87565b60006130fd83613371565b8015611d575750611d5783836133a4565b6000611d578284613c6f565b6000611d578284613cc6565b6000611d57836001600160a01b03841661348d565b60006108ce826134aa565b600080808061315586866134b5565b9097909650945050505050565b6000611d57836001600160a01b0384166134e0565b60008181526002830160205260408120548015158061319b575061319b848461352f565b611d575760405162461bcd60e51b815260206004820152601e60248201527f456e756d657261626c654d61703a206e6f6e6578697374656e74206b657900006044820152606401610652565b60008281526002840160205260408120829055612e30848461353b565b60008181526001830160205260408120548015613317576000613228600183613cc6565b855490915060009061323c90600190613cc6565b90508181146132bd57600086600001828154811061326a57634e487b7160e01b600052603260045260246000fd5b906000526020600020015490508087600001848154811061329b57634e487b7160e01b600052603260045260246000fd5b6000918252602080832090910192909255918252600188019052604090208390555b85548690806132dc57634e487b7160e01b600052603160045260246000fd5b6001900381819060005260206000200160009055905585600101600086815260200190815260200160002060009055600193505050506108ce565b60009150506108ce565b600082600001828154811061334657634e487b7160e01b600052603260045260246000fd5b9060005260206000200154905092915050565b6000808080613155866001600160a01b038716613547565b6000613384826301ffc9a760e01b6133a4565b80156108ce575061339d826001600160e01b03196133a4565b1592915050565b604080516001600160e01b0319831660248083019190915282518083039091018152604490910182526020810180516001600160e01b03166301ffc9a760e01b179052905160009190829081906001600160a01b038716906175309061340b908690613955565b6000604051808303818686fa925050503d8060008114613447576040519150601f19603f3d011682016040523d82523d6000602084013e61344c565b606091505b509150915060208151101561346757600093505050506108ce565b8180156134835750808060200190518101906134839190613754565b9695505050505050565b60008181526002830160205260408120819055611d578383613581565b60006108ce8261305a565b600080806134c38585613064565b600081815260029690960160205260409095205494959350505050565b6000818152600183016020526040812054613527575081546001818101845560008481526020808220909301849055845484825282860190935260409020919091556108ce565b5060006108ce565b6000611d57838361358d565b6000611d5783836134e0565b600081815260028301602052604081205481908061357657613569858561352f565b925060009150611d449050565b600192509050611d44565b6000611d578383613204565b60008181526001830160205260408120541515611d57565b6040805161010081018252600080825260208201819052918101829052606081018290526080810182905260a0810182905260c0810182905260e081019190915290565b604051806060016040528060006001600160a01b0316815260200160008152602001600081525090565b600060208284031215613624578081fd5b8135611d5781613d0e565b60008060408385031215613641578081fd5b823561364c81613d0e565b9150602083013561365c81613d0e565b809150509250929050565b6000806000806080858703121561367c578182fd5b843561368781613d0e565b9350602085013561369781613d0e565b93969395505050506040820135916060013590565b600080600080600060a086880312156136c3578081fd5b85356136ce81613d0e565b945060208601356136de81613d0e565b94979496505050506040830135926060810135926080909101359150565b6000806040838503121561370e578182fd5b823561371981613d0e565b946020939093013593505050565b60008060408385031215613739578182fd5b825161374481613d0e565b6020939093015192949293505050565b600060208284031215613765578081fd5b8151611d5781613d23565b600060208284031215613781578081fd5b5035919050565b60008060006060848603121561379c578283fd5b8335925060208401356137ae81613d0e565b929592945050506040919091013590565b600080600080600060a086880312156137d6578081fd5b8535945060208601356137e881613d0e565b93506040860135925060608601356137ff81613d23565b949793965091946080013592915050565b60008060008060808587031215613825578384fd5b84359350602085013561369781613d0e565b60008060408385031215613849578182fd5b50508035926020909101359150565b6000815180845260208085019450808401835b838110156138ae5761389b87835180516001600160a01b0316825260208082015190830152604090810151910152565b606096909601959082019060010161386b565b509495945050505050565b6000815180845260208085019450808401835b838110156138ae576138df8783516138f3565b6101009690960195908201906001016138cc565b80518252602081015160018060a01b03808216602085015260408301516040850152806060840151166060850152806080840151166080850152505060a081015160a083015260c0810151151560c083015260e0810151151560e08301525050565b60008251815b81811015613975576020818601810151858301520161395b565b818111156139835782828501525b509190910192915050565b6001600160a01b039384168152919092166020820152604081019190915260600190565b6020808252825182820181905260009190848201906040850190845b818110156139f35783516001600160a01b0316835292840192918401916001016139ce565b50909695505050505050565b602081526000611d576020830184613858565b602081526000611d5760208301846138b9565b604081526000613a3860408301856138b9565b8281036020840152613a4a8185613858565b95945050505050565b602080825282518282018190526000919060409081850190868401855b82811015613a9e57815180516001600160a01b03168552860151868501529284019290850190600101613a70565b5091979650505050505050565b602080825260159082015274151bdad95b881a5cc81b9bdd081858d8d95c1d1959605a1b604082015260600190565b6020808252818101527f4f776e61626c653a2063616c6c6572206973206e6f7420746865206f776e6572604082015260600190565b602080825260149082015273135d5cdd081899481a1d588818dbdb9d1c9858dd60621b604082015260600190565b6020808252601f908201527f5265656e7472616e637947756172643a207265656e7472616e742063616c6c00604082015260600190565b6020808252601c908201527f5072696365206d757374206265206174206c6561737420312077656900000000604082015260600190565b60208082526029908201527f4e6674206d757374206265206c697374656420616e64206e6f7420696e207468604082015268329030bab1ba34b7b760b91b606082015260800190565b6101608101613c0382856138f3565b82516001600160a01b031661010083015260208301516101208301526040830151610140830152611d57565b9687526001600160a01b03958616602088015260408701949094529184166060860152909216608084015260a0830191909152151560c082015260e00190565b60008219821115613c8257613c82613cf8565b500190565b600082613ca257634e487b7160e01b81526012600452602481fd5b500490565b6000816000190483118215151615613cc157613cc1613cf8565b500290565b600082821015613cd857613cd8613cf8565b500390565b6000600019821415613cf157613cf1613cf8565b5060010190565b634e487b7160e01b600052601160045260246000fd5b6001600160a01b03811681146127ef57600080fd5b80151581146127ef57600080fdfef9b8a81a1bb3e12b4a9b295ae3f1d8b0255537c0feaafc43705b6954b5822d5ca26469706673582212202a596d22d2111a717231405c9c6a516345f3d77cfb85d8286ebbf7a3efb5a6c164736f6c63430008040033",
  "immutableReferences": {},
  "source": "// SPDX-License-Identifier: MIT\r\npragma solidity ^0.8.4;\r\n\r\nimport \"@openzeppelin/contracts/utils/Counters.sol\";\r\nimport \"@openzeppelin/contracts/token/ERC721/ERC721.sol\";\r\nimport \"@openzeppelin/contracts/utils/introspection/ERC165Checker.sol\";\r\nimport \"@openzeppelin/contracts/interfaces/IERC2981.sol\";\r\nimport \"@openzeppelin/contracts/utils/math/SafeMath.sol\";\r\nimport \"@openzeppelin/contracts/token/ERC20/IERC20.sol\";\r\nimport \"./HubChild.sol\";\r\n\r\ncontract Marketplace is HubChild {\r\n    using Counters for Counters.Counter;\r\n    using SafeMath for uint256;\r\n\r\n    Counters.Counter private _nftsSold;\r\n    Counters.Counter private _nftCount;\r\n    Counters.Counter private _nftExisted;\r\n    mapping(uint256 => NFT) private _idToNFT;\r\n    mapping(uint256 => Auction) private _idToAuction;\r\n\r\n    bytes4 public constant ERC721INTERFACE = type(IERC721).interfaceId;\r\n    bytes4 public constant ERC2981INTERFACE = type(IERC2981).interfaceId;\r\n    struct NFT {\r\n        uint256 itemId;\r\n        address nftContract;\r\n        uint256 tokenId;\r\n        address seller;\r\n        address ftContract;\r\n        uint256 price;\r\n        bool listed;\r\n        bool auction;\r\n    }\r\n\r\n    struct Auction {\r\n        address bidder;\r\n        uint256 highestBid;\r\n        uint256 timeEnd;\r\n    }\r\n\r\n    event NFTListed(\r\n        uint256 itemId,\r\n        address nftContract,\r\n        uint256 tokenId,\r\n        address seller,\r\n        address ftContract,\r\n        uint256 price,\r\n        bool auction\r\n    );\r\n\r\n    event NFTUnlisted(uint256 itemId);\r\n\r\n    event NFTAddAuction(\r\n        uint256 itemId,\r\n        address nftContract,\r\n        uint256 tokenId,\r\n        address bidder,\r\n        uint256 price\r\n    );\r\n\r\n    event NFTSold(\r\n        uint256 itemId,\r\n        address nftContract,\r\n        uint256 tokenId,\r\n        address seller,\r\n        address buyer,\r\n        uint256 price\r\n    );\r\n\r\n    constructor(uint256 fee, address hub) {\r\n        RATE_FEE = fee;\r\n        setHub(hub);\r\n    }\r\n\r\n    // List the NFT on the marketplace\r\n    function list(\r\n        address nftContract,\r\n        address ftContract,\r\n        uint256 tokenId,\r\n        uint256 price\r\n    ) public isAcceptToken(ftContract) nonReentrant {\r\n        require(price > 0, \"Price must be at least 1 wei\");\r\n\r\n        IERC721(nftContract).transferFrom(msg.sender, address(this), tokenId);\r\n        _nftCount.increment();\r\n        _nftExisted.increment();\r\n        uint256 itemId = _nftCount.current();\r\n        _idToNFT[itemId] = NFT(\r\n            itemId,\r\n            nftContract,\r\n            tokenId,\r\n            msg.sender,\r\n            ftContract,\r\n            price,\r\n            true,\r\n            false\r\n        );\r\n\r\n        _idToAuction[itemId] = Auction(address(0), price, 0);\r\n\r\n        emit NFTListed(\r\n            itemId,\r\n            nftContract,\r\n            tokenId,\r\n            msg.sender,\r\n            ftContract,\r\n            price,\r\n            false\r\n        );\r\n    }\r\n\r\n    // List the NFT on the marketplace\r\n    function bidding(\r\n        address nftContract,\r\n        address ftContract,\r\n        uint256 tokenId,\r\n        uint256 price,\r\n        uint256 duration\r\n    ) public isAcceptToken(ftContract) nonReentrant {\r\n        require(price > 0, \"Price must be at least 1 wei\");\r\n        require(\r\n            ERC165Checker.supportsInterface(nftContract, ERC721INTERFACE),\r\n            \"Contract needs to be ERC721\"\r\n        );\r\n\r\n        IERC721(nftContract).transferFrom(msg.sender, address(this), tokenId);\r\n        _nftCount.increment();\r\n        _nftExisted.increment();\r\n        uint256 itemId = _nftCount.current();\r\n\r\n        _idToNFT[itemId] = NFT(\r\n            itemId,\r\n            nftContract,\r\n            tokenId,\r\n            msg.sender,\r\n            ftContract,\r\n            price,\r\n            true,\r\n            true\r\n        );\r\n\r\n        _idToAuction[itemId] = Auction(\r\n            address(0),\r\n            price,\r\n            duration > 0 ? (block.timestamp + duration) : 0\r\n        );\r\n\r\n        emit NFTListed(\r\n            itemId,\r\n            nftContract,\r\n            tokenId,\r\n            msg.sender,\r\n            ftContract,\r\n            price,\r\n            true\r\n        );\r\n    }\r\n\r\n    function edit(\r\n        uint256 itemId,\r\n        address ftContract,\r\n        uint256 price,\r\n        bool isAuction,\r\n        uint256 duration\r\n    ) public isAcceptToken(ftContract) nonReentrant {\r\n        require(price > 0, \"Price must be at least 1 wei\");\r\n        NFT storage nft = _idToNFT[itemId];\r\n        require(msg.sender == nft.seller, \"Sender must be seller\");\r\n        if (_idToNFT[itemId].auction) {\r\n            require(_idToAuction[itemId].bidder == address(0) && (block.timestamp > _idToAuction[itemId].timeEnd), \"Item is bidding\");\r\n        }\r\n        Auction storage auction = _idToAuction[itemId];\r\n        if (isAuction) {\r\n            auction.highestBid = price;\r\n            auction.timeEnd = (duration > 0) ? (block.timestamp+ duration): 0;\r\n        }  else {\r\n            auction.bidder = address(0);\r\n            auction.highestBid = 0;\r\n            auction.timeEnd = duration;\r\n        }\r\n        nft.ftContract = ftContract;\r\n        nft.price = price;\r\n        nft.auction = isAuction;\r\n\r\n        emit NFTListed(\r\n            itemId,\r\n            nft.nftContract,\r\n            nft.tokenId,\r\n            msg.sender,\r\n            nft.ftContract,\r\n            price,\r\n            isAuction\r\n        );\r\n    }\r\n\r\n    // Resell an NFT purchased from the marketplace\r\n    function relist(\r\n        uint256 itemId,\r\n        address ftContract,\r\n        uint256 price\r\n    ) public isAcceptToken(ftContract) nonReentrant {\r\n        require(price > 0, \"Price must be at least 1 wei\");\r\n        NFT storage nft = _idToNFT[itemId];\r\n        IERC721(nft.nftContract).transferFrom(\r\n            msg.sender,\r\n            address(this),\r\n            nft.tokenId\r\n        );\r\n\r\n        nft.seller = msg.sender;\r\n        nft.listed = true;\r\n        nft.ftContract = ftContract;\r\n        nft.price = price;\r\n        nft.auction = false;\r\n        _nftsSold.decrement();\r\n        emit NFTListed(\r\n            itemId,\r\n            nft.nftContract,\r\n            nft.tokenId,\r\n            msg.sender,\r\n            ftContract,\r\n            price,\r\n            false\r\n        );\r\n    }\r\n\r\n    // Reauction an NFT purchased from the marketplace\r\n    function reauction(\r\n        uint256 itemId,\r\n        address ftContract,\r\n        uint256 price,\r\n        uint256 duration\r\n    ) public isAcceptToken(ftContract) nonReentrant {\r\n        require(price > 0, \"Price must be at least 1 wei\");\r\n        NFT storage nft = _idToNFT[itemId];\r\n        IERC721(nft.nftContract).transferFrom(\r\n            msg.sender,\r\n            address(this),\r\n            nft.tokenId\r\n        );\r\n\r\n        nft.seller = msg.sender;\r\n        nft.listed = true;\r\n        nft.ftContract = ftContract;\r\n        nft.auction = true;\r\n        _nftsSold.decrement();\r\n\r\n        Auction storage auction = _idToAuction[itemId];\r\n        auction.highestBid = price;\r\n        auction.timeEnd = duration > 0\r\n            ? (block.timestamp + duration)\r\n            : 0;\r\n\r\n        emit NFTListed(\r\n            itemId,\r\n            nft.nftContract,\r\n            nft.tokenId,\r\n            msg.sender,\r\n            ftContract,\r\n            price,\r\n            true\r\n        );\r\n    }\r\n\r\n    function unlist(uint256 itemId) external nonReentrant {\r\n        require(_idToNFT[itemId].seller == msg.sender, \"Sender is not lister\");\r\n\r\n        if (_idToNFT[itemId].auction) {\r\n            require(_idToAuction[itemId].bidder == address(0) && block.timestamp > _idToAuction[itemId].timeEnd, \"Item is bidding\");\r\n            delete _idToAuction[itemId];\r\n        }\r\n        IERC721(_idToNFT[itemId].nftContract).transferFrom(\r\n            address(this),\r\n            msg.sender,\r\n            _idToNFT[itemId].tokenId\r\n        );\r\n        delete _idToNFT[itemId];\r\n        _idToNFT[itemId].listed = false;\r\n        _nftExisted.decrement();\r\n        emit NFTUnlisted(itemId);\r\n    }\r\n\r\n    // Buy an NFT\r\n    function buy(uint256 itemId) public payable nonReentrant {\r\n        NFT storage nft = _idToNFT[itemId];\r\n        if (nft.ftContract == address(0)) {\r\n            require(\r\n                msg.value >= nft.price,\r\n                \"Not enough ether to cover asking price\"\r\n            );\r\n        }\r\n        require(\r\n            nft.listed && !nft.auction,\r\n            \"Nft must be listed and not in the auction\"\r\n        );\r\n        address payable buyer = payable(msg.sender);\r\n        uint256 fee = _feeOf(msg.sender, nft.ftContract);\r\n        fee = nft.price.mul(fee).div(DENOMINATOR);\r\n        if (\r\n            ERC165Checker.supportsInterface(nft.nftContract, ERC2981INTERFACE)\r\n        ) {\r\n            (address creator, uint256 royaltyAmount) = IERC2981(nft.nftContract)\r\n                .royaltyInfo(nft.tokenId, nft.price);\r\n            if (creator != nft.seller && royaltyAmount > 0) {\r\n                sendAssets(msg.sender, creator, nft.ftContract, royaltyAmount);\r\n                sendAssets(\r\n                    msg.sender,\r\n                    nft.seller,\r\n                    nft.ftContract,\r\n                    nft.price.sub(royaltyAmount.add(fee))\r\n                );\r\n            } else {\r\n                sendAssets(msg.sender, nft.seller, nft.ftContract, nft.price.sub(fee));\r\n            }\r\n        } else {\r\n            sendAssets(msg.sender, nft.seller, nft.ftContract, nft.price.sub(fee));\r\n        }\r\n        sendAssets(msg.sender, hubAddr, nft.ftContract, fee);\r\n\r\n        IERC721(nft.nftContract).transferFrom(\r\n            address(this),\r\n            buyer,\r\n            nft.tokenId\r\n        );\r\n        nft.listed = false;\r\n\r\n        _nftsSold.increment();\r\n        emit NFTSold(\r\n            itemId,\r\n            nft.nftContract,\r\n            nft.tokenId,\r\n            nft.seller,\r\n            buyer,\r\n            nft.price\r\n        );\r\n    }\r\n\r\n    function addAuction(uint256 itemId, uint256 value)\r\n        public\r\n        payable\r\n        nonReentrant\r\n    {\r\n        NFT storage nft = _idToNFT[itemId];\r\n        require(\r\n            nft.listed && nft.auction,\r\n            \"Nft must be listed and not in the auction\"\r\n        );\r\n        Auction storage auction = _idToAuction[itemId];\r\n\r\n        require(\r\n            msg.sender != auction.bidder && msg.sender != nft.seller,\r\n            \"Sender must be not seller or highest bidder\"\r\n        );\r\n        require(\r\n            auction.timeEnd == 0 || (auction.timeEnd > block.timestamp),\r\n            \"Auction has already ended\"\r\n        );\r\n        require(\r\n            value > auction.highestBid,\r\n            \"Not enough ether to cover highest auction price\"\r\n        );\r\n\r\n        address bidder = msg.sender;\r\n        if (nft.ftContract != address(0)) {\r\n            IERC20(nft.ftContract).transferFrom(bidder, address(this), value);\r\n        }\r\n\r\n        if (auction.bidder != address(0)) {\r\n            sendAssets(\r\n                address(this),\r\n                auction.bidder,\r\n                nft.ftContract,\r\n                auction.highestBid\r\n            );\r\n        }\r\n\r\n        auction.bidder = bidder;\r\n        auction.highestBid = value;\r\n\r\n        emit NFTAddAuction(itemId, nft.nftContract, nft.tokenId, bidder, value);\r\n    }\r\n\r\n    function acceptAuction(uint256 itemId) public payable nonReentrant {\r\n        NFT storage nft = _idToNFT[itemId];\r\n        require(\r\n            nft.listed && nft.auction,\r\n            \"Nft must be listed and not in the auction\"\r\n        );\r\n        Auction storage auction = _idToAuction[itemId];\r\n        require(msg.sender == nft.seller, \"Sender must be seller\");\r\n        require(\r\n            auction.timeEnd == 0 || (auction.timeEnd < block.timestamp),\r\n            \"Auction must be ended or not limit time\"\r\n        );\r\n        uint256 fee = _feeOf(msg.sender, nft.ftContract);\r\n        fee = auction.highestBid.mul(fee).div(DENOMINATOR);\r\n        if (\r\n            ERC165Checker.supportsInterface(nft.nftContract, ERC2981INTERFACE)\r\n        ) {\r\n            (address creator, uint256 royaltyAmount) = IERC2981(nft.nftContract)\r\n                .royaltyInfo(nft.tokenId, auction.highestBid);\r\n            if (creator != nft.seller && royaltyAmount > 0) {\r\n                sendAssets(\r\n                    address(this),\r\n                    creator,\r\n                    nft.ftContract,\r\n                    royaltyAmount\r\n                );\r\n                sendAssets(\r\n                    address(this),\r\n                    nft.seller,\r\n                    nft.ftContract,\r\n                    auction.highestBid.sub(royaltyAmount.add(fee))\r\n                );\r\n            } else {\r\n                sendAssets(\r\n                    address(this),\r\n                    nft.seller,\r\n                    nft.ftContract,\r\n                    auction.highestBid.sub(fee)\r\n                );\r\n            }\r\n        } else {\r\n            sendAssets(\r\n                address(this),\r\n                nft.seller,\r\n                nft.ftContract,\r\n                auction.highestBid.sub(fee)\r\n            );\r\n        }\r\n        sendAssets(msg.sender, hubAddr, nft.ftContract, fee);\r\n        IERC721(nft.nftContract).transferFrom(\r\n            address(this),\r\n            auction.bidder,\r\n            nft.tokenId\r\n        );\r\n        nft.listed = false;\r\n        auction.bidder = address(0);\r\n        auction.highestBid = 0;\r\n        auction.timeEnd = 0;\r\n        emit NFTSold(\r\n            itemId,\r\n            nft.nftContract,\r\n            nft.tokenId,\r\n            nft.seller,\r\n            auction.bidder,\r\n            auction.highestBid\r\n        );\r\n        _nftsSold.increment();\r\n    }\r\n\r\n    function claimAuction(uint256 itemId) public payable nonReentrant {\r\n        NFT storage nft = _idToNFT[itemId];\r\n        require(\r\n            nft.listed && nft.auction,\r\n            \"Nft must be listed and not in the auction\"\r\n        );\r\n        Auction storage auction = _idToAuction[itemId];\r\n        require(msg.sender == auction.bidder, \"Sender must be bidder\");\r\n        require(\r\n            auction.timeEnd != 0 || (auction.timeEnd < block.timestamp),\r\n            \"Auction must be ended and limit time\"\r\n        );\r\n        uint256 fee = _feeOf(msg.sender, nft.ftContract);\r\n        fee = auction.highestBid.mul(fee).div(DENOMINATOR);\r\n        if (\r\n            ERC165Checker.supportsInterface(nft.nftContract, ERC2981INTERFACE)\r\n        ) {\r\n            (address creator, uint256 royaltyAmount) = IERC2981(nft.nftContract)\r\n                .royaltyInfo(nft.tokenId, auction.highestBid);\r\n            if (creator != nft.seller && royaltyAmount > 0) {\r\n                sendAssets(\r\n                    address(this),\r\n                    creator,\r\n                    nft.ftContract,\r\n                    royaltyAmount\r\n                );\r\n                sendAssets(\r\n                    address(this),\r\n                    nft.seller,\r\n                    nft.ftContract,\r\n                    auction.highestBid.sub(royaltyAmount.add(fee))\r\n                );\r\n            } else {\r\n                sendAssets(\r\n                    address(this),\r\n                    nft.seller,\r\n                    nft.ftContract,\r\n                    auction.highestBid.sub(fee)\r\n                );\r\n            }\r\n        } else {\r\n            sendAssets(\r\n                address(this),\r\n                nft.seller,\r\n                nft.ftContract,\r\n                auction.highestBid.sub(fee)\r\n            );\r\n        }\r\n        sendAssets(msg.sender, hubAddr, nft.ftContract, fee);\r\n        IERC721(nft.nftContract).transferFrom(\r\n            address(this),\r\n            auction.bidder,\r\n            nft.tokenId\r\n        );\r\n        nft.listed = false;\r\n        auction.bidder = address(0);\r\n        auction.highestBid = 0;\r\n        auction.timeEnd = 0;\r\n        emit NFTSold(\r\n            itemId,\r\n            nft.nftContract,\r\n            nft.tokenId,\r\n            nft.seller,\r\n            auction.bidder,\r\n            auction.highestBid\r\n        );\r\n        _nftsSold.increment();\r\n    }\r\n\r\n    function getListedNfts() public view returns (NFT[] memory) {\r\n        uint256 nftCount = _nftCount.current();\r\n        uint256 existedItem = _nftExisted.current();\r\n        uint256 unsoldNftsCount = existedItem - _nftsSold.current();\r\n\r\n        NFT[] memory nfts = new NFT[](unsoldNftsCount);\r\n        uint256 nftsIndex = 0;\r\n        for (uint256 i = 1; i <= nftCount && nftsIndex<= unsoldNftsCount; i++) {\r\n            if (_idToNFT[i].listed) {\r\n                nfts[nftsIndex] = _idToNFT[i];\r\n                nftsIndex++;\r\n            }\r\n        }\r\n        return nfts;\r\n    }\r\n\r\n    function getMyListedNfts() public view returns (NFT[] memory) {\r\n        uint256 nftCount = _nftCount.current();\r\n        uint256 myListedNftCount = 0;\r\n        for (uint256 i = 1; i <= nftCount; i++) {\r\n            if (_idToNFT[i].seller == msg.sender && _idToNFT[i].listed) {\r\n                myListedNftCount++;\r\n            }\r\n        }\r\n\r\n        NFT[] memory nfts = new NFT[](myListedNftCount);\r\n        uint256 nftsIndex = 0;\r\n        for (uint256 i = 0; i < nftCount; i++) {\r\n            if (_idToNFT[i].seller == msg.sender && _idToNFT[i].listed) {\r\n                nfts[nftsIndex] = _idToNFT[i];\r\n                nftsIndex++;\r\n            }\r\n        }\r\n        return nfts;\r\n    }\r\n\r\n    /* Returns all of user bids */\r\n    function getUserBids()\r\n        external\r\n        view\r\n        returns (NFT[] memory, Auction[] memory)\r\n    {\r\n        uint256 totalItemCount = _nftCount.current();\r\n        uint256 itemCount = 0;\r\n        uint256 currentIndex = 0;\r\n\r\n        for (uint256 i = 0; i < totalItemCount; i++) {\r\n            if (_idToAuction[i].bidder == msg.sender) {\r\n                itemCount += 1;\r\n            }\r\n        }\r\n\r\n        NFT[] memory items = new NFT[](itemCount);\r\n        Auction[] memory info = new Auction[](itemCount);\r\n\r\n        for (uint256 i = 1; i <= totalItemCount; i++) {\r\n            if (_idToAuction[i].bidder == msg.sender) {\r\n                uint256 currentId = i;\r\n                NFT memory currentItem = _idToNFT[currentId];\r\n                Auction memory currentInfo = _idToAuction[currentId];\r\n                items[currentIndex] = currentItem;\r\n                info[currentIndex] = currentInfo;\r\n                currentIndex += 1;\r\n            }\r\n        }\r\n        return (items, info);\r\n    }\r\n\r\n    function getListAuction() public view returns (Auction[] memory) {\r\n        uint256 nftCount = _nftCount.current();\r\n\r\n        Auction[] memory auctions = new Auction[](nftCount);\r\n        uint256 nftsIndex = 0;\r\n        for (uint256 i = 1; i <= nftCount; i++) {\r\n            auctions[nftsIndex] = _idToAuction[i];\r\n            nftsIndex++;\r\n        }\r\n        return auctions;\r\n    }\r\n\r\n    function getMarketData(address contractAddress, uint256 tokenId)\r\n        public\r\n        view\r\n        returns (NFT memory, Auction memory)\r\n    {\r\n        NFT memory nft;\r\n        Auction memory auction;\r\n        uint256 nftCount = _nftCount.current();\r\n        for (uint256 i = 1; i <= nftCount; i++) {\r\n            if (\r\n                _idToNFT[i].nftContract == contractAddress &&\r\n                _idToNFT[i].tokenId == tokenId\r\n            ) {\r\n                nft = _idToNFT[i];\r\n                auction = _idToAuction[i];\r\n                break;\r\n            }\r\n        }\r\n\r\n        return (nft, auction);\r\n    }\r\n\r\n    function sendAssets(\r\n        address from,\r\n        address to,\r\n        address ftToken,\r\n        uint256 value\r\n    ) private {\r\n        if (ftToken == address(0)) {\r\n            payable(to).transfer(value);\r\n        } else {\r\n            if (from != address(this)) {\r\n                IERC20(ftToken).transferFrom(from, to, value);\r\n            } else {\r\n                IERC20(ftToken).transfer(to, value);\r\n            }\r\n        }\r\n    }\r\n}\r\n",
  "sourcePath": "G:\\Learning\\Project\\source\\picasarts-contracts\\contracts\\Marketplace.sol",
  "compiler": {
    "name": "solc",
    "version": "0.8.4+commit.c7e474f2.Emscripten.clang"
  },
  "schemaVersion": "3.4.10",
  "updatedAt": "2023-03-11T09:26:52.087Z",
  "devdoc": {
    "kind": "dev",
    "methods": {
      "owner()": {
        "details": "Returns the address of the current owner."
      },
      "renounceOwnership()": {
        "details": "Leaves the contract without owner. It will not be possible to call `onlyOwner` functions anymore. Can only be called by the current owner. NOTE: Renouncing ownership will leave the contract without an owner, thereby removing any functionality that is only available to the owner."
      },
      "transferOwnership(address)": {
        "details": "Transfers ownership of the contract to a new account (`newOwner`). Can only be called by the current owner."
      }
    },
    "version": 1
  },
  "userdoc": {
    "kind": "user",
    "methods": {},
    "version": 1
  }
}