{
  "contractName": "NFTLoan",
  "abi": [
    {
      "inputs": [
        {
          "internalType": "uint256",
          "name": "fee",
          "type": "uint256"
        },
        {
          "internalType": "address",
          "name": "hub",
          "type": "address"
        }
      ],
      "stateMutability": "nonpayable",
      "type": "constructor"
    },
    {
      "anonymous": false,
      "inputs": [
        {
          "indexed": false,
          "internalType": "uint256",
          "name": "itemId",
          "type": "uint256"
        },
        {
          "indexed": false,
          "internalType": "address",
          "name": "lender",
          "type": "address"
        },
        {
          "indexed": false,
          "internalType": "address",
          "name": "ftContract",
          "type": "address"
        },
        {
          "indexed": false,
          "internalType": "uint256",
          "name": "amount",
          "type": "uint256"
        },
        {
          "indexed": false,
          "internalType": "uint256",
          "name": "profit",
          "type": "uint256"
        },
        {
          "indexed": false,
          "internalType": "uint256",
          "name": "timeExpired",
          "type": "uint256"
        }
      ],
      "name": "CovenantAccept",
      "type": "event"
    },
    {
      "anonymous": false,
      "inputs": [
        {
          "indexed": false,
          "internalType": "uint256",
          "name": "itemId",
          "type": "uint256"
        },
        {
          "indexed": false,
          "internalType": "address",
          "name": "ftContract",
          "type": "address"
        },
        {
          "indexed": false,
          "internalType": "uint256",
          "name": "amount",
          "type": "uint256"
        },
        {
          "indexed": false,
          "internalType": "uint256",
          "name": "profit",
          "type": "uint256"
        },
        {
          "indexed": false,
          "internalType": "uint256",
          "name": "duration",
          "type": "uint256"
        }
      ],
      "name": "CovenantEdited",
      "type": "event"
    },
    {
      "anonymous": false,
      "inputs": [
        {
          "indexed": false,
          "internalType": "uint256",
          "name": "itemId",
          "type": "uint256"
        },
        {
          "indexed": false,
          "internalType": "address",
          "name": "nftContract",
          "type": "address"
        },
        {
          "indexed": false,
          "internalType": "uint256",
          "name": "tokenId",
          "type": "uint256"
        }
      ],
      "name": "CovenantLiquidate",
      "type": "event"
    },
    {
      "anonymous": false,
      "inputs": [
        {
          "indexed": false,
          "internalType": "uint256",
          "name": "itemId",
          "type": "uint256"
        },
        {
          "indexed": false,
          "internalType": "address",
          "name": "nftContract",
          "type": "address"
        },
        {
          "indexed": false,
          "internalType": "uint256",
          "name": "tokenId",
          "type": "uint256"
        },
        {
          "indexed": false,
          "internalType": "address",
          "name": "ftContract",
          "type": "address"
        },
        {
          "indexed": false,
          "internalType": "uint256",
          "name": "amount",
          "type": "uint256"
        },
        {
          "indexed": false,
          "internalType": "uint256",
          "name": "profit",
          "type": "uint256"
        },
        {
          "indexed": false,
          "internalType": "uint256",
          "name": "duration",
          "type": "uint256"
        },
        {
          "indexed": false,
          "internalType": "uint8",
          "name": "status",
          "type": "uint8"
        },
        {
          "indexed": false,
          "internalType": "address",
          "name": "borrower",
          "type": "address"
        },
        {
          "indexed": false,
          "internalType": "address",
          "name": "lender",
          "type": "address"
        }
      ],
      "name": "CovenantListed",
      "type": "event"
    },
    {
      "anonymous": false,
      "inputs": [
        {
          "indexed": false,
          "internalType": "uint256",
          "name": "itemId",
          "type": "uint256"
        },
        {
          "indexed": false,
          "internalType": "address",
          "name": "nftContract",
          "type": "address"
        },
        {
          "indexed": false,
          "internalType": "uint256",
          "name": "tokenId",
          "type": "uint256"
        },
        {
          "indexed": false,
          "internalType": "address",
          "name": "ftContract",
          "type": "address"
        },
        {
          "indexed": false,
          "internalType": "uint256",
          "name": "amount",
          "type": "uint256"
        },
        {
          "indexed": false,
          "internalType": "uint256",
          "name": "profit",
          "type": "uint256"
        }
      ],
      "name": "CovenantPayOff",
      "type": "event"
    },
    {
      "anonymous": false,
      "inputs": [
        {
          "indexed": false,
          "internalType": "uint256",
          "name": "itemId",
          "type": "uint256"
        }
      ],
      "name": "CovenantUnlisted",
      "type": "event"
    },
    {
      "anonymous": false,
      "inputs": [
        {
          "indexed": true,
          "internalType": "address",
          "name": "previousOwner",
          "type": "address"
        },
        {
          "indexed": true,
          "internalType": "address",
          "name": "newOwner",
          "type": "address"
        }
      ],
      "name": "OwnershipTransferred",
      "type": "event"
    },
    {
      "anonymous": false,
      "inputs": [
        {
          "indexed": false,
          "internalType": "uint256",
          "name": "itemId",
          "type": "uint256"
        },
        {
          "indexed": false,
          "internalType": "uint256",
          "name": "profit",
          "type": "uint256"
        },
        {
          "indexed": false,
          "internalType": "uint256",
          "name": "timeExpired",
          "type": "uint256"
        }
      ],
      "name": "ProposalAccepted",
      "type": "event"
    },
    {
      "anonymous": false,
      "inputs": [
        {
          "indexed": false,
          "internalType": "uint256",
          "name": "itemId",
          "type": "uint256"
        },
        {
          "indexed": false,
          "internalType": "uint256",
          "name": "profit",
          "type": "uint256"
        },
        {
          "indexed": false,
          "internalType": "uint256",
          "name": "timeExpired",
          "type": "uint256"
        }
      ],
      "name": "ProposalEdited",
      "type": "event"
    },
    {
      "inputs": [],
      "name": "DENOMINATOR",
      "outputs": [
        {
          "internalType": "uint256",
          "name": "",
          "type": "uint256"
        }
      ],
      "stateMutability": "view",
      "type": "function"
    },
    {
      "inputs": [],
      "name": "ERC2981INTERFACE",
      "outputs": [
        {
          "internalType": "bytes4",
          "name": "",
          "type": "bytes4"
        }
      ],
      "stateMutability": "view",
      "type": "function"
    },
    {
      "inputs": [],
      "name": "ERC721INTERFACE",
      "outputs": [
        {
          "internalType": "bytes4",
          "name": "",
          "type": "bytes4"
        }
      ],
      "stateMutability": "view",
      "type": "function"
    },
    {
      "inputs": [],
      "name": "RATE_FEE",
      "outputs": [
        {
          "internalType": "uint256",
          "name": "",
          "type": "uint256"
        }
      ],
      "stateMutability": "view",
      "type": "function"
    },
    {
      "inputs": [
        {
          "internalType": "address",
          "name": "tokenAddr",
          "type": "address"
        }
      ],
      "name": "addAcceptToken",
      "outputs": [],
      "stateMutability": "nonpayable",
      "type": "function"
    },
    {
      "inputs": [
        {
          "internalType": "address",
          "name": "whitelistAddress",
          "type": "address"
        },
        {
          "internalType": "uint256",
          "name": "fee",
          "type": "uint256"
        }
      ],
      "name": "addWhitelistAddress",
      "outputs": [],
      "stateMutability": "nonpayable",
      "type": "function"
    },
    {
      "inputs": [
        {
          "internalType": "address",
          "name": "walletAddress",
          "type": "address"
        },
        {
          "internalType": "address",
          "name": "tokenAddress",
          "type": "address"
        }
      ],
      "name": "feeOf",
      "outputs": [
        {
          "internalType": "uint256",
          "name": "",
          "type": "uint256"
        }
      ],
      "stateMutability": "view",
      "type": "function"
    },
    {
      "inputs": [],
      "name": "getAcceptTokens",
      "outputs": [
        {
          "internalType": "address[]",
          "name": "",
          "type": "address[]"
        }
      ],
      "stateMutability": "view",
      "type": "function"
    },
    {
      "inputs": [],
      "name": "getRateFee",
      "outputs": [
        {
          "internalType": "uint256",
          "name": "",
          "type": "uint256"
        }
      ],
      "stateMutability": "view",
      "type": "function"
    },
    {
      "inputs": [
        {
          "internalType": "address",
          "name": "tokenAddress",
          "type": "address"
        }
      ],
      "name": "getTokenFee",
      "outputs": [
        {
          "internalType": "uint256",
          "name": "",
          "type": "uint256"
        }
      ],
      "stateMutability": "view",
      "type": "function"
    },
    {
      "inputs": [],
      "name": "getWhitelist",
      "outputs": [
        {
          "components": [
            {
              "internalType": "address",
              "name": "addr",
              "type": "address"
            },
            {
              "internalType": "uint256",
              "name": "fee",
              "type": "uint256"
            }
          ],
          "internalType": "struct IHubChild.WhitelistVars[]",
          "name": "",
          "type": "tuple[]"
        }
      ],
      "stateMutability": "view",
      "type": "function"
    },
    {
      "inputs": [],
      "name": "hubAddr",
      "outputs": [
        {
          "internalType": "address",
          "name": "",
          "type": "address"
        }
      ],
      "stateMutability": "view",
      "type": "function"
    },
    {
      "inputs": [],
      "name": "owner",
      "outputs": [
        {
          "internalType": "address",
          "name": "",
          "type": "address"
        }
      ],
      "stateMutability": "view",
      "type": "function"
    },
    {
      "inputs": [
        {
          "internalType": "address",
          "name": "tokenAddr",
          "type": "address"
        }
      ],
      "name": "removeToken",
      "outputs": [],
      "stateMutability": "nonpayable",
      "type": "function"
    },
    {
      "inputs": [
        {
          "internalType": "address",
          "name": "whitelistAddress",
          "type": "address"
        }
      ],
      "name": "removeWhitelistAddress",
      "outputs": [],
      "stateMutability": "nonpayable",
      "type": "function"
    },
    {
      "inputs": [],
      "name": "renounceOwnership",
      "outputs": [],
      "stateMutability": "nonpayable",
      "type": "function"
    },
    {
      "inputs": [
        {
          "internalType": "address",
          "name": "hub",
          "type": "address"
        }
      ],
      "name": "setHub",
      "outputs": [],
      "stateMutability": "nonpayable",
      "type": "function"
    },
    {
      "inputs": [
        {
          "internalType": "uint256",
          "name": "rateFee",
          "type": "uint256"
        }
      ],
      "name": "setRateFee",
      "outputs": [],
      "stateMutability": "nonpayable",
      "type": "function"
    },
    {
      "inputs": [
        {
          "internalType": "address",
          "name": "newOwner",
          "type": "address"
        }
      ],
      "name": "transferOwnership",
      "outputs": [],
      "stateMutability": "nonpayable",
      "type": "function"
    },
    {
      "inputs": [
        {
          "internalType": "address",
          "name": "nftContract",
          "type": "address"
        },
        {
          "internalType": "uint256",
          "name": "tokenId",
          "type": "uint256"
        },
        {
          "internalType": "address",
          "name": "ftContract",
          "type": "address"
        },
        {
          "internalType": "uint256",
          "name": "amount",
          "type": "uint256"
        },
        {
          "internalType": "uint256",
          "name": "profit",
          "type": "uint256"
        },
        {
          "internalType": "uint256",
          "name": "duration",
          "type": "uint256"
        }
      ],
      "name": "list",
      "outputs": [],
      "stateMutability": "nonpayable",
      "type": "function"
    },
    {
      "inputs": [
        {
          "internalType": "uint256",
          "name": "itemId",
          "type": "uint256"
        }
      ],
      "name": "unlist",
      "outputs": [],
      "stateMutability": "nonpayable",
      "type": "function"
    },
    {
      "inputs": [
        {
          "internalType": "uint256",
          "name": "itemId",
          "type": "uint256"
        },
        {
          "internalType": "address",
          "name": "ftContract",
          "type": "address"
        },
        {
          "internalType": "uint256",
          "name": "amount",
          "type": "uint256"
        },
        {
          "internalType": "uint256",
          "name": "profit",
          "type": "uint256"
        },
        {
          "internalType": "uint256",
          "name": "duration",
          "type": "uint256"
        }
      ],
      "name": "edit",
      "outputs": [],
      "stateMutability": "nonpayable",
      "type": "function"
    },
    {
      "inputs": [
        {
          "internalType": "uint256",
          "name": "itemId",
          "type": "uint256"
        },
        {
          "internalType": "uint256",
          "name": "profit",
          "type": "uint256"
        },
        {
          "internalType": "uint256",
          "name": "timeAdd",
          "type": "uint256"
        }
      ],
      "name": "extend",
      "outputs": [],
      "stateMutability": "nonpayable",
      "type": "function"
    },
    {
      "inputs": [
        {
          "internalType": "uint256",
          "name": "itemId",
          "type": "uint256"
        }
      ],
      "name": "accept",
      "outputs": [],
      "stateMutability": "nonpayable",
      "type": "function"
    },
    {
      "inputs": [
        {
          "internalType": "uint256",
          "name": "itemId",
          "type": "uint256"
        }
      ],
      "name": "lend",
      "outputs": [],
      "stateMutability": "payable",
      "type": "function"
    },
    {
      "inputs": [
        {
          "internalType": "uint256",
          "name": "itemId",
          "type": "uint256"
        }
      ],
      "name": "payoff",
      "outputs": [],
      "stateMutability": "payable",
      "type": "function"
    },
    {
      "inputs": [
        {
          "internalType": "uint256",
          "name": "itemId",
          "type": "uint256"
        }
      ],
      "name": "liquidate",
      "outputs": [],
      "stateMutability": "payable",
      "type": "function"
    },
    {
      "inputs": [],
      "name": "getCovenants",
      "outputs": [
        {
          "components": [
            {
              "internalType": "uint256",
              "name": "itemId",
              "type": "uint256"
            },
            {
              "internalType": "address",
              "name": "nftContract",
              "type": "address"
            },
            {
              "internalType": "uint256",
              "name": "tokenId",
              "type": "uint256"
            },
            {
              "internalType": "address",
              "name": "ftContract",
              "type": "address"
            },
            {
              "internalType": "uint256",
              "name": "amount",
              "type": "uint256"
            },
            {
              "internalType": "uint256",
              "name": "profit",
              "type": "uint256"
            },
            {
              "internalType": "uint256",
              "name": "timeExpired",
              "type": "uint256"
            },
            {
              "internalType": "uint256",
              "name": "duration",
              "type": "uint256"
            },
            {
              "internalType": "enum NFTLoan.CovenantStatus",
              "name": "status",
              "type": "uint8"
            },
            {
              "internalType": "address",
              "name": "borrower",
              "type": "address"
            },
            {
              "internalType": "address",
              "name": "lender",
              "type": "address"
            },
            {
              "internalType": "bool",
              "name": "isLatest",
              "type": "bool"
            }
          ],
          "internalType": "struct NFTLoan.Covenant[]",
          "name": "",
          "type": "tuple[]"
        }
      ],
      "stateMutability": "view",
      "type": "function"
    },
    {
      "inputs": [
        {
          "internalType": "address",
          "name": "addr",
          "type": "address"
        }
      ],
      "name": "getCovenantsByAddress",
      "outputs": [
        {
          "components": [
            {
              "internalType": "uint256",
              "name": "itemId",
              "type": "uint256"
            },
            {
              "internalType": "address",
              "name": "nftContract",
              "type": "address"
            },
            {
              "internalType": "uint256",
              "name": "tokenId",
              "type": "uint256"
            },
            {
              "internalType": "address",
              "name": "ftContract",
              "type": "address"
            },
            {
              "internalType": "uint256",
              "name": "amount",
              "type": "uint256"
            },
            {
              "internalType": "uint256",
              "name": "profit",
              "type": "uint256"
            },
            {
              "internalType": "uint256",
              "name": "timeExpired",
              "type": "uint256"
            },
            {
              "internalType": "uint256",
              "name": "duration",
              "type": "uint256"
            },
            {
              "internalType": "enum NFTLoan.CovenantStatus",
              "name": "status",
              "type": "uint8"
            },
            {
              "internalType": "address",
              "name": "borrower",
              "type": "address"
            },
            {
              "internalType": "address",
              "name": "lender",
              "type": "address"
            },
            {
              "internalType": "bool",
              "name": "isLatest",
              "type": "bool"
            }
          ],
          "internalType": "struct NFTLoan.Covenant[]",
          "name": "",
          "type": "tuple[]"
        }
      ],
      "stateMutability": "view",
      "type": "function"
    },
    {
      "inputs": [
        {
          "internalType": "uint256",
          "name": "itemId",
          "type": "uint256"
        }
      ],
      "name": "getCovenant",
      "outputs": [
        {
          "components": [
            {
              "internalType": "uint256",
              "name": "itemId",
              "type": "uint256"
            },
            {
              "internalType": "address",
              "name": "nftContract",
              "type": "address"
            },
            {
              "internalType": "uint256",
              "name": "tokenId",
              "type": "uint256"
            },
            {
              "internalType": "address",
              "name": "ftContract",
              "type": "address"
            },
            {
              "internalType": "uint256",
              "name": "amount",
              "type": "uint256"
            },
            {
              "internalType": "uint256",
              "name": "profit",
              "type": "uint256"
            },
            {
              "internalType": "uint256",
              "name": "timeExpired",
              "type": "uint256"
            },
            {
              "internalType": "uint256",
              "name": "duration",
              "type": "uint256"
            },
            {
              "internalType": "enum NFTLoan.CovenantStatus",
              "name": "status",
              "type": "uint8"
            },
            {
              "internalType": "address",
              "name": "borrower",
              "type": "address"
            },
            {
              "internalType": "address",
              "name": "lender",
              "type": "address"
            },
            {
              "internalType": "bool",
              "name": "isLatest",
              "type": "bool"
            }
          ],
          "internalType": "struct NFTLoan.Covenant",
          "name": "",
          "type": "tuple"
        },
        {
          "components": [
            {
              "internalType": "uint256",
              "name": "itemId",
              "type": "uint256"
            },
            {
              "internalType": "uint256",
              "name": "profit",
              "type": "uint256"
            },
            {
              "internalType": "uint256",
              "name": "timeExpired",
              "type": "uint256"
            }
          ],
          "internalType": "struct NFTLoan.Proposal",
          "name": "",
          "type": "tuple"
        }
      ],
      "stateMutability": "view",
      "type": "function"
    },
    {
      "inputs": [
        {
          "internalType": "address",
          "name": "addr",
          "type": "address"
        }
      ],
      "name": "getUserHealth",
      "outputs": [
        {
          "internalType": "uint256",
          "name": "",
          "type": "uint256"
        },
        {
          "internalType": "uint256",
          "name": "",
          "type": "uint256"
        }
      ],
      "stateMutability": "view",
      "type": "function"
    },
    {
      "inputs": [
        {
          "internalType": "address",
          "name": "contractAddress",
          "type": "address"
        },
        {
          "internalType": "uint256",
          "name": "tokenId",
          "type": "uint256"
        }
      ],
      "name": "getLoanData",
      "outputs": [
        {
          "components": [
            {
              "internalType": "uint256",
              "name": "itemId",
              "type": "uint256"
            },
            {
              "internalType": "address",
              "name": "nftContract",
              "type": "address"
            },
            {
              "internalType": "uint256",
              "name": "tokenId",
              "type": "uint256"
            },
            {
              "internalType": "address",
              "name": "ftContract",
              "type": "address"
            },
            {
              "internalType": "uint256",
              "name": "amount",
              "type": "uint256"
            },
            {
              "internalType": "uint256",
              "name": "profit",
              "type": "uint256"
            },
            {
              "internalType": "uint256",
              "name": "timeExpired",
              "type": "uint256"
            },
            {
              "internalType": "uint256",
              "name": "duration",
              "type": "uint256"
            },
            {
              "internalType": "enum NFTLoan.CovenantStatus",
              "name": "status",
              "type": "uint8"
            },
            {
              "internalType": "address",
              "name": "borrower",
              "type": "address"
            },
            {
              "internalType": "address",
              "name": "lender",
              "type": "address"
            },
            {
              "internalType": "bool",
              "name": "isLatest",
              "type": "bool"
            }
          ],
          "internalType": "struct NFTLoan.Covenant",
          "name": "",
          "type": "tuple"
        },
        {
          "components": [
            {
              "internalType": "uint256",
              "name": "itemId",
              "type": "uint256"
            },
            {
              "internalType": "uint256",
              "name": "profit",
              "type": "uint256"
            },
            {
              "internalType": "uint256",
              "name": "timeExpired",
              "type": "uint256"
            }
          ],
          "internalType": "struct NFTLoan.Proposal",
          "name": "",
          "type": "tuple"
        }
      ],
      "stateMutability": "view",
      "type": "function"
    }
  ],
  "bytecode": "0x60806040523480156200001157600080fd5b50604051620036243803806200362483398101604081905262000034916200012c565b6200003f336200005b565b6001805560078290556200005381620000ab565b505062000169565b600080546001600160a01b038381166001600160a01b0319831681178455604051919092169283917f8be0079c531659141344cd1fd0a4f28419497f9722a3daafe3b4186f6b6457e09190a35050565b6000546001600160a01b031633146200010a5760405162461bcd60e51b815260206004820181905260248201527f4f776e61626c653a2063616c6c6572206973206e6f7420746865206f776e6572604482015260640160405180910390fd5b600880546001600160a01b0319166001600160a01b0392909216919091179055565b600080604083850312156200013f578182fd5b825160208401519092506001600160a01b03811681146200015e578182fd5b809150509250929050565b6134ab80620001796000396000f3fe6080604052600436106101e35760003560e01c80637fa084a211610102578063b1c005fa11610095578063ddddca1111610064578063ddddca1114610569578063debd227214610589578063f2fde38b146105a9578063f9d6c03b146105c957600080fd5b8063b1c005fa146104e7578063b7ecbaae14610507578063bf5a4dd314610527578063d01f63f51461054757600080fd5b8063918f8674116100d1578063918f86741461048957806393e4626e1461049f578063a6aa57ce146104b4578063a89eccfd146104c757600080fd5b80637fa084a2146104215780638563e10e1461043457806386c3b08a146104565780638da5cb5b1461046b57600080fd5b806349095a211161017a5780635a24a0b5116101495780635a24a0b5146103ac5780635fa7b584146103cc5780636eeaa63c146103ec578063715018a61461040c57600080fd5b806349095a2114610310578063502a676c146103485780635254aca91461035e578063568744801461037e57600080fd5b806319b05f49116101b657806319b05f491461028f578063252154fa146102af57806331962cdc146102dd578063415f1240146102fd57600080fd5b8063042ca242146101e857806307cb1a6e1461021e5780630f15e9be146102525780631879c75014610274575b600080fd5b3480156101f457600080fd5b50610208610203366004612eb2565b610621565b60405161021591906131f1565b60405180910390f35b34801561022a57600080fd5b506102396380ac58cd60e01b81565b6040516001600160e01b03199091168152602001610215565b34801561025e57600080fd5b5061027261026d366004612fd9565b6108cf565b005b34801561028057600080fd5b5061023963152a902d60e11b81565b34801561029b57600080fd5b506102726102aa366004612fd9565b610962565b3480156102bb57600080fd5b506102cf6102ca366004612eb2565b610b83565b604051908152602001610215565b3480156102e957600080fd5b506102726102f8366004612eb2565b610b96565b61027261030b366004612fd9565b610be2565b34801561031c57600080fd5b50600854610330906001600160a01b031681565b6040516001600160a01b039091168152602001610215565b34801561035457600080fd5b506102cf60075481565b34801561036a57600080fd5b50610272610379366004612f06565b610e36565b34801561038a57600080fd5b5061039e610399366004612f06565b610e71565b60405161021592919061338d565b3480156103b857600080fd5b506102726103c7366004612ff1565b6110af565b3480156103d857600080fd5b506102726103e7366004612eb2565b611207565b3480156103f857600080fd5b50610272610407366004612f5e565b611240565b34801561041857600080fd5b50610272611623565b61027261042f366004612fd9565b611659565b34801561044057600080fd5b50610449611add565b60405161021591906131a4565b34801561046257600080fd5b506007546102cf565b34801561047757600080fd5b506000546001600160a01b0316610330565b34801561049557600080fd5b506102cf61271081565b3480156104ab57600080fd5b50610208611ba9565b6102726104c2366004612fd9565b611d86565b3480156104d357600080fd5b506102cf6104e2366004612ece565b61206f565b3480156104f357600080fd5b5061039e610502366004612fd9565b612082565b34801561051357600080fd5b50610272610522366004612eb2565b6121ef565b34801561053357600080fd5b50610272610542366004612fd9565b612224565b34801561055357600080fd5b5061055c6123a8565b6040516102159190613234565b34801561057557600080fd5b50610272610584366004613038565b6124a4565b34801561059557600080fd5b506102726105a4366004612eb2565b612607565b3480156105b557600080fd5b506102726105c4366004612eb2565b61263c565b3480156105d557600080fd5b5061060c6105e4366004612eb2565b6001600160a01b03166000908152600c6020908152604080832054600d909252909120549091565b60408051928352602083019190915201610215565b6060600061062e60095490565b90506000805b828110156106ad576000818152600a60205260409020600801546001600160a01b0386811661010090920416148061068857506000818152600a60205260409020600901546001600160a01b038681169116145b1561069b57816106978161342f565b9250505b806106a58161342f565b915050610634565b5060008267ffffffffffffffff8111156106d757634e487b7160e01b600052604160045260246000fd5b60405190808252806020026020018201604052801561071057816020015b6106fd612e20565b8152602001906001900390816106f55790505b5090506000805b838110156108c4576000818152600a60205260409020600801546001600160a01b0388811661010090920416148061076b57506000818152600a60205260409020600901546001600160a01b038881169116145b156108b2576000818152600a60209081526040918290208251610180810184528154815260018201546001600160a01b0390811693820193909352600280830154948201949094526003820154909216606083015260048101546080830152600581015460a0830152600681015460c0830152600781015460e083015260088101549192909161010084019160ff9091169081111561081a57634e487b7160e01b600052602160045260246000fd5b600281111561083957634e487b7160e01b600052602160045260246000fd5b8152600882015461010090046001600160a01b0390811660208301526009909201549182166040820152600160a01b90910460ff161515606090910152835184908490811061089857634e487b7160e01b600052603260045260246000fd5b602002602001018190525081806108ae9061342f565b9250505b806108bc8161342f565b915050610717565b509095945050505050565b6008546001600160a01b031633146109025760405162461bcd60e51b81526004016108f990613328565b60405180910390fd5b612710811061095d5760405162461bcd60e51b815260206004820152602160248201527f466565206e756d657261746f72206d757374206c657373207468616e203130306044820152602560f81b60648201526084016108f9565b600755565b6000818152600a602052604090206009015481906001600160a01b031633146109c45760405162461bcd60e51b815260206004820152601460248201527329b2b73232b91034b9903737ba103632b73232b960611b60448201526064016108f9565b600260015414156109e75760405162461bcd60e51b81526004016108f990613356565b600260019081556000838152600a602052604090206008015460ff166002811115610a2257634e487b7160e01b600052602160045260246000fd5b14610a6f5760405162461bcd60e51b815260206004820152601c60248201527f4c6f616e20636f76656e616e74206973206e6f74206c6f636b65642e0000000060448201526064016108f9565b6000828152600b6020526040902060020154610adc5760405162461bcd60e51b815260206004820152602660248201527f5468657265206973206e6f2070726f706f73616c20666f72207468697320636f6044820152651d995b985b9d60d21b60648201526084016108f9565b6000828152600a60209081526040808320600b90925290912060018101546005830154610b0a9082906126d7565b600584019081556000868152600b60209081526040808320600290810154600689019081559087019390935592549154835189815291820192909252918201527f4e26d2058422e671478446da4522b7c1527f240c0b68519a064219769b062dce906060015b60405180910390a1505060018055505050565b6000610b906004836126e3565b92915050565b6000546001600160a01b03163314610bc05760405162461bcd60e51b81526004016108f9906132f3565b600880546001600160a01b0319166001600160a01b0392909216919091179055565b6000818152600a602052604090206009015481906001600160a01b03163314610c445760405162461bcd60e51b815260206004820152601460248201527329b2b73232b91034b9903737ba103632b73232b960611b60448201526064016108f9565b60026001541415610c675760405162461bcd60e51b81526004016108f990613356565b600260019081556000838152600a602052604090206008015460ff166002811115610ca257634e487b7160e01b600052602160045260246000fd5b148015610cbf57506000828152600a602052604090206006015442115b610d0b5760405162461bcd60e51b815260206004820152601f60248201527f4e6f742074696d6520666f72206c697175696461746520636f76656e616e740060448201526064016108f9565b6000828152600a6020526040908190206001810154600282015492516323b872dd60e01b815291926001600160a01b03909116916323b872dd91610d559130913391600401613180565b600060405180830381600087803b158015610d6f57600080fd5b505af1158015610d83573d6000803e3d6000fd5b5050505060088101805460ff1916600217905560098101805460ff60a01b19169055336000908152600d6020526040902054610dc09060016126d7565b336000908152600d6020908152604091829020929092556001830154600284015482518781526001600160a01b0390921693820193909352908101919091527f7e4e6bd95b1f1a8350d728e47e6f4708166dd069a9fe805fbff548ec13f8fac3906060015b60405180910390a150506001805550565b6008546001600160a01b03163314610e605760405162461bcd60e51b81526004016108f990613328565b610e6c600483836126f8565b505050565b610e79612e20565b610e9d60405180606001604052806000815260200160008152602001600081525090565b610ea5612e20565b610ec960405180606001604052806000815260200160008152602001600081525090565b6000610ed460095490565b905060005b818110156110a0576000818152600a60205260409020600101546001600160a01b038981169116148015610f1d57506000818152600a602052604090206002015487145b8015610f4157506000818152600a6020526040902060090154600160a01b900460ff165b1561108e576000818152600a60209081526040918290208251610180810184528154815260018201546001600160a01b0390811693820193909352600280830154948201949094526003820154909216606083015260048101546080830152600581015460a0830152600681015460c0830152600781015460e083015260088101549192909161010084019160ff90911690811115610ff057634e487b7160e01b600052602160045260246000fd5b600281111561100f57634e487b7160e01b600052602160045260246000fd5b8152600882015461010090046001600160a01b03908116602080840191909152600990930154908116604080840191909152600160a01b90910460ff1615156060928301526000858152600b845281902081519283018252805483526001810154938301939093526002909201549181019190915290945092506110a0565b806110988161342f565b915050610ed9565b509193509150505b9250929050565b6000858152600a6020526040902060080154859061010090046001600160a01b031633146110ef5760405162461bcd60e51b81526004016108f99061328c565b600260015414156111125760405162461bcd60e51b81526004016108f990613356565b6002600155600080878152600a602052604090206008015460ff16600281111561114c57634e487b7160e01b600052602160045260246000fd5b146111695760405162461bcd60e51b81526004016108f9906132bc565b6000868152600a60209081526040918290206003810180546001600160a01b0319166001600160a01b038a1690811790915560048201889055600582018790556007820186905583518a81529283015291810186905260608101859052608081018490527ff9446b7a84a28ecf6763156215f0e6d3497ffb8c67b25c2c90c6c7afdbefe3e39060a00160405180910390a15050600180555050505050565b6008546001600160a01b031633146112315760405162461bcd60e51b81526004016108f990613328565b61123c600282612716565b5050565b600260015414156112635760405162461bcd60e51b81526004016108f990613356565b600260015582158015906112775750600082115b6112d55760405162461bcd60e51b815260206004820152602960248201527f4c6f616e20616d6f756e7420616e642070726f666974206d757374206265206160448201526874206c65617374203160b81b60648201526084016108f9565b6112e6866380ac58cd60e01b61272b565b6113325760405162461bcd60e51b815260206004820152601b60248201527f436f6e7472616374206e6565647320746f20626520455243373231000000000060448201526064016108f9565b6040516323b872dd60e01b81526001600160a01b038716906323b872dd9061136290339030908a90600401613180565b600060405180830381600087803b15801561137c57600080fd5b505af1158015611390573d6000803e3d6000fd5b50505050600061139f60095490565b9050604051806101800160405280828152602001886001600160a01b03168152602001878152602001866001600160a01b03168152602001858152602001848152602001600081526020018381526020016000600281111561141157634e487b7160e01b600052602160045260246000fd5b8152336020808301919091526000604080840182905260016060948501819052868352600a845291819020855181559285015183830180546001600160a01b03199081166001600160a01b0393841617909155918601516002808601919091559486015160038501805490931691161790556080840151600483015560a0840151600583015560c0840151600683015560e0840151600783015561010084015160088301805493949193909260ff199091169184908111156114e357634e487b7160e01b600052602160045260246000fd5b02179055506101208201516008820180546001600160a01b0392831661010002610100600160a81b031990911617905561014083015160099283018054610160909501511515600160a01b026001600160a81b03199095169190921617929092179091556040805160608101825283815260006020808301828152838501838152878452600b90925293909120915182559151600182015590516002909101557f62a6f84d842436bc5e66e743bb90f02cc4c336f059709a5e6df843d402ca4c85906115ad905490565b604080519182526001600160a01b03808b166020840152908201899052871660608201526080810186905260a0810185905260c08101849052600060e08201819052336101008301526101208201526101400160405180910390a1611616600980546001019055565b5050600180555050505050565b6000546001600160a01b0316331461164d5760405162461bcd60e51b81526004016108f9906132f3565b6116576000612747565b565b6000818152600a6020526040902060080154819061010090046001600160a01b031633146116995760405162461bcd60e51b81526004016108f99061328c565b600260015414156116bc5760405162461bcd60e51b81526004016108f990613356565b600260019081556000838152600a602052604090206008015460ff1660028111156116f757634e487b7160e01b600052602160045260246000fd5b14801561171457506000828152600a602052604090206006015442105b6117745760405162461bcd60e51b815260206004820152602b60248201527f54696d652069732075702e20436f6e74616374206c656e64657220666f72206560448201526a3c3a32b732103a34b6b29760a91b60648201526084016108f9565b6000828152600a60205260409020600481015460058201546117979082906126d7565b60038301549091506000906117b69033906001600160a01b0316612797565b90506117db6127106117d583866005015461280190919063ffffffff16565b9061280d565b60038401549091506001600160a01b031661184d5781341461184d5760405162461bcd60e51b815260206004820152602560248201527f596f75206d7573742061646420657861637420616d6f756e7420616e6420707260448201526437b334ba1760d91b60648201526084016108f9565b600183015461186c906001600160a01b031663152a902d60e11b61272b565b156119935760018301546002840154600585015460405163152a902d60e11b81526004810192909252602482015260009182916001600160a01b0390911690632a55205a90604401604080518083038186803b1580156118cb57600080fd5b505afa1580156118df573d6000803e3d6000fd5b505050506040513d601f19601f820116820180604052508101906119039190612f31565b9092509050801561196557600385015461192a90339084906001600160a01b031684612819565b600985015460038601546119609133916001600160a01b03918216911661195b61195486896126d7565b899061297f565b612819565b61198c565b6009850154600386015461198c9133916001600160a01b03918216911661195b888861297f565b50506119ba565b600983015460038401546119ba9133916001600160a01b03918216911661195b868661297f565b60085460038401546119db9133916001600160a01b03918216911684612819565b600183015460028401546040516323b872dd60e01b81526001600160a01b03909216916323b872dd91611a149130913391600401613180565b600060405180830381600087803b158015611a2e57600080fd5b505af1158015611a42573d6000803e3d6000fd5b5050505060088301805460ff1916600290811790915560098401805460ff60a01b19169055600184015490840154600385015460048601546005870154604080518b81526001600160a01b03968716602082015290810194909452939091166060830152608082015260a08101919091527fbfd8ce7cf08422e89b830095bc43e7a55d15c9766d431c5d7500eb024b33a9819060c001610b70565b60606000611aeb600261298b565b905060008167ffffffffffffffff811115611b1657634e487b7160e01b600052604160045260246000fd5b604051908082528060200260200182016040528015611b3f578160200160208202803683370190505b50905060005b82811015611ba257611b58600282612995565b828281518110611b7857634e487b7160e01b600052603260045260246000fd5b6001600160a01b039092166020928302919091019091015280611b9a8161342f565b915050611b45565b5092915050565b60606000611bb660095490565b905060008167ffffffffffffffff811115611be157634e487b7160e01b600052604160045260246000fd5b604051908082528060200260200182016040528015611c1a57816020015b611c07612e20565b815260200190600190039081611bff5790505b5090506000805b83811015611d7d576000818152600a60209081526040918290208251610180810184528154815260018201546001600160a01b0390811693820193909352600280830154948201949094526003820154909216606083015260048101546080830152600581015460a0830152600681015460c0830152600781015460e083015260088101549192909161010084019160ff90911690811115611cd357634e487b7160e01b600052602160045260246000fd5b6002811115611cf257634e487b7160e01b600052602160045260246000fd5b8152600882015461010090046001600160a01b0390811660208301526009909201549182166040820152600160a01b90910460ff1615156060909101528351849084908110611d5157634e487b7160e01b600052603260045260246000fd5b60200260200101819052508180611d679061342f565b9250508080611d759061342f565b915050611c21565b50909392505050565b60026001541415611da95760405162461bcd60e51b81526004016108f990613356565b60026001556000818152600a602052604090206008015461010090046001600160a01b0316331415611e1d5760405162461bcd60e51b815260206004820152601b60248201527f53656e646572206d757374206265206e6f7420626f72726f776572000000000060448201526064016108f9565b6000818152600a602052604090206008015461010090046001600160a01b0316611e895760405162461bcd60e51b815260206004820152601d60248201527f4c6f616e20636f76656e616e74206973206e6f7420657869737465642e00000060448201526064016108f9565b6000818152600a60205260409020600901546001600160a01b0316158015611ee257506000818152600a602052604081206008015460ff166002811115611ee057634e487b7160e01b600052602160045260246000fd5b145b611efe5760405162461bcd60e51b81526004016108f9906132bc565b6000818152600a6020526040902060038101546001600160a01b0316611f695780600401543414611f695760405162461bcd60e51b8152602060048201526015602482015274131bd85b88185b5bdd5b9d081b9bdd08195e1858dd605a1b60448201526064016108f9565b600881015460038201546004830154611f979233926001600160a01b03610100909204821692911690612819565b6009810180546001600160a01b031916331790556007810154611fba42826133c1565b600683015560088201805460ff19166001908117909155336000908152600c6020526040902054611fea916126d7565b336000818152600c602090815260409182902093909355600385015460048601546005870154600688015484518a8152968701959095526001600160a01b03909216928501929092526060840191909152608083015260a08201527f873c2e990e36955ded4605af1422f36b25a935eca109df3743cfb4ed2627b8fe9060c001610e25565b600061207b8383612797565b9392505050565b61208a612e20565b6120ae60405180606001604052806000815260200160008152602001600081525090565b6000838152600a602090815260408083208151610180810183528154815260018201546001600160a01b0390811694820194909452600280830154938201939093526003820154909316606084015260048101546080840152600581015460a0840152600681015460c0840152600781015460e08401526008810154909161010084019160ff169081111561215357634e487b7160e01b600052602160045260246000fd5b600281111561217257634e487b7160e01b600052602160045260246000fd5b8152600882015461010090046001600160a01b03908116602080840191909152600990930154908116604080840191909152600160a01b90910460ff1615156060928301526000978852600b8352968790208751918201885280548252600181015492820192909252600290910154958101959095529492505050565b6008546001600160a01b031633146122195760405162461bcd60e51b81526004016108f990613328565b61123c6004826129a1565b6000818152600a6020526040902060080154819061010090046001600160a01b031633146122645760405162461bcd60e51b81526004016108f99061328c565b600260015414156122875760405162461bcd60e51b81526004016108f990613356565b6002600155600080838152600a602052604090206008015460ff1660028111156122c157634e487b7160e01b600052602160045260246000fd5b146122de5760405162461bcd60e51b81526004016108f9906132bc565b6000828152600a6020526040908190206001810154600282015492516323b872dd60e01b815291926001600160a01b03909116916323b872dd916123289130913391600401613180565b600060405180830381600087803b15801561234257600080fd5b505af1158015612356573d6000803e3d6000fd5b5050505060088101805460ff1916600217905560098101805460ff60a01b191690556040518381527fcb2ea16eda1f7cedbfb69b422f48b5b5e71d11e0b1407a517dff82db913fdbce90602001610e25565b606060006123b660046129b6565b905060008167ffffffffffffffff8111156123e157634e487b7160e01b600052604160045260246000fd5b60405190808252806020026020018201604052801561242657816020015b60408051808201909152600080825260208201528152602001906001900390816123ff5790505b50905060005b82811015611ba2576000806124426004846129c1565b915091506040518060400160405280836001600160a01b031681526020018281525084848151811061248457634e487b7160e01b600052603260045260246000fd5b60200260200101819052505050808061249c9061342f565b91505061242c565b6000838152600a6020526040902060080154839061010090046001600160a01b031633146124e45760405162461bcd60e51b81526004016108f99061328c565b600260015414156125075760405162461bcd60e51b81526004016108f990613356565b600260019081556000858152600b60205260409020906000868152600a602052604090206008015460ff16600281111561255157634e487b7160e01b600052602160045260246000fd5b1461259e5760405162461bcd60e51b815260206004820152601c60248201527f4c6f616e20636f76656e616e74206973206e6f74206c6f636b65642e0000000060448201526064016108f9565b600181018490556000858152600a60205260409020600601546125c190846126d7565b600282018190556040805187815260208101879052908101919091527f41be7a7eec331566aaa888f4e2b06e04bff79d31fa0caa0dadff2fb85bd2f20a90606001610b70565b6008546001600160a01b031633146126315760405162461bcd60e51b81526004016108f990613328565b61123c6002826129dd565b6000546001600160a01b031633146126665760405162461bcd60e51b81526004016108f9906132f3565b6001600160a01b0381166126cb5760405162461bcd60e51b815260206004820152602660248201527f4f776e61626c653a206e6577206f776e657220697320746865207a65726f206160448201526564647265737360d01b60648201526084016108f9565b6126d481612747565b50565b600061207b82846133c1565b600061207b836001600160a01b0384166129f2565b600061270e846001600160a01b03851684612a62565b949350505050565b600061207b836001600160a01b038416612a7f565b600061273683612b9c565b801561207b575061207b8383612bcf565b600080546001600160a01b038381166001600160a01b0319831681178455604051919092169283917f8be0079c531659141344cd1fd0a4f28419497f9722a3daafe3b4186f6b6457e09190a35050565b60408051808201909152600080825260208201819052906127b9600485612cb8565b602083015215801582526127d257602001519050610b90565b6127dd600484612cb8565b602083015215801582526127f657602001519050610b90565b505060075492915050565b600061207b82846133f9565b600061207b82846133d9565b6001600160a01b038216612863576040516001600160a01b0384169082156108fc029083906000818181858888f1935050505015801561285d573d6000803e3d6000fd5b50612979565b6001600160a01b03841630146128f5576040516323b872dd60e01b81526001600160a01b038316906323b872dd906128a390879087908690600401613180565b602060405180830381600087803b1580156128bd57600080fd5b505af11580156128d1573d6000803e3d6000fd5b505050506040513d601f19601f8201168201806040525081019061285d9190612fb9565b60405163a9059cbb60e01b81526001600160a01b0384811660048301526024820183905283169063a9059cbb90604401602060405180830381600087803b15801561293f57600080fd5b505af1158015612953573d6000803e3d6000fd5b505050506040513d601f19601f820116820180604052508101906129779190612fb9565b505b50505050565b600061207b8284613418565b6000610b90825490565b600061207b8383612cd0565b600061207b836001600160a01b038416612d08565b6000610b9082612d25565b60008080806129d08686612d30565b9097909650945050505050565b600061207b836001600160a01b038416612d5b565b600081815260028301602052604081205480151580612a165750612a168484612daa565b61207b5760405162461bcd60e51b815260206004820152601e60248201527f456e756d657261626c654d61703a206e6f6e6578697374656e74206b6579000060448201526064016108f9565b6000828152600284016020526040812082905561270e8484612db6565b60008181526001830160205260408120548015612b92576000612aa3600183613418565b8554909150600090612ab790600190613418565b9050818114612b38576000866000018281548110612ae557634e487b7160e01b600052603260045260246000fd5b9060005260206000200154905080876000018481548110612b1657634e487b7160e01b600052603260045260246000fd5b6000918252602080832090910192909255918252600188019052604090208390555b8554869080612b5757634e487b7160e01b600052603160045260246000fd5b600190038181906000526020600020016000905590558560010160008681526020019081526020016000206000905560019350505050610b90565b6000915050610b90565b6000612baf826301ffc9a760e01b612bcf565b8015610b905750612bc8826001600160e01b0319612bcf565b1592915050565b604080516001600160e01b0319831660248083019190915282518083039091018152604490910182526020810180516001600160e01b03166301ffc9a760e01b179052905160009190829081906001600160a01b0387169061753090612c36908690613147565b6000604051808303818686fa925050503d8060008114612c72576040519150601f19603f3d011682016040523d82523d6000602084013e612c77565b606091505b5091509150602081511015612c925760009350505050610b90565b818015612cae575080806020019051810190612cae9190612fb9565b9695505050505050565b60008080806129d0866001600160a01b038716612dc2565b6000826000018281548110612cf557634e487b7160e01b600052603260045260246000fd5b9060005260206000200154905092915050565b6000818152600283016020526040812081905561207b8383612dfc565b6000610b908261298b565b60008080612d3e8585612995565b600081815260029690960160205260409095205494959350505050565b6000818152600183016020526040812054612da257508154600181810184556000848152602080822090930184905584548482528286019093526040902091909155610b90565b506000610b90565b600061207b8383612e08565b600061207b8383612d5b565b6000818152600283016020526040812054819080612df157612de48585612daa565b9250600091506110a89050565b6001925090506110a8565b600061207b8383612a7f565b6000818152600183016020526040812054151561207b565b6040518061018001604052806000815260200160006001600160a01b031681526020016000815260200160006001600160a01b031681526020016000815260200160008152602001600081526020016000815260200160006002811115612e9757634e487b7160e01b600052602160045260246000fd5b81526000602082018190526040820181905260609091015290565b600060208284031215612ec3578081fd5b813561207b81613460565b60008060408385031215612ee0578081fd5b8235612eeb81613460565b91506020830135612efb81613460565b809150509250929050565b60008060408385031215612f18578182fd5b8235612f2381613460565b946020939093013593505050565b60008060408385031215612f43578182fd5b8251612f4e81613460565b6020939093015192949293505050565b60008060008060008060c08789031215612f76578182fd5b8635612f8181613460565b9550602087013594506040870135612f9881613460565b959894975094956060810135955060808101359460a0909101359350915050565b600060208284031215612fca578081fd5b8151801515811461207b578182fd5b600060208284031215612fea578081fd5b5035919050565b600080600080600060a08688031215613008578081fd5b85359450602086013561301a81613460565b94979496505050506040830135926060810135926080909101359150565b60008060006060848603121561304c578283fd5b505081359360208301359350604090920135919050565b6003811061308157634e487b7160e01b600052602160045260246000fd5b9052565b8051825260208101516130a360208401826001600160a01b03169052565b506040810151604083015260608101516130c860608401826001600160a01b03169052565b506080810151608083015260a081015160a083015260c081015160c083015260e081015160e08301526101008082015161310482850182613063565b5050610120818101516001600160a01b038116848301525050610140818101516001600160a01b0381168483015250506101608181015180151584830152612979565b60008251815b81811015613167576020818601810151858301520161314d565b818111156131755782828501525b509190910192915050565b6001600160a01b039384168152919092166020820152604081019190915260600190565b6020808252825182820181905260009190848201906040850190845b818110156131e55783516001600160a01b0316835292840192918401916001016131c0565b50909695505050505050565b6020808252825182820181905260009190848201906040850190845b818110156131e557613220838551613085565b92840192610180929092019160010161320d565b602080825282518282018190526000919060409081850190868401855b8281101561327f57815180516001600160a01b03168552860151868501529284019290850190600101613251565b5091979650505050505050565b60208082526016908201527529b2b73232b91034b9903737ba103137b93937bbb2b960511b604082015260600190565b6020808252601d908201527f4c6f616e20636f76656e616e74206973206e6f74206c697374696e672e000000604082015260600190565b6020808252818101527f4f776e61626c653a2063616c6c6572206973206e6f7420746865206f776e6572604082015260600190565b602080825260149082015273135d5cdd081899481a1d588818dbdb9d1c9858dd60621b604082015260600190565b6020808252601f908201527f5265656e7472616e637947756172643a207265656e7472616e742063616c6c00604082015260600190565b6101e0810161339c8285613085565b825161018083015260208301516101a083015260408301516101c08301529392505050565b600082198211156133d4576133d461344a565b500190565b6000826133f457634e487b7160e01b81526012600452602481fd5b500490565b60008160001904831182151516156134135761341361344a565b500290565b60008282101561342a5761342a61344a565b500390565b60006000198214156134435761344361344a565b5060010190565b634e487b7160e01b600052601160045260246000fd5b6001600160a01b03811681146126d457600080fdfea26469706673582212203ba8aad1d7fd8c35d6c794625ad02b79a722728c173df72fd29e76e80d543f6a64736f6c63430008040033",
  "immutableReferences": {},
  "source": "// SPDX-License-Identifier: MIT\r\npragma solidity ^0.8.4;\r\n\r\nimport \"@openzeppelin/contracts/utils/Counters.sol\";\r\nimport \"@openzeppelin/contracts/token/ERC721/ERC721.sol\";\r\nimport \"@openzeppelin/contracts/token/ERC721/IERC721.sol\";\r\nimport \"@openzeppelin/contracts/interfaces/IERC2981.sol\";\r\nimport \"@openzeppelin/contracts/token/ERC20/IERC20.sol\";\r\nimport \"@openzeppelin/contracts/utils/introspection/ERC165Checker.sol\";\r\nimport \"@openzeppelin/contracts/utils/math/SafeMath.sol\";\r\nimport \"./HubChild.sol\";\r\n\r\ncontract NFTLoan is HubChild {\r\n    using Counters for Counters.Counter;\r\n    using SafeMath for uint256;\r\n    Counters.Counter private _itemCount;\r\n\r\n    mapping(uint256 => Covenant) private _idToCovenant;\r\n    mapping(uint256 => Proposal) private _idToProposal;\r\n    mapping(address => uint256) private _loanAccepted;\r\n    mapping(address => uint256) private _loanLiquidated;\r\n    \r\n    bytes4 public constant ERC721INTERFACE = type(IERC721).interfaceId;\r\n    bytes4 public constant ERC2981INTERFACE = type(IERC2981).interfaceId;\r\n\r\n    enum CovenantStatus {\r\n        LISTING,\r\n        LOCKED,\r\n        ENDED\r\n    }\r\n\r\n    struct Covenant {\r\n        uint256 itemId;\r\n        address nftContract;\r\n        uint256 tokenId;\r\n        address ftContract;\r\n        uint256 amount;\r\n        uint256 profit;\r\n        uint256 timeExpired;\r\n        uint256 duration;\r\n        CovenantStatus status;\r\n        address borrower;\r\n        address lender;\r\n        bool isLatest;\r\n    }\r\n\r\n    struct Proposal {\r\n        uint256 itemId;\r\n        uint256 profit;\r\n        uint256 timeExpired;\r\n    }\r\n\r\n    event CovenantListed(\r\n        uint256 itemId,\r\n        address nftContract,\r\n        uint256 tokenId,\r\n        address ftContract,\r\n        uint256 amount,\r\n        uint256 profit,\r\n        uint256 duration,\r\n        uint8 status,\r\n        address borrower,\r\n        address lender\r\n    );\r\n\r\n    event CovenantUnlisted(uint256 itemId);\r\n\r\n    event CovenantEdited(\r\n        uint256 itemId,\r\n        address ftContract,\r\n        uint256 amount,\r\n        uint256 profit,\r\n        uint256 duration\r\n    );\r\n\r\n    event CovenantPayOff(\r\n        uint256 itemId,\r\n        address nftContract,\r\n        uint256 tokenId,\r\n        address ftContract,\r\n        uint256 amount,\r\n        uint256 profit\r\n    );\r\n\r\n    event CovenantLiquidate(\r\n        uint256 itemId,\r\n        address nftContract,\r\n        uint256 tokenId\r\n    );\r\n\r\n    event CovenantAccept(\r\n        uint256 itemId,\r\n        address lender,\r\n        address ftContract,\r\n        uint256 amount,\r\n        uint256 profit,\r\n        uint256 timeExpired\r\n    );\r\n\r\n    event ProposalEdited(uint256 itemId, uint256 profit, uint256 timeExpired);\r\n\r\n    event ProposalAccepted(uint256 itemId, uint256 profit, uint256 timeExpired);\r\n\r\n    constructor(uint256 fee, address hub) {\r\n        RATE_FEE = fee;\r\n        setHub(hub);\r\n    }\r\n\r\n    modifier onlyBorrower(uint256 itemId) {\r\n        require(\r\n            _idToCovenant[itemId].borrower == msg.sender,\r\n            \"Sender is not borrower\"\r\n        );\r\n        _;\r\n    }\r\n\r\n    modifier onlyLender(uint256 itemId) {\r\n        require(\r\n            _idToCovenant[itemId].lender == msg.sender,\r\n            \"Sender is not lender\"\r\n        );\r\n        _;\r\n    }\r\n\r\n    // List the NFT on the marketplace\r\n    function list(\r\n        address nftContract,\r\n        uint256 tokenId,\r\n        address ftContract,\r\n        uint256 amount,\r\n        uint256 profit,\r\n        uint256 duration\r\n    ) public nonReentrant {\r\n        require(\r\n            amount > 0 && profit > 0,\r\n            \"Loan amount and profit must be at least 1\"\r\n        );\r\n        require(\r\n            ERC165Checker.supportsInterface(nftContract, ERC721INTERFACE),\r\n            \"Contract needs to be ERC721\"\r\n        );\r\n\r\n        IERC721(nftContract).transferFrom(msg.sender, address(this), tokenId);\r\n\r\n        uint256 itemId = _itemCount.current();\r\n        _idToCovenant[itemId] = Covenant(\r\n            itemId,\r\n            nftContract,\r\n            tokenId,\r\n            ftContract,\r\n            amount,\r\n            profit,\r\n            0,\r\n            duration,\r\n            CovenantStatus.LISTING,\r\n            msg.sender,\r\n            address(0),\r\n            true\r\n        );\r\n\r\n        _idToProposal[itemId] = Proposal(itemId, 0, 0);\r\n\r\n        emit CovenantListed(\r\n            _itemCount.current(),\r\n            nftContract,\r\n            tokenId,\r\n            ftContract,\r\n            amount,\r\n            profit,\r\n            duration,\r\n            uint8(CovenantStatus.LISTING),\r\n            msg.sender,\r\n            address(0)\r\n        );\r\n        _itemCount.increment();\r\n    }\r\n\r\n    function unlist(uint256 itemId)\r\n        external\r\n        onlyBorrower(itemId)\r\n        nonReentrant\r\n    {\r\n        require(\r\n            _idToCovenant[itemId].status == CovenantStatus.LISTING,\r\n            \"Loan covenant is not listing.\"\r\n        );\r\n        Covenant storage loanCovenant = _idToCovenant[itemId];\r\n        IERC721(loanCovenant.nftContract).transferFrom(\r\n            address(this),\r\n            msg.sender,\r\n            loanCovenant.tokenId\r\n        );\r\n        loanCovenant.status = CovenantStatus.ENDED;\r\n        loanCovenant.isLatest = false;\r\n        emit CovenantUnlisted(itemId);\r\n    }\r\n\r\n    function edit(\r\n        uint256 itemId,\r\n        address ftContract,\r\n        uint256 amount,\r\n        uint256 profit,\r\n        uint256 duration\r\n    ) external onlyBorrower(itemId) nonReentrant {\r\n        require(\r\n            _idToCovenant[itemId].status == CovenantStatus.LISTING,\r\n            \"Loan covenant is not listing.\"\r\n        );\r\n        Covenant storage loanCovenant = _idToCovenant[itemId];\r\n\r\n        loanCovenant.ftContract = ftContract;\r\n        loanCovenant.amount = amount;\r\n        loanCovenant.profit = profit;\r\n        loanCovenant.duration = duration;\r\n        emit CovenantEdited(itemId, ftContract, amount, profit, duration);\r\n    }\r\n\r\n    function extend(\r\n        uint256 itemId,\r\n        uint256 profit,\r\n        uint256 timeAdd\r\n    ) external onlyBorrower(itemId) nonReentrant {\r\n        Proposal storage proposal = _idToProposal[itemId];\r\n        require(\r\n            _idToCovenant[itemId].status == CovenantStatus.LOCKED,\r\n            \"Loan covenant is not locked.\"\r\n        );\r\n\r\n        proposal.profit = profit;\r\n        proposal.timeExpired = _idToCovenant[itemId].timeExpired.add(\r\n            timeAdd\r\n        );\r\n        emit ProposalEdited(itemId, profit, proposal.timeExpired);\r\n    }\r\n\r\n    function accept(uint256 itemId)\r\n        external\r\n        onlyLender(itemId)\r\n        nonReentrant\r\n    {\r\n        require(\r\n            _idToCovenant[itemId].status == CovenantStatus.LOCKED,\r\n            \"Loan covenant is not locked.\"\r\n        );\r\n        require(\r\n            _idToProposal[itemId].timeExpired != 0,\r\n            \"There is no proposal for this covenant\"\r\n        );\r\n\r\n        Covenant storage loanCovenant = _idToCovenant[itemId];\r\n        Proposal storage proposal = _idToProposal[itemId];\r\n        uint256 newProfit = proposal.profit;\r\n        loanCovenant.profit = newProfit.add(loanCovenant.profit);\r\n        loanCovenant.timeExpired = _idToProposal[itemId].timeExpired;\r\n        proposal.timeExpired = 0;\r\n        emit ProposalAccepted(\r\n            itemId,\r\n            loanCovenant.profit,\r\n            loanCovenant.timeExpired\r\n        );\r\n    }\r\n\r\n    function lend(uint256 itemId) public payable nonReentrant {\r\n        require(\r\n            _idToCovenant[itemId].borrower != msg.sender,\r\n            \"Sender must be not borrower\"\r\n        );\r\n        require(\r\n            _idToCovenant[itemId].borrower != address(0),\r\n            \"Loan covenant is not existed.\"\r\n        );\r\n        require(\r\n            _idToCovenant[itemId].lender == address(0) &&\r\n                _idToCovenant[itemId].status == CovenantStatus.LISTING,\r\n            \"Loan covenant is not listing.\"\r\n        );\r\n        Covenant storage loanCovenant = _idToCovenant[itemId];\r\n\r\n        if (loanCovenant.ftContract == address(0)) {\r\n            require(msg.value == loanCovenant.amount, \"Loan amount not exact\");\r\n        }\r\n        sendAssets(\r\n            msg.sender,\r\n            loanCovenant.borrower,\r\n            loanCovenant.ftContract,\r\n            loanCovenant.amount\r\n        );\r\n\r\n        loanCovenant.lender = msg.sender;\r\n        uint256 timeAdd = loanCovenant.duration;\r\n        loanCovenant.timeExpired = timeAdd+block.timestamp;\r\n        loanCovenant.status = CovenantStatus.LOCKED;\r\n        _loanAccepted[msg.sender] = _loanAccepted[msg.sender].add(1);\r\n        emit CovenantAccept(\r\n            itemId,\r\n            msg.sender,\r\n            loanCovenant.ftContract,\r\n            loanCovenant.amount,\r\n            loanCovenant.profit,\r\n            loanCovenant.timeExpired\r\n        );\r\n    }\r\n\r\n    function payoff(uint256 itemId)\r\n        external\r\n        payable\r\n        onlyBorrower(itemId)\r\n        nonReentrant\r\n    {\r\n        require(\r\n            _idToCovenant[itemId].status == CovenantStatus.LOCKED &&\r\n                _idToCovenant[itemId].timeExpired > block.timestamp,\r\n            \"Time is up. Contact lender for extend time.\"\r\n        );\r\n        Covenant storage loanCovenant = _idToCovenant[itemId];\r\n        uint256 totalPaid = loanCovenant.amount;\r\n        totalPaid = totalPaid.add(loanCovenant.profit);\r\n        uint256 fee = _feeOf(msg.sender, loanCovenant.ftContract);\r\n        fee = loanCovenant.profit.mul(fee).div(DENOMINATOR);\r\n        if (loanCovenant.ftContract == address(0)) {\r\n            require(\r\n                msg.value == totalPaid,\r\n                \"You must add exact amount and profit.\"\r\n            );\r\n        }\r\n        if (\r\n            ERC165Checker.supportsInterface(\r\n                loanCovenant.nftContract,\r\n                ERC2981INTERFACE\r\n            )\r\n        ) {\r\n            (address creator, uint256 royaltyAmount) = IERC2981(\r\n                loanCovenant.nftContract\r\n            ).royaltyInfo(loanCovenant.tokenId, loanCovenant.profit);\r\n            if (royaltyAmount > 0) {\r\n                sendAssets(\r\n                    msg.sender,\r\n                    creator,\r\n                    loanCovenant.ftContract,\r\n                    royaltyAmount\r\n                );\r\n                sendAssets(\r\n                    msg.sender,\r\n                    loanCovenant.lender,\r\n                    loanCovenant.ftContract,\r\n                    totalPaid.sub(royaltyAmount.add(fee))\r\n                );\r\n            } else {\r\n                sendAssets(\r\n                    msg.sender,\r\n                    loanCovenant.lender,\r\n                    loanCovenant.ftContract,\r\n                    totalPaid.sub(fee)\r\n                );\r\n            }\r\n        } else {\r\n            sendAssets(\r\n                msg.sender,\r\n                loanCovenant.lender,\r\n                loanCovenant.ftContract,\r\n                totalPaid.sub(fee)\r\n            );\r\n        }\r\n\r\n        sendAssets(msg.sender, hubAddr, loanCovenant.ftContract, fee);\r\n\r\n        IERC721(loanCovenant.nftContract).transferFrom(\r\n            address(this),\r\n            msg.sender,\r\n            loanCovenant.tokenId\r\n        );\r\n        loanCovenant.status = CovenantStatus.ENDED;\r\n        loanCovenant.isLatest = false;\r\n        emit CovenantPayOff(\r\n            itemId,\r\n            loanCovenant.nftContract,\r\n            loanCovenant.tokenId,\r\n            loanCovenant.ftContract,\r\n            loanCovenant.amount,\r\n            loanCovenant.profit\r\n        );\r\n    }\r\n\r\n    function liquidate(uint256 itemId)\r\n        external\r\n        payable\r\n        onlyLender(itemId)\r\n        nonReentrant\r\n    {\r\n        require(\r\n            _idToCovenant[itemId].status == CovenantStatus.LOCKED &&\r\n                _idToCovenant[itemId].timeExpired < block.timestamp,\r\n            \"Not time for liquidate covenant\"\r\n        );\r\n        Covenant storage loanCovenant = _idToCovenant[itemId];\r\n        IERC721(loanCovenant.nftContract).transferFrom(\r\n            address(this),\r\n            msg.sender,\r\n            loanCovenant.tokenId\r\n        );\r\n        loanCovenant.status = CovenantStatus.ENDED;\r\n        loanCovenant.isLatest = false;\r\n        _loanLiquidated[msg.sender] = _loanLiquidated[msg.sender].add(1);\r\n        emit CovenantLiquidate(\r\n            itemId,\r\n            loanCovenant.nftContract,\r\n            loanCovenant.tokenId\r\n        );\r\n    }\r\n\r\n    function getCovenants() public view returns (Covenant[] memory) {\r\n        uint256 covenantCount = _itemCount.current();\r\n\r\n        Covenant[] memory covenants = new Covenant[](covenantCount);\r\n        uint256 covenantIndex = 0;\r\n        for (uint256 i = 0; i < covenantCount; i++) {\r\n            covenants[covenantIndex] = _idToCovenant[i];\r\n            covenantIndex++;\r\n        }\r\n        return covenants;\r\n    }\r\n\r\n    function getCovenantsByAddress(address addr)\r\n        public\r\n        view\r\n        returns (Covenant[] memory)\r\n    {\r\n        uint256 covenantCount = _itemCount.current();\r\n        uint256 myListedCovenantCount = 0;\r\n        for (uint256 i = 0; i < covenantCount; i++) {\r\n            if (\r\n                _idToCovenant[i].borrower == addr ||\r\n                _idToCovenant[i].lender == addr\r\n            ) {\r\n                myListedCovenantCount++;\r\n            }\r\n        }\r\n\r\n        Covenant[] memory covenants = new Covenant[](covenantCount);\r\n        uint256 covenantIndex = 0;\r\n        for (uint256 i = 0; i < myListedCovenantCount; i++) {\r\n            if (\r\n                _idToCovenant[i].borrower == addr ||\r\n                _idToCovenant[i].lender == addr\r\n            ) {\r\n                covenants[covenantIndex] = _idToCovenant[i];\r\n                covenantIndex++;\r\n            }\r\n        }\r\n        return covenants;\r\n    }\r\n\r\n    function getCovenant(uint256 itemId)\r\n        public\r\n        view\r\n        returns (Covenant memory, Proposal memory)\r\n    {\r\n        Covenant memory covenant = _idToCovenant[itemId];\r\n        Proposal memory proposal = _idToProposal[itemId];\r\n        return (covenant, proposal);\r\n    }\r\n\r\n    function getUserHealth(address addr)\r\n        public\r\n        view\r\n        returns (uint256, uint256)\r\n    {\r\n        return (_loanAccepted[addr], _loanLiquidated[addr]);\r\n    }\r\n\r\n    function getLoanData(address contractAddress, uint256 tokenId)\r\n        public\r\n        view\r\n        returns (Covenant memory, Proposal memory)\r\n    {\r\n        Covenant memory covenant;\r\n        Proposal memory proposal;\r\n\r\n        uint256 cCount = _itemCount.current();\r\n        for (uint256 i = 0; i < cCount; i++) {\r\n            if (\r\n                _idToCovenant[i].nftContract == contractAddress &&\r\n                _idToCovenant[i].tokenId == tokenId &&\r\n                _idToCovenant[i].isLatest\r\n            ) {\r\n                covenant = _idToCovenant[i];\r\n                proposal = _idToProposal[i];\r\n                break;\r\n            }\r\n        }\r\n\r\n        return (covenant, proposal);\r\n    }\r\n\r\n    function sendAssets(\r\n        address from,\r\n        address to,\r\n        address ftToken,\r\n        uint256 value\r\n    ) private {\r\n        if (ftToken == address(0)) {\r\n            payable(to).transfer(value);\r\n        } else {\r\n            if (from != address(this)) {\r\n                IERC20(ftToken).transferFrom(from, to, value);\r\n            } else {\r\n                IERC20(ftToken).transfer(to, value);\r\n            }\r\n        }\r\n    }\r\n}\r\n",
  "sourcePath": "G:\\Learning\\Project\\source\\picasarts-contracts\\contracts\\NFTLoan.sol",
  "compiler": {
    "name": "solc",
    "version": "0.8.4+commit.c7e474f2.Emscripten.clang"
  },
  "schemaVersion": "3.4.10",
  "updatedAt": "2023-03-16T10:34:52.294Z",
  "devdoc": {
    "kind": "dev",
    "methods": {
      "owner()": {
        "details": "Returns the address of the current owner."
      },
      "renounceOwnership()": {
        "details": "Leaves the contract without owner. It will not be possible to call `onlyOwner` functions anymore. Can only be called by the current owner. NOTE: Renouncing ownership will leave the contract without an owner, thereby removing any functionality that is only available to the owner."
      },
      "transferOwnership(address)": {
        "details": "Transfers ownership of the contract to a new account (`newOwner`). Can only be called by the current owner."
      }
    },
    "version": 1
  },
  "userdoc": {
    "kind": "user",
    "methods": {},
    "version": 1
  }
}