{
  "contractName": "Rental",
  "abi": [
    {
      "inputs": [
        {
          "internalType": "uint256",
          "name": "fee",
          "type": "uint256"
        },
        {
          "internalType": "address",
          "name": "hub",
          "type": "address"
        }
      ],
      "stateMutability": "nonpayable",
      "type": "constructor"
    },
    {
      "anonymous": false,
      "inputs": [
        {
          "indexed": true,
          "internalType": "address",
          "name": "previousOwner",
          "type": "address"
        },
        {
          "indexed": true,
          "internalType": "address",
          "name": "newOwner",
          "type": "address"
        }
      ],
      "name": "OwnershipTransferred",
      "type": "event"
    },
    {
      "inputs": [],
      "name": "DENOMINATOR",
      "outputs": [
        {
          "internalType": "uint256",
          "name": "",
          "type": "uint256"
        }
      ],
      "stateMutability": "view",
      "type": "function"
    },
    {
      "inputs": [],
      "name": "ERC2981INTERFACE",
      "outputs": [
        {
          "internalType": "bytes4",
          "name": "",
          "type": "bytes4"
        }
      ],
      "stateMutability": "view",
      "type": "function"
    },
    {
      "inputs": [],
      "name": "ERC721INTERFACE",
      "outputs": [
        {
          "internalType": "bytes4",
          "name": "",
          "type": "bytes4"
        }
      ],
      "stateMutability": "view",
      "type": "function"
    },
    {
      "inputs": [],
      "name": "RATE_FEE",
      "outputs": [
        {
          "internalType": "uint256",
          "name": "",
          "type": "uint256"
        }
      ],
      "stateMutability": "view",
      "type": "function"
    },
    {
      "inputs": [
        {
          "internalType": "address",
          "name": "tokenAddr",
          "type": "address"
        }
      ],
      "name": "addAcceptToken",
      "outputs": [],
      "stateMutability": "nonpayable",
      "type": "function"
    },
    {
      "inputs": [
        {
          "internalType": "address",
          "name": "whitelistAddress",
          "type": "address"
        },
        {
          "internalType": "uint256",
          "name": "fee",
          "type": "uint256"
        }
      ],
      "name": "addWhitelistAddress",
      "outputs": [],
      "stateMutability": "nonpayable",
      "type": "function"
    },
    {
      "inputs": [
        {
          "internalType": "address",
          "name": "walletAddress",
          "type": "address"
        },
        {
          "internalType": "address",
          "name": "tokenAddress",
          "type": "address"
        }
      ],
      "name": "feeOf",
      "outputs": [
        {
          "internalType": "uint256",
          "name": "",
          "type": "uint256"
        }
      ],
      "stateMutability": "view",
      "type": "function"
    },
    {
      "inputs": [],
      "name": "getAcceptTokens",
      "outputs": [
        {
          "internalType": "address[]",
          "name": "",
          "type": "address[]"
        }
      ],
      "stateMutability": "view",
      "type": "function"
    },
    {
      "inputs": [],
      "name": "getRateFee",
      "outputs": [
        {
          "internalType": "uint256",
          "name": "",
          "type": "uint256"
        }
      ],
      "stateMutability": "view",
      "type": "function"
    },
    {
      "inputs": [
        {
          "internalType": "address",
          "name": "tokenAddress",
          "type": "address"
        }
      ],
      "name": "getTokenFee",
      "outputs": [
        {
          "internalType": "uint256",
          "name": "",
          "type": "uint256"
        }
      ],
      "stateMutability": "view",
      "type": "function"
    },
    {
      "inputs": [],
      "name": "getWhitelist",
      "outputs": [
        {
          "components": [
            {
              "internalType": "address",
              "name": "addr",
              "type": "address"
            },
            {
              "internalType": "uint256",
              "name": "fee",
              "type": "uint256"
            }
          ],
          "internalType": "struct IHubChild.WhitelistVars[]",
          "name": "",
          "type": "tuple[]"
        }
      ],
      "stateMutability": "view",
      "type": "function"
    },
    {
      "inputs": [],
      "name": "hubAddr",
      "outputs": [
        {
          "internalType": "address",
          "name": "",
          "type": "address"
        }
      ],
      "stateMutability": "view",
      "type": "function"
    },
    {
      "inputs": [],
      "name": "owner",
      "outputs": [
        {
          "internalType": "address",
          "name": "",
          "type": "address"
        }
      ],
      "stateMutability": "view",
      "type": "function"
    },
    {
      "inputs": [
        {
          "internalType": "address",
          "name": "tokenAddr",
          "type": "address"
        }
      ],
      "name": "removeToken",
      "outputs": [],
      "stateMutability": "nonpayable",
      "type": "function"
    },
    {
      "inputs": [
        {
          "internalType": "address",
          "name": "whitelistAddress",
          "type": "address"
        }
      ],
      "name": "removeWhitelistAddress",
      "outputs": [],
      "stateMutability": "nonpayable",
      "type": "function"
    },
    {
      "inputs": [],
      "name": "renounceOwnership",
      "outputs": [],
      "stateMutability": "nonpayable",
      "type": "function"
    },
    {
      "inputs": [
        {
          "internalType": "address",
          "name": "hub",
          "type": "address"
        }
      ],
      "name": "setHub",
      "outputs": [],
      "stateMutability": "nonpayable",
      "type": "function"
    },
    {
      "inputs": [
        {
          "internalType": "uint256",
          "name": "rateFee",
          "type": "uint256"
        }
      ],
      "name": "setRateFee",
      "outputs": [],
      "stateMutability": "nonpayable",
      "type": "function"
    },
    {
      "inputs": [
        {
          "internalType": "address",
          "name": "newOwner",
          "type": "address"
        }
      ],
      "name": "transferOwnership",
      "outputs": [],
      "stateMutability": "nonpayable",
      "type": "function"
    },
    {
      "inputs": [
        {
          "internalType": "address",
          "name": "nftContract",
          "type": "address"
        },
        {
          "internalType": "uint256",
          "name": "tokenId",
          "type": "uint256"
        },
        {
          "internalType": "address",
          "name": "ftContract",
          "type": "address"
        },
        {
          "internalType": "uint256",
          "name": "releaseFrequency",
          "type": "uint256"
        },
        {
          "internalType": "uint256",
          "name": "cycleTime",
          "type": "uint256"
        },
        {
          "internalType": "uint256",
          "name": "cycleEnded",
          "type": "uint256"
        }
      ],
      "name": "list",
      "outputs": [],
      "stateMutability": "nonpayable",
      "type": "function"
    },
    {
      "inputs": [
        {
          "internalType": "uint256",
          "name": "itemId",
          "type": "uint256"
        },
        {
          "internalType": "address",
          "name": "ftContract",
          "type": "address"
        },
        {
          "internalType": "uint256",
          "name": "releaseFrequency",
          "type": "uint256"
        },
        {
          "internalType": "uint256",
          "name": "cycleTime",
          "type": "uint256"
        },
        {
          "internalType": "uint256",
          "name": "cycleEnded",
          "type": "uint256"
        }
      ],
      "name": "relist",
      "outputs": [],
      "stateMutability": "nonpayable",
      "type": "function"
    },
    {
      "inputs": [
        {
          "internalType": "uint256",
          "name": "itemId",
          "type": "uint256"
        },
        {
          "internalType": "address",
          "name": "ftContract",
          "type": "address"
        },
        {
          "internalType": "uint256",
          "name": "releaseFrequency",
          "type": "uint256"
        },
        {
          "internalType": "uint256",
          "name": "cycleTime",
          "type": "uint256"
        },
        {
          "internalType": "uint256",
          "name": "cycleEnded",
          "type": "uint256"
        }
      ],
      "name": "edit",
      "outputs": [],
      "stateMutability": "nonpayable",
      "type": "function"
    },
    {
      "inputs": [
        {
          "internalType": "uint256",
          "name": "itemId",
          "type": "uint256"
        }
      ],
      "name": "unlist",
      "outputs": [],
      "stateMutability": "nonpayable",
      "type": "function"
    },
    {
      "inputs": [
        {
          "internalType": "uint256",
          "name": "itemId",
          "type": "uint256"
        },
        {
          "internalType": "uint256",
          "name": "amount",
          "type": "uint256"
        }
      ],
      "name": "rent",
      "outputs": [],
      "stateMutability": "payable",
      "type": "function"
    },
    {
      "inputs": [
        {
          "internalType": "uint256",
          "name": "itemId",
          "type": "uint256"
        },
        {
          "internalType": "uint256",
          "name": "amount",
          "type": "uint256"
        }
      ],
      "name": "topup",
      "outputs": [],
      "stateMutability": "payable",
      "type": "function"
    },
    {
      "inputs": [
        {
          "internalType": "uint256",
          "name": "itemId",
          "type": "uint256"
        }
      ],
      "name": "cancel",
      "outputs": [],
      "stateMutability": "payable",
      "type": "function"
    },
    {
      "inputs": [
        {
          "internalType": "uint256",
          "name": "itemId",
          "type": "uint256"
        }
      ],
      "name": "withdraw",
      "outputs": [],
      "stateMutability": "payable",
      "type": "function"
    },
    {
      "inputs": [
        {
          "internalType": "uint256",
          "name": "itemId",
          "type": "uint256"
        }
      ],
      "name": "stop",
      "outputs": [],
      "stateMutability": "payable",
      "type": "function"
    },
    {
      "inputs": [
        {
          "internalType": "uint256",
          "name": "itemId",
          "type": "uint256"
        }
      ],
      "name": "redeem",
      "outputs": [],
      "stateMutability": "nonpayable",
      "type": "function"
    },
    {
      "inputs": [],
      "name": "getCovenants",
      "outputs": [
        {
          "components": [
            {
              "components": [
                {
                  "internalType": "uint256",
                  "name": "itemId",
                  "type": "uint256"
                },
                {
                  "internalType": "address",
                  "name": "nftContract",
                  "type": "address"
                },
                {
                  "internalType": "uint256",
                  "name": "tokenId",
                  "type": "uint256"
                },
                {
                  "internalType": "address",
                  "name": "ftContract",
                  "type": "address"
                },
                {
                  "internalType": "uint256",
                  "name": "releaseFrequency",
                  "type": "uint256"
                },
                {
                  "internalType": "uint256",
                  "name": "cycleTime",
                  "type": "uint256"
                },
                {
                  "internalType": "uint256",
                  "name": "cycleEnded",
                  "type": "uint256"
                },
                {
                  "internalType": "enum Rental.CovenantStatus",
                  "name": "status",
                  "type": "uint8"
                },
                {
                  "internalType": "address",
                  "name": "lender",
                  "type": "address"
                }
              ],
              "internalType": "struct Rental.Covenant",
              "name": "config",
              "type": "tuple"
            },
            {
              "components": [
                {
                  "internalType": "address",
                  "name": "borrower",
                  "type": "address"
                },
                {
                  "internalType": "uint256",
                  "name": "startTime",
                  "type": "uint256"
                },
                {
                  "internalType": "uint256",
                  "name": "duration",
                  "type": "uint256"
                },
                {
                  "internalType": "uint256",
                  "name": "withdrawRound",
                  "type": "uint256"
                }
              ],
              "internalType": "struct Rental.CovenantProfile",
              "name": "profile",
              "type": "tuple"
            }
          ],
          "internalType": "struct Rental.CovenantData[]",
          "name": "",
          "type": "tuple[]"
        }
      ],
      "stateMutability": "view",
      "type": "function"
    },
    {
      "inputs": [
        {
          "internalType": "address",
          "name": "addr",
          "type": "address"
        }
      ],
      "name": "getCovenantsByAddress",
      "outputs": [
        {
          "components": [
            {
              "components": [
                {
                  "internalType": "uint256",
                  "name": "itemId",
                  "type": "uint256"
                },
                {
                  "internalType": "address",
                  "name": "nftContract",
                  "type": "address"
                },
                {
                  "internalType": "uint256",
                  "name": "tokenId",
                  "type": "uint256"
                },
                {
                  "internalType": "address",
                  "name": "ftContract",
                  "type": "address"
                },
                {
                  "internalType": "uint256",
                  "name": "releaseFrequency",
                  "type": "uint256"
                },
                {
                  "internalType": "uint256",
                  "name": "cycleTime",
                  "type": "uint256"
                },
                {
                  "internalType": "uint256",
                  "name": "cycleEnded",
                  "type": "uint256"
                },
                {
                  "internalType": "enum Rental.CovenantStatus",
                  "name": "status",
                  "type": "uint8"
                },
                {
                  "internalType": "address",
                  "name": "lender",
                  "type": "address"
                }
              ],
              "internalType": "struct Rental.Covenant",
              "name": "config",
              "type": "tuple"
            },
            {
              "components": [
                {
                  "internalType": "address",
                  "name": "borrower",
                  "type": "address"
                },
                {
                  "internalType": "uint256",
                  "name": "startTime",
                  "type": "uint256"
                },
                {
                  "internalType": "uint256",
                  "name": "duration",
                  "type": "uint256"
                },
                {
                  "internalType": "uint256",
                  "name": "withdrawRound",
                  "type": "uint256"
                }
              ],
              "internalType": "struct Rental.CovenantProfile",
              "name": "profile",
              "type": "tuple"
            }
          ],
          "internalType": "struct Rental.CovenantData[]",
          "name": "",
          "type": "tuple[]"
        }
      ],
      "stateMutability": "view",
      "type": "function"
    },
    {
      "inputs": [
        {
          "internalType": "uint256",
          "name": "itemId",
          "type": "uint256"
        }
      ],
      "name": "getCovenant",
      "outputs": [
        {
          "components": [
            {
              "internalType": "uint256",
              "name": "itemId",
              "type": "uint256"
            },
            {
              "internalType": "address",
              "name": "nftContract",
              "type": "address"
            },
            {
              "internalType": "uint256",
              "name": "tokenId",
              "type": "uint256"
            },
            {
              "internalType": "address",
              "name": "ftContract",
              "type": "address"
            },
            {
              "internalType": "uint256",
              "name": "releaseFrequency",
              "type": "uint256"
            },
            {
              "internalType": "uint256",
              "name": "cycleTime",
              "type": "uint256"
            },
            {
              "internalType": "uint256",
              "name": "cycleEnded",
              "type": "uint256"
            },
            {
              "internalType": "enum Rental.CovenantStatus",
              "name": "status",
              "type": "uint8"
            },
            {
              "internalType": "address",
              "name": "lender",
              "type": "address"
            }
          ],
          "internalType": "struct Rental.Covenant",
          "name": "",
          "type": "tuple"
        },
        {
          "components": [
            {
              "internalType": "address",
              "name": "borrower",
              "type": "address"
            },
            {
              "internalType": "uint256",
              "name": "startTime",
              "type": "uint256"
            },
            {
              "internalType": "uint256",
              "name": "duration",
              "type": "uint256"
            },
            {
              "internalType": "uint256",
              "name": "withdrawRound",
              "type": "uint256"
            }
          ],
          "internalType": "struct Rental.CovenantProfile",
          "name": "",
          "type": "tuple"
        }
      ],
      "stateMutability": "view",
      "type": "function"
    },
    {
      "inputs": [
        {
          "internalType": "address",
          "name": "contractAddress",
          "type": "address"
        },
        {
          "internalType": "uint256",
          "name": "tokenId",
          "type": "uint256"
        }
      ],
      "name": "getRentalData",
      "outputs": [
        {
          "components": [
            {
              "internalType": "uint256",
              "name": "itemId",
              "type": "uint256"
            },
            {
              "internalType": "address",
              "name": "nftContract",
              "type": "address"
            },
            {
              "internalType": "uint256",
              "name": "tokenId",
              "type": "uint256"
            },
            {
              "internalType": "address",
              "name": "ftContract",
              "type": "address"
            },
            {
              "internalType": "uint256",
              "name": "releaseFrequency",
              "type": "uint256"
            },
            {
              "internalType": "uint256",
              "name": "cycleTime",
              "type": "uint256"
            },
            {
              "internalType": "uint256",
              "name": "cycleEnded",
              "type": "uint256"
            },
            {
              "internalType": "enum Rental.CovenantStatus",
              "name": "status",
              "type": "uint8"
            },
            {
              "internalType": "address",
              "name": "lender",
              "type": "address"
            }
          ],
          "internalType": "struct Rental.Covenant",
          "name": "",
          "type": "tuple"
        },
        {
          "components": [
            {
              "internalType": "address",
              "name": "borrower",
              "type": "address"
            },
            {
              "internalType": "uint256",
              "name": "startTime",
              "type": "uint256"
            },
            {
              "internalType": "uint256",
              "name": "duration",
              "type": "uint256"
            },
            {
              "internalType": "uint256",
              "name": "withdrawRound",
              "type": "uint256"
            }
          ],
          "internalType": "struct Rental.CovenantProfile",
          "name": "",
          "type": "tuple"
        }
      ],
      "stateMutability": "view",
      "type": "function"
    }
  ],
  "bytecode": "0x60806040523480156200001157600080fd5b5060405162003f1f38038062003f1f83398101604081905262000034916200012c565b6200003f336200005b565b6001805560078290556200005381620000ab565b505062000169565b600080546001600160a01b038381166001600160a01b0319831681178455604051919092169283917f8be0079c531659141344cd1fd0a4f28419497f9722a3daafe3b4186f6b6457e09190a35050565b6000546001600160a01b031633146200010a5760405162461bcd60e51b815260206004820181905260248201527f4f776e61626c653a2063616c6c6572206973206e6f7420746865206f776e6572604482015260640160405180910390fd5b600880546001600160a01b0319166001600160a01b0392909216919091179055565b600080604083850312156200013f578182fd5b825160208401519092506001600160a01b03811681146200015e578182fd5b809150509250929050565b613da680620001796000396000f3fe6080604052600436106101ee5760003560e01c8063715018a61161010d578063b1c005fa116100a0578063d9042f851161006f578063d9042f851461055a578063db006a751461057a578063debd22721461059a578063f2fde38b146105ba578063ffd62f7b146105da57600080fd5b8063b1c005fa146104ca578063b7ecbaae146104f8578063bf5a4dd314610518578063d01f63f51461053857600080fd5b80638da5cb5b116100dc5780638da5cb5b14610461578063918f86741461047f57806393e4626e14610495578063a89eccfd146104aa57600080fd5b8063715018a614610402578063783a112b146104175780638563e10e1461042a57806386c3b08a1461044c57600080fd5b806340e58ee5116101855780635a24a0b5116101545780635a24a0b51461038f5780635fa7b584146103af5780636299f8cf146103cf5780636eeaa63c146103e257600080fd5b806340e58ee51461030e57806349095a2114610321578063502a676c146103595780635254aca91461036f57600080fd5b80631879c750116101c15780631879c75014610292578063252154fa146102ad5780632e1a7d4d146102db57806331962cdc146102ee57600080fd5b8063042ca242146101f357806307cb1a6e146102295780630f15e9be1461025d578063184ff47f1461027f575b600080fd5b3480156101ff57600080fd5b5061021361020e36600461378b565b6105fa565b6040516102209190613a6c565b60405180910390f35b34801561023557600080fd5b506102446380ac58cd60e01b81565b6040516001600160e01b03199091168152602001610220565b34801561026957600080fd5b5061027d6102783660046138b2565b6108bb565b005b61027d61028d366004613911565b61094e565b34801561029e57600080fd5b5061024463152a902d60e11b81565b3480156102b957600080fd5b506102cd6102c836600461378b565b610c39565b604051908152602001610220565b61027d6102e93660046138b2565b610c4c565b3480156102fa57600080fd5b5061027d61030936600461378b565b610cc5565b61027d61031c3660046138b2565b610d11565b34801561032d57600080fd5b50600854610341906001600160a01b031681565b6040516001600160a01b039091168152602001610220565b34801561036557600080fd5b506102cd60075481565b34801561037b57600080fd5b5061027d61038a3660046137df565b611201565b34801561039b57600080fd5b5061027d6103aa3660046138ca565b61123c565b3480156103bb57600080fd5b5061027d6103ca36600461378b565b611483565b61027d6103dd3660046138b2565b6114bc565b3480156103ee57600080fd5b5061027d6103fd366004613837565b611656565b34801561040e57600080fd5b5061027d611946565b61027d610425366004613911565b61197c565b34801561043657600080fd5b5061043f611dbf565b6040516102209190613a1f565b34801561045857600080fd5b506007546102cd565b34801561046d57600080fd5b506000546001600160a01b0316610341565b34801561048b57600080fd5b506102cd61271081565b3480156104a157600080fd5b50610213611e8b565b3480156104b657600080fd5b506102cd6104c53660046137a7565b612081565b3480156104d657600080fd5b506104ea6104e53660046138b2565b612094565b604051610220929190613c49565b34801561050457600080fd5b5061027d61051336600461378b565b6121c5565b34801561052457600080fd5b5061027d6105333660046138b2565b6121fa565b34801561054457600080fd5b5061054d612489565b6040516102209190613ae4565b34801561056657600080fd5b5061027d6105753660046138ca565b612585565b34801561058657600080fd5b5061027d6105953660046138b2565b612796565b3480156105a657600080fd5b5061027d6105b536600461378b565b6129f6565b3480156105c657600080fd5b5061027d6105d536600461378b565b612a2b565b3480156105e657600080fd5b506104ea6105f53660046137df565b612ac6565b6060600061060760095490565b9050600060015b828111610683576000818152600b60205260409020546001600160a01b038681169116148061065e57506000818152600a60205260409020600701546001600160a01b0386811661010090920416145b15610671578161066d81613d2a565b9250505b8061067b81613d2a565b91505061060e565b5060008267ffffffffffffffff8111156106ad57634e487b7160e01b600052604160045260246000fd5b6040519080825280602002602001820160405280156106e657816020015b6106d36136b8565b8152602001906001900390816106cb5790505b509050600060015b8381116108b0576000818152600b60205260409020546001600160a01b038881169116148061073e57506000818152600a60205260409020600701546001600160a01b0388811661010090920416145b1561089e57604080516000838152600a60205282902061016082018352805492820192835260018101546001600160a01b0390811660608401526002820154608084015260038201541660a083015260048082015460c0840152600582015460e0840152600682015461010084015260078201549293849390929161012085019160ff16908111156107e057634e487b7160e01b600052602160045260246000fd5b60048111156107ff57634e487b7160e01b600052602160045260246000fd5b8152600791909101546001600160a01b0361010090910481166020928301529183526000858152600b82526040908190208151608081018352815490941684526001810154848401526002810154918401919091526003015460608301529190910152835184908490811061088457634e487b7160e01b600052603260045260246000fd5b6020026020010181905250818061089a90613d2a565b9250505b806108a881613d2a565b9150506106ee565b509095945050505050565b6008546001600160a01b031633146108ee5760405162461bcd60e51b81526004016108e590613be4565b60405180910390fd5b61271081106109495760405162461bcd60e51b815260206004820152602160248201527f466565206e756d657261746f72206d757374206c657373207468616e203130306044820152602560f81b60648201526084016108e5565b600755565b6000828152600b602052604090205482906001600160a01b031633146109af5760405162461bcd60e51b815260206004820152601660248201527529b2b73232b91034b9903737ba103137b93937bbb2b960511b60448201526064016108e5565b600260015414156109d25760405162461bcd60e51b81526004016108e590613c12565b600260018190556000848152600a602052604090206007015460ff166004811115610a0d57634e487b7160e01b600052602160045260246000fd5b14610a5a5760405162461bcd60e51b815260206004820181905260248201527f52656e74616c20636f76656e616e74206d7573742062652072656e74696e672e60448201526064016108e5565b6000838152600a602052604081206004810154909190610a7a9085613cd4565b90506000826004015482610a8e9190613cf4565b90506000610a9c8287613d13565b60038501549091506001600160a01b0316610b2157853414610afa5760405162461bcd60e51b815260206004820152601760248201527614995b9d185b08185b5bdd5b9d081b9bdd08195e1858dd604a1b60448201526064016108e5565b8015610b1c576003840154610b1c90309033906001600160a01b031684612c80565b610b3d565b6003840154610b3d90339030906001600160a01b031685612c80565b6000878152600b6020526040902060020154610b599084613cbc565b600180860154600287015460008b8152600b602052604090209092015460058801549396506001600160a01b039091169263eaf05b1692913391610b9d9089613cf4565b610ba79190613cbc565b6040518463ffffffff1660e01b8152600401610bc593929190613c8f565b600060405180830381600087803b158015610bdf57600080fd5b505af1158015610bf3573d6000803e3d6000fd5b505050506007939093018054600260ff1990911681179091556000968752600b602052604090962080546001600160a01b03191633178155909501555050600180555050565b6000610c46600483612de6565b92915050565b6000818152600a6020526040902060070154819061010090046001600160a01b03163314610c8c5760405162461bcd60e51b81526004016108e590613b81565b60026001541415610caf5760405162461bcd60e51b81526004016108e590613c12565b6002600155610cbd82612dfb565b505060018055565b6000546001600160a01b03163314610cef5760405162461bcd60e51b81526004016108e590613baf565b600880546001600160a01b0319166001600160a01b0392909216919091179055565b6000818152600b602052604090205481906001600160a01b03163314610d725760405162461bcd60e51b815260206004820152601660248201527529b2b73232b91034b9903737ba103137b93937bbb2b960511b60448201526064016108e5565b60026001541415610d955760405162461bcd60e51b81526004016108e590613c12565b600260019081556000838152600a6020908152604080832060050154600b909252822090920154429290610dc99084613d13565b610dd39190613cd4565b905080610ddf81613d2a565b9150600290506000858152600a602052604090206007015460ff166004811115610e1957634e487b7160e01b600052602160045260246000fd5b1480610e58575060036000858152600a602052604090206007015460ff166004811115610e5657634e487b7160e01b600052602160045260246000fd5b145b8015610e7457506000848152600b602052604090206002015481105b610ec05760405162461bcd60e51b815260206004820181905260248201527f52656e74616c20636f76656e616e74206d7573742062652072656e74696e672e60448201526064016108e5565b6000848152600a60209081526040808320600b909252822060020154909190610eea908490613d13565b8260040154610ef99190613cf4565b6000878152600b60205260409020546003840154919250610f299130916001600160a01b03908116911684612c80565b6000838360040154610f3b9190613cf4565b60078401546003850154919250600091610f66916001600160a01b036101009091048116911661311a565b9050612710610f758284613cf4565b610f7f9190613cd4565b6001850154909150610fa1906001600160a01b031663152a902d60e11b613184565b156110f9576001840154600285015460405163152a902d60e11b815260009283926001600160a01b0390911691632a55205a91610feb918890600401918252602082015260400190565b604080518083038186803b15801561100257600080fd5b505afa158015611016573d6000803e3d6000fd5b505050506040513d601f19601f8201168201806040525081019061103a919061380a565b600788015491935091506001600160a01b0380841661010090920416148015906110645750600081115b156110c657600386015461108590309084906001600160a01b031684612c80565b600786015460038701546110c19130916001600160a01b0361010090920482169116846110b2888a613d13565b6110bc9190613d13565b612c80565b6110f2565b600786015460038701546110f29130916001600160a01b03610100909204821691166110bc8789613d13565b5050611125565b600784015460038501546111259130916001600160a01b03610100909204821691166110bc8587613d13565b60085460038501546111469130916001600160a01b03918216911684612c80565b600180850154600286015460008b8152600b602052604090209092015460058701546001600160a01b039092169263eaf05b169290913391611188908b613cf4565b6111929190613cbc565b6040518463ffffffff1660e01b81526004016111b093929190613c8f565b600060405180830381600087803b1580156111ca57600080fd5b505af11580156111de573d6000803e3d6000fd5b50505060009889525050600b602052505060409094206002015550506001805550565b6008546001600160a01b0316331461122b5760405162461bcd60e51b81526004016108e590613be4565b611237600483836131a0565b505050565b6000858152600a6020526040902060070154859061010090046001600160a01b0316331461127c5760405162461bcd60e51b81526004016108e590613b81565b8560016000828152600a602052604090206007015460ff1660048111156112b357634e487b7160e01b600052602160045260246000fd5b148061134257506000818152600a6020908152604080832060050154600b9092529091206002015442916112e691613cf4565b6000838152600b60205260409020600101546113029190613cbc565b108015611342575060026000828152600a602052604090206007015460ff16600481111561134057634e487b7160e01b600052602160045260246000fd5b145b6113825760405162461bcd60e51b8152602060048201526011602482015270139bdd081d1a5b5948199bdc881c995b9d607a1b60448201526064016108e5565b600260015414156113a55760405162461bcd60e51b81526004016108e590613c12565b600260018190556000888152600a60209081526040808320600380820180546001600160a01b0319166001600160a01b038e16179055600482018b9055600582018a905560068201899055600b90935292209081015492015490911461140e5761140e88612dfb565b50506040805160808101825260008082526020808301828152838501838152606085018481529b8452600b90925293909120915182546001600160a01b0319166001600160a01b0390911617825591516001808301919091559151600282015596516003909701969096555050509180555050565b6008546001600160a01b031633146114ad5760405162461bcd60e51b81526004016108e590613be4565b6114b86002826131be565b5050565b6000818152600a6020526040902060070154819061010090046001600160a01b031633146114fc5760405162461bcd60e51b81526004016108e590613b81565b6002600154141561151f5760405162461bcd60e51b81526004016108e590613c12565b600260019081556000838152600a6020908152604080832060050154600b9092528220909201544292906115539084613d13565b61155d9190613cd4565b6000858152600a602052604090206006015490915061157c9082613cbc565b6000858152600b602052604090206002015490915081106115ae576000848152600b60205260409020600201546115b0565b805b6000858152600a60209081526040808320600b909252822060020154929350916115db908490613d13565b6000878152600a60205260409020600401546115f79190613cf4565b9050801561162c576000868152600b6020526040902054600383015461162c9130916001600160a01b03918216911684612c80565b506000948552600b6020526040909420600201555050600701805460ff1916600317905560018055565b600260015414156116795760405162461bcd60e51b81526004016108e590613c12565b6002600155821580159061168d5750600082115b6116a95760405162461bcd60e51b81526004016108e590613b3c565b6116ba866380ac58cd60e01b613184565b6117065760405162461bcd60e51b815260206004820152601b60248201527f436f6e7472616374206e6565647320746f20626520455243373231000000000060448201526064016108e5565b6040516323b872dd60e01b81526001600160a01b038716906323b872dd9061173690339030908a906004016139fb565b600060405180830381600087803b15801561175057600080fd5b505af1158015611764573d6000803e3d6000fd5b50505050611776600980546001019055565b600061178160095490565b9050604051806101200160405280828152602001886001600160a01b03168152602001878152602001866001600160a01b03168152602001858152602001848152602001838152602001600160048111156117ec57634e487b7160e01b600052602160045260246000fd5b8152336020918201526000838152600a82526040908190208351815591830151600180840180546001600160a01b039384166001600160a01b0319918216179091559285015160028501556060850151600385018054919093169316929092179055608083015160048084019190915560a0840151600584015560c0840151600684015560e08401516007840180549193909260ff199092169184908111156118a557634e487b7160e01b600052602160045260246000fd5b0217905550610100918201516007919091018054610100600160a81b0319166001600160a01b0392831690930292909217909155604080516080810182526000808252602080830182815283850183815260608501848152978452600b90925293909120915182546001600160a01b031916941693909317815590516001828101919091559151600282015591516003909201919091558055505050505050565b6000546001600160a01b031633146119705760405162461bcd60e51b81526004016108e590613baf565b61197a60006131d3565b565b6002600154141561199f5760405162461bcd60e51b81526004016108e590613c12565b60026001556000828152600a602052604090206007015461010090046001600160a01b0316331415611a135760405162461bcd60e51b815260206004820152601960248201527f53656e646572206d757374206265206e6f74206c656e6465720000000000000060448201526064016108e5565b60026000838152600a602052604090206007015460ff166004811115611a4957634e487b7160e01b600052602160045260246000fd5b1480611a88575060016000838152600a602052604090206007015460ff166004811115611a8657634e487b7160e01b600052602160045260246000fd5b145b611ac95760405162461bcd60e51b81526020600482015260126024820152714e6f7420616363657074656420737461746560701b60448201526064016108e5565b6000828152600a602052604081206004810154909190611ae99084613cd4565b90506000826004015482611afd9190613cf4565b90506000611b0b8286613d13565b90504260026000888152600a602052604090206007015460ff166004811115611b4457634e487b7160e01b600052602160045260246000fd5b1415611c4a576000878152600a6020908152604080832060050154600b909252909120600201544291611b7691613cf4565b6000898152600b6020526040902060010154611b929190613cbc565b10611bdf5760405162461bcd60e51b815260206004820152601d60248201527f52656e74616c20636f76656e616e74206d75737420626520656e64656400000060448201526064016108e5565b6000878152600b60205260409020600381015460029091015414611c4a5760058501546000888152600b6020526040902060020154611c1e9190613cf4565b611c289082613d13565b6000888152600b6020526040902060020154909150611c479085613cbc565b93505b60038501546001600160a01b0316611ccc57853414611ca55760405162461bcd60e51b815260206004820152601760248201527614995b9d185b08185b5bdd5b9d081b9bdd08195e1858dd604a1b60448201526064016108e5565b8115611cc7576003850154611cc790309033906001600160a01b031685612c80565b611ce8565b6003850154611ce890339030906001600160a01b031686612c80565b6001850154600286015460058701546001600160a01b039092169163eaf05b16919033908590611d18908a613cf4565b611d229190613cbc565b6040518463ffffffff1660e01b8152600401611d4093929190613c8f565b600060405180830381600087803b158015611d5a57600080fd5b505af1158015611d6e573d6000803e3d6000fd5b5050506007860180546002925060ff191660018302179055506000968752600b602052604090962080546001600160a01b031916331781556001808201979097556002019290925550505090805550565b60606000611dcd6002613223565b905060008167ffffffffffffffff811115611df857634e487b7160e01b600052604160045260246000fd5b604051908082528060200260200182016040528015611e21578160200160208202803683370190505b50905060005b82811015611e8457611e3a60028261322d565b828281518110611e5a57634e487b7160e01b600052603260045260246000fd5b6001600160a01b039092166020928302919091019091015280611e7c81613d2a565b915050611e27565b5092915050565b60606000611e9860095490565b905060008167ffffffffffffffff811115611ec357634e487b7160e01b600052604160045260246000fd5b604051908082528060200260200182016040528015611efc57816020015b611ee96136b8565b815260200190600190039081611ee15790505b509050600060015b83811161207857604080516000838152600a60205282902061016082018352805492820192835260018101546001600160a01b0390811660608401526002820154608084015260038201541660a083015260048082015460c0840152600582015460e0840152600682015461010084015260078201549293849390929161012085019160ff1690811115611fa857634e487b7160e01b600052602160045260246000fd5b6004811115611fc757634e487b7160e01b600052602160045260246000fd5b8152600791909101546001600160a01b0361010090910481166020928301529183526000858152600b82526040908190208151608081018352815490941684526001810154848401526002810154918401919091526003015460608301529190910152835184908490811061204c57634e487b7160e01b600052603260045260246000fd5b6020026020010181905250818061206290613d2a565b925050808061207090613d2a565b915050611f04565b50909392505050565b600061208d838361311a565b9392505050565b61209c6136dd565b6120a461375a565b6000838152600a602090815260408083208151610120810183528154815260018201546001600160a01b0390811694820194909452600282015492810192909252600381015490921660608201526004808301546080830152600583015460a0830152600683015460c0830152600783015491929160e084019160ff9091169081111561214157634e487b7160e01b600052602160045260246000fd5b600481111561216057634e487b7160e01b600052602160045260246000fd5b8152600791909101546001600160a01b0361010090910481166020928301526000968752600b82526040968790208751608081018952815490921682526001810154928201929092526002820154968101969096526003015460608601529492505050565b6008546001600160a01b031633146121ef5760405162461bcd60e51b81526004016108e590613be4565b6114b8600482613239565b6000818152600a6020526040902060070154819061010090046001600160a01b0316331461223a5760405162461bcd60e51b81526004016108e590613b81565b8160016000828152600a602052604090206007015460ff16600481111561227157634e487b7160e01b600052602160045260246000fd5b148061230057506000818152600a6020908152604080832060050154600b9092529091206002015442916122a491613cf4565b6000838152600b60205260409020600101546122c09190613cbc565b108015612300575060026000828152600a602052604090206007015460ff1660048111156122fe57634e487b7160e01b600052602160045260246000fd5b145b6123405760405162461bcd60e51b8152602060048201526011602482015270139bdd081d1a5b5948199bdc881c995b9d607a1b60448201526064016108e5565b600260015414156123635760405162461bcd60e51b81526004016108e590613c12565b600260018181556000858152600a602052604090819020918201549282015490516323b872dd60e01b815291926001600160a01b0316916323b872dd916123b091309133916004016139fb565b600060405180830381600087803b1580156123ca57600080fd5b505af11580156123de573d6000803e3d6000fd5b5050506000858152600b60205260409020600381015460029091015414905061240a5761240a84612dfb565b604080516080810182526000808252602080830182815283850183815260608501848152998452600b90925293909120915182546001600160a01b039091166001600160a01b03199091161782559151600180830191909155915160028201559451600390950194909455600701805460ff1916600417905550508055565b60606000612497600461324e565b905060008167ffffffffffffffff8111156124c257634e487b7160e01b600052604160045260246000fd5b60405190808252806020026020018201604052801561250757816020015b60408051808201909152600080825260208201528152602001906001900390816124e05790505b50905060005b82811015611e8457600080612523600484613259565b915091506040518060400160405280836001600160a01b031681526020018281525084848151811061256557634e487b7160e01b600052603260045260246000fd5b60200260200101819052505050808061257d90613d2a565b91505061250d565b600260015414156125a85760405162461bcd60e51b81526004016108e590613c12565b600260015560046000868152600a602052604090206007015460ff1660048111156125e357634e487b7160e01b600052602160045260246000fd5b146126305760405162461bcd60e51b815260206004820152601d60248201527f436f76656e616e74206d75737420756e6c6973746564206265666f726500000060448201526064016108e5565b6000831180156126405750600082115b61265c5760405162461bcd60e51b81526004016108e590613b3c565b6000858152600a602052604090819020600181015460029091015491516323b872dd60e01b81526001600160a01b03909116916323b872dd916126a69133913091906004016139fb565b600060405180830381600087803b1580156126c057600080fd5b505af11580156126d4573d6000803e3d6000fd5b5050506000868152600a60209081526040808320600380820180546001600160a01b039b8c166001600160a01b0319918216179091556004830199909955600582019790975560068101959095556007909401805461010033026001600160a81b03199091161760019081179091558451608081018652838152808301848152818701858152606083018681529b8652600b90945295909320925183549816979096169690961781559151828501555092516002840155925191909201558055565b6000818152600a6020526040902060070154819061010090046001600160a01b031633146127d65760405162461bcd60e51b81526004016108e590613b81565b600260015414156127f95760405162461bcd60e51b81526004016108e590613c12565b600260018190556000838152600a6020908152604080832060050154600b90925290912090910154429161282c91613cf4565b6000848152600b60205260409020600101546128489190613cbc565b108015612888575060036000838152600a602052604090206007015460ff16600481111561288657634e487b7160e01b600052602160045260246000fd5b145b6128d45760405162461bcd60e51b815260206004820152601760248201527f436f76656e616e74206d7573742062652072656465656d00000000000000000060448201526064016108e5565b6000828152600a6020526040908190206001810154600282015492516323b872dd60e01b815291926001600160a01b03909116916323b872dd9161291e91309133916004016139fb565b600060405180830381600087803b15801561293857600080fd5b505af115801561294c573d6000803e3d6000fd5b5050506000848152600b6020526040902060038101546002909101541490506129785761297883612dfb565b604080516080810182526000808252602080830182815283850183815260608501848152988452600b90925293909120915182546001600160a01b039091166001600160a01b03199091161782559151600180830191909155915160028201559351600390940193909355600701805460ff19166004179055508055565b6008546001600160a01b03163314612a205760405162461bcd60e51b81526004016108e590613be4565b6114b8600282613275565b6000546001600160a01b03163314612a555760405162461bcd60e51b81526004016108e590613baf565b6001600160a01b038116612aba5760405162461bcd60e51b815260206004820152602660248201527f4f776e61626c653a206e6577206f776e657220697320746865207a65726f206160448201526564647265737360d01b60648201526084016108e5565b612ac3816131d3565b50565b612ace6136dd565b612ad661375a565b612ade6136dd565b612ae661375a565b6000612af160095490565b905060015b818111612c71576000818152600a60205260409020600101546001600160a01b038981169116148015612b3957506000818152600a602052604090206002015487145b15612c5f576000818152600a60209081526040918290208251610120810184528154815260018201546001600160a01b0390811693820193909352600282015493810193909352600381015490911660608301526004808201546080840152600582015460a0840152600682015460c0840152600782015460e084019160ff90911690811115612bd957634e487b7160e01b600052602160045260246000fd5b6004811115612bf857634e487b7160e01b600052602160045260246000fd5b8152600791909101546001600160a01b0361010090910481166020928301526000848152600b835260409081902081516080810183528154909316835260018101549383019390935260028301549082015260039091015460608201529094509250612c71565b80612c6981613d2a565b915050612af6565b509193509150505b9250929050565b6001600160a01b038216612cca576040516001600160a01b0384169082156108fc029083906000818181858888f19350505050158015612cc4573d6000803e3d6000fd5b50612de0565b6001600160a01b0384163014612d5c576040516323b872dd60e01b81526001600160a01b038316906323b872dd90612d0a908790879086906004016139fb565b602060405180830381600087803b158015612d2457600080fd5b505af1158015612d38573d6000803e3d6000fd5b505050506040513d601f19601f82011682018060405250810190612cc49190613892565b60405163a9059cbb60e01b81526001600160a01b0384811660048301526024820183905283169063a9059cbb90604401602060405180830381600087803b158015612da657600080fd5b505af1158015612dba573d6000803e3d6000fd5b505050506040513d601f19601f82011682018060405250810190612dde9190613892565b505b50505050565b600061208d836001600160a01b03841661328a565b6000818152600a6020908152604080832060050154600b90925282206001015442929190612e299084613d13565b612e339190613cd4565b6000848152600b60205260409020600201549091508110612e65576000838152600b6020526040902060020154612e67565b805b6000848152600b60205260409020600301549091508111612eca5760405162461bcd60e51b815260206004820152601a60248201527f596f7520776974686472617720616c6c20617661696c61626c6500000000000060448201526064016108e5565b6000838152600a60209081526040808320600b909252822060030154909190612ef39084613d13565b8260040154612f029190613cf4565b60078301546003840154919250600091612f2d916001600160a01b036101009091048116911661311a565b9050612710612f3c8284613cf4565b612f469190613cd4565b6001840154909150612f68906001600160a01b031663152a902d60e11b613184565b156130b1576001830154600284015460405163152a902d60e11b815260009283926001600160a01b0390911691632a55205a91612fb2918890600401918252602082015260400190565b604080518083038186803b158015612fc957600080fd5b505afa158015612fdd573d6000803e3d6000fd5b505050506040513d601f19601f82011682018060405250810190613001919061380a565b600787015491935091506001600160a01b03808416610100909204161480159061302b5750600081115b1561307e57600385015461304c90309084906001600160a01b031684612c80565b600785015460038601546130799130916001600160a01b0361010090920482169116846110b2888a613d13565b6130aa565b600785015460038601546130aa9130916001600160a01b03610100909204821691166110bc8789613d13565b50506130dd565b600783015460038401546130dd9130916001600160a01b03610100909204821691166110bc8587613d13565b60085460038401546130fe9130916001600160a01b03918216911684612c80565b5050506000928352600b60205260409092206003019190915550565b604080518082019091526000808252602082018190529061313c6004856132fa565b6020830152158015825261315557602001519050610c46565b6131606004846132fa565b6020830152158015825261317957602001519050610c46565b505060075492915050565b600061318f83613312565b801561208d575061208d8383613345565b60006131b6846001600160a01b0385168461342e565b949350505050565b600061208d836001600160a01b03841661344b565b600080546001600160a01b038381166001600160a01b0319831681178455604051919092169283917f8be0079c531659141344cd1fd0a4f28419497f9722a3daafe3b4186f6b6457e09190a35050565b6000610c46825490565b600061208d8383613568565b600061208d836001600160a01b0384166135a0565b6000610c46826135bd565b600080808061326886866135c8565b9097909650945050505050565b600061208d836001600160a01b0384166135f3565b6000818152600283016020526040812054801515806132ae57506132ae8484613642565b61208d5760405162461bcd60e51b815260206004820152601e60248201527f456e756d657261626c654d61703a206e6f6e6578697374656e74206b6579000060448201526064016108e5565b6000808080613268866001600160a01b03871661364e565b6000613325826301ffc9a760e01b613345565b8015610c46575061333e826001600160e01b0319613345565b1592915050565b604080516001600160e01b0319831660248083019190915282518083039091018152604490910182526020810180516001600160e01b03166301ffc9a760e01b179052905160009190829081906001600160a01b03871690617530906133ac9086906139c2565b6000604051808303818686fa925050503d80600081146133e8576040519150601f19603f3d011682016040523d82523d6000602084013e6133ed565b606091505b50915091506020815110156134085760009350505050610c46565b8180156134245750808060200190518101906134249190613892565b9695505050505050565b600082815260028401602052604081208290556131b68484613688565b6000818152600183016020526040812054801561355e57600061346f600183613d13565b855490915060009061348390600190613d13565b90508181146135045760008660000182815481106134b157634e487b7160e01b600052603260045260246000fd5b90600052602060002001549050808760000184815481106134e257634e487b7160e01b600052603260045260246000fd5b6000918252602080832090910192909255918252600188019052604090208390555b855486908061352357634e487b7160e01b600052603160045260246000fd5b600190038181906000526020600020016000905590558560010160008681526020019081526020016000206000905560019350505050610c46565b6000915050610c46565b600082600001828154811061358d57634e487b7160e01b600052603260045260246000fd5b9060005260206000200154905092915050565b6000818152600283016020526040812081905561208d8383613694565b6000610c4682613223565b600080806135d6858561322d565b600081815260029690960160205260409095205494959350505050565b600081815260018301602052604081205461363a57508154600181810184556000848152602080822090930184905584548482528286019093526040902091909155610c46565b506000610c46565b600061208d83836136a0565b600081815260028301602052604081205481908061367d576136708585613642565b925060009150612c799050565b600192509050612c79565b600061208d83836135f3565b600061208d838361344b565b6000818152600183016020526040812054151561208d565b60405180604001604052806136cb6136dd565b81526020016136d861375a565b905290565b6040518061012001604052806000815260200160006001600160a01b031681526020016000815260200160006001600160a01b031681526020016000815260200160008152602001600081526020016000600481111561374d57634e487b7160e01b600052602160045260246000fd5b8152600060209091015290565b604051806080016040528060006001600160a01b031681526020016000815260200160008152602001600081525090565b60006020828403121561379c578081fd5b813561208d81613d5b565b600080604083850312156137b9578081fd5b82356137c481613d5b565b915060208301356137d481613d5b565b809150509250929050565b600080604083850312156137f1578182fd5b82356137fc81613d5b565b946020939093013593505050565b6000806040838503121561381c578182fd5b825161382781613d5b565b6020939093015192949293505050565b60008060008060008060c0878903121561384f578182fd5b863561385a81613d5b565b955060208701359450604087013561387181613d5b565b959894975094956060810135955060808101359460a0909101359350915050565b6000602082840312156138a3578081fd5b8151801515811461208d578182fd5b6000602082840312156138c3578081fd5b5035919050565b600080600080600060a086880312156138e1578081fd5b8535945060208601356138f381613d5b565b94979496505050506040830135926060810135926080909101359150565b60008060408385031215613923578182fd5b50508035926020909101359150565b80518252602081015160018060a01b0380821660208501526040830151604085015280606084015116606085015250506080810151608083015260a081015160a083015260c081015160c083015260e0810151600581106139a357634e487b7160e01b600052602160045260246000fd5b60e0830152610100818101516001600160a01b03811682850152612de0565b60008251815b818110156139e257602081860181015185830152016139c8565b818111156139f05782828501525b509190910192915050565b6001600160a01b039384168152919092166020820152604081019190915260600190565b6020808252825182820181905260009190848201906040850190845b81811015613a605783516001600160a01b031683529284019291840191600101613a3b565b50909695505050505050565b6020808252825182820181905260009190848201906040850190845b81811015613a60578351613a9d848251613932565b85015180516001600160a01b03166101208501526020810151610140850152604081015161016085015260600151610180840152928401926101a090920191600101613a88565b602080825282518282018190526000919060409081850190868401855b82811015613b2f57815180516001600160a01b03168552860151868501529284019290850190600101613b01565b5091979650505050505050565b60208082526025908201527f52656c65617365206672657175656e6379206d75737420677265617465722074604082015264068616e20360dc1b606082015260800190565b60208082526014908201527329b2b73232b91034b9903737ba103632b73232b960611b604082015260600190565b6020808252818101527f4f776e61626c653a2063616c6c6572206973206e6f7420746865206f776e6572604082015260600190565b602080825260149082015273135d5cdd081899481a1d588818dbdb9d1c9858dd60621b604082015260600190565b6020808252601f908201527f5265656e7472616e637947756172643a207265656e7472616e742063616c6c00604082015260600190565b6101a08101613c588285613932565b82516001600160a01b031661012083015260208301516101408301526040830151610160830152606083015161018083015261208d565b9283526001600160a01b039190911660208301526bffffffffffffffffffffffff16604082015260600190565b60008219821115613ccf57613ccf613d45565b500190565b600082613cef57634e487b7160e01b81526012600452602481fd5b500490565b6000816000190483118215151615613d0e57613d0e613d45565b500290565b600082821015613d2557613d25613d45565b500390565b6000600019821415613d3e57613d3e613d45565b5060010190565b634e487b7160e01b600052601160045260246000fd5b6001600160a01b0381168114612ac357600080fdfea2646970667358221220ef3e4e97e308196e08d8df9426eda78699343b38738a581de8708f1800d3b45164736f6c63430008040033",
  "immutableReferences": {},
  "source": "// SPDX-License-Identifier: MIT\r\npragma solidity ^0.8.4;\r\n\r\nimport \"@openzeppelin/contracts/utils/Counters.sol\";\r\nimport \"@openzeppelin/contracts/token/ERC721/ERC721.sol\";\r\nimport \"@openzeppelin/contracts/token/ERC721/IERC721.sol\";\r\nimport \"@openzeppelin/contracts/interfaces/IERC2981.sol\";\r\nimport \"@openzeppelin/contracts/token/ERC20/IERC20.sol\";\r\nimport \"@openzeppelin/contracts/utils/introspection/ERC165Checker.sol\";\r\nimport \"./interfaces/IERC4907.sol\";\r\nimport \"./HubChild.sol\";\r\n\r\ncontract Rental is HubChild {\r\n    using Counters for Counters.Counter;\r\n    Counters.Counter private _itemCount;\r\n    mapping(uint256 => Covenant) private _idToCovenant;\r\n    mapping(uint256 => CovenantProfile) private _idToProfile;\r\n    bytes4 public constant ERC721INTERFACE = type(IERC721).interfaceId;\r\n    bytes4 public constant ERC2981INTERFACE = type(IERC2981).interfaceId;\r\n\r\n    enum CovenantStatus {\r\n        NOT_INITIAL,\r\n        LISTING,\r\n        RENTING,\r\n        REDEEM,\r\n        UNLISTED\r\n    }\r\n\r\n    struct CovenantProfile {\r\n        address borrower;\r\n        uint256 startTime;\r\n        uint256 duration;\r\n        uint256 withdrawRound;\r\n    }\r\n\r\n    struct Covenant {\r\n        uint256 itemId;\r\n        address nftContract;\r\n        uint256 tokenId;\r\n        address ftContract;\r\n        uint256 releaseFrequency;\r\n        uint256 cycleTime;\r\n        uint256 cycleEnded;\r\n        CovenantStatus status;\r\n        address lender;\r\n    }\r\n\r\n    struct CovenantData {\r\n        Covenant config;\r\n        CovenantProfile profile;\r\n    }\r\n\r\n    constructor(uint256 fee, address hub) {\r\n        RATE_FEE = fee;\r\n        setHub(hub);\r\n    }\r\n    \r\n    modifier onlyBorrower(uint256 itemId) {\r\n        require(\r\n            _idToProfile[itemId].borrower == msg.sender,\r\n            \"Sender is not borrower\"\r\n        );\r\n        _;\r\n    }\r\n\r\n    modifier onlyLender(uint256 itemId) {\r\n        require(\r\n            _idToCovenant[itemId].lender == msg.sender,\r\n            \"Sender is not lender\"\r\n        );\r\n        _;\r\n    }\r\n\r\n    modifier rentAvailable(uint256 itemId) {\r\n        require(\r\n            _idToCovenant[itemId].status == CovenantStatus.LISTING ||\r\n                (_idToProfile[itemId].startTime +\r\n                    _idToProfile[itemId].duration *\r\n                    _idToCovenant[itemId].cycleTime <\r\n                    block.timestamp &&\r\n                    _idToCovenant[itemId].status == CovenantStatus.RENTING),\r\n            \"Not time for rent\"\r\n        );\r\n        _;\r\n    }\r\n\r\n    function list(\r\n        address nftContract,\r\n        uint256 tokenId,\r\n        address ftContract,\r\n        uint256 releaseFrequency,\r\n        uint256 cycleTime,\r\n        uint256 cycleEnded\r\n    ) public nonReentrant {\r\n        require(\r\n            releaseFrequency > 0 && cycleTime > 0,\r\n            \"Release frequency must greater than 0\"\r\n        );\r\n        require(\r\n            ERC165Checker.supportsInterface(nftContract, ERC721INTERFACE),\r\n            \"Contract needs to be ERC721\"\r\n        );\r\n\r\n        IERC721(nftContract).transferFrom(msg.sender, address(this), tokenId);\r\n        _itemCount.increment();\r\n        uint256 itemId = _itemCount.current();\r\n\r\n        _idToCovenant[itemId] = Covenant(\r\n            itemId,\r\n            nftContract,\r\n            tokenId,\r\n            ftContract,\r\n            releaseFrequency,\r\n            cycleTime,\r\n            cycleEnded,\r\n            CovenantStatus.LISTING,\r\n            msg.sender\r\n        );\r\n\r\n        _idToProfile[itemId] = CovenantProfile(address(0), 0, 0, 0);\r\n    }\r\n\r\n    function relist(\r\n        uint256 itemId,\r\n        address ftContract,\r\n        uint256 releaseFrequency,\r\n        uint256 cycleTime,\r\n        uint256 cycleEnded\r\n    ) public nonReentrant {\r\n        require(\r\n            _idToCovenant[itemId].status == CovenantStatus.UNLISTED,\r\n            \"Covenant must unlisted before\"\r\n        );\r\n        require(\r\n            releaseFrequency > 0 && cycleTime > 0,\r\n            \"Release frequency must greater than 0\"\r\n        );\r\n        IERC721(_idToCovenant[itemId].nftContract).transferFrom(\r\n            msg.sender,\r\n            address(this),\r\n            _idToCovenant[itemId].tokenId\r\n        );\r\n\r\n        _idToCovenant[itemId].ftContract = ftContract;\r\n        _idToCovenant[itemId].releaseFrequency = releaseFrequency;\r\n        _idToCovenant[itemId].cycleTime = cycleTime;\r\n        _idToCovenant[itemId].cycleEnded = cycleEnded;\r\n        _idToCovenant[itemId].status = CovenantStatus.LISTING;\r\n        _idToCovenant[itemId].lender = msg.sender;\r\n        _idToProfile[itemId] = CovenantProfile(address(0), 0, 0, 0);\r\n    }\r\n\r\n    function edit(\r\n        uint256 itemId,\r\n        address ftContract,\r\n        uint256 releaseFrequency,\r\n        uint256 cycleTime,\r\n        uint256 cycleEnded\r\n    ) external onlyLender(itemId) rentAvailable(itemId) nonReentrant {\r\n        Covenant storage rentalCovenant = _idToCovenant[itemId];\r\n\r\n        rentalCovenant.ftContract = ftContract;\r\n        rentalCovenant.releaseFrequency = releaseFrequency;\r\n        rentalCovenant.cycleTime = cycleTime;\r\n        rentalCovenant.cycleEnded = cycleEnded;\r\n\r\n        if (\r\n            _idToProfile[itemId].duration != _idToProfile[itemId].withdrawRound\r\n        ) {\r\n            internalWithdraw(itemId);\r\n        }\r\n\r\n        _idToProfile[itemId] = CovenantProfile(address(0), 0, 0, 0);\r\n    }\r\n\r\n    function unlist(uint256 itemId)\r\n        external\r\n        onlyLender(itemId)\r\n        rentAvailable(itemId)\r\n        nonReentrant\r\n    {\r\n        Covenant storage rentalCovenant = _idToCovenant[itemId];\r\n        IERC721(rentalCovenant.nftContract).transferFrom(\r\n            address(this),\r\n            msg.sender,\r\n            rentalCovenant.tokenId\r\n        );\r\n        if (\r\n            _idToProfile[itemId].duration != _idToProfile[itemId].withdrawRound\r\n        ) {\r\n            internalWithdraw(itemId);\r\n        }\r\n\r\n        _idToProfile[itemId] = CovenantProfile(address(0), 0, 0, 0);\r\n        rentalCovenant.status = CovenantStatus.UNLISTED;\r\n    }\r\n\r\n    function rent(uint256 itemId, uint256 amount) public payable nonReentrant {\r\n        require(\r\n            _idToCovenant[itemId].lender != msg.sender,\r\n            \"Sender must be not lender\"\r\n        );\r\n\r\n        require(\r\n            _idToCovenant[itemId].status == CovenantStatus.RENTING ||\r\n                _idToCovenant[itemId].status == CovenantStatus.LISTING,\r\n            \"Not accepted state\"\r\n        );\r\n        Covenant storage rentalCovenant = _idToCovenant[itemId];\r\n        uint256 duration = amount / rentalCovenant.releaseFrequency;\r\n        uint256 realAmount = duration * rentalCovenant.releaseFrequency;\r\n        uint256 refund = amount - realAmount;\r\n\r\n        uint256 startTime = block.timestamp;\r\n        if (_idToCovenant[itemId].status == CovenantStatus.RENTING) {\r\n            require(\r\n                _idToProfile[itemId].startTime +\r\n                    _idToProfile[itemId].duration *\r\n                    _idToCovenant[itemId].cycleTime <\r\n                    block.timestamp,\r\n                \"Rental covenant must be ended\"\r\n            );\r\n            if (\r\n                _idToProfile[itemId].duration !=\r\n                _idToProfile[itemId].withdrawRound\r\n            ) {\r\n                startTime -=\r\n                    _idToProfile[itemId].duration *\r\n                    rentalCovenant.cycleTime;\r\n                duration += _idToProfile[itemId].duration;\r\n            }\r\n        }\r\n\r\n        if (rentalCovenant.ftContract == address(0)) {\r\n            require(msg.value == amount, \"Rental amount not exact\");\r\n            if (refund > 0) {\r\n                sendAssets(\r\n                    address(this),\r\n                    msg.sender,\r\n                    rentalCovenant.ftContract,\r\n                    refund\r\n                );\r\n            }\r\n        } else {\r\n            sendAssets(\r\n                msg.sender,\r\n                address(this),\r\n                rentalCovenant.ftContract,\r\n                realAmount\r\n            );\r\n        }\r\n\r\n        IERC4907(rentalCovenant.nftContract).setUser(\r\n            rentalCovenant.tokenId,\r\n            msg.sender,\r\n            uint96(duration * rentalCovenant.cycleTime + startTime)\r\n        );\r\n        rentalCovenant.status = CovenantStatus.RENTING;\r\n        _idToProfile[itemId].borrower = msg.sender;\r\n        _idToProfile[itemId].startTime = startTime;\r\n        _idToProfile[itemId].duration = duration;\r\n    }\r\n\r\n    function topup(uint256 itemId, uint256 amount)\r\n        public\r\n        payable\r\n        onlyBorrower(itemId)\r\n        nonReentrant\r\n    {\r\n        require(\r\n            _idToCovenant[itemId].status == CovenantStatus.RENTING,\r\n            \"Rental covenant must be renting.\"\r\n        );\r\n\r\n        Covenant storage rentalCovenant = _idToCovenant[itemId];\r\n        uint256 duration = amount / rentalCovenant.releaseFrequency;\r\n        uint256 realAmount = duration * rentalCovenant.releaseFrequency;\r\n        uint256 refund = amount - realAmount;\r\n\r\n        if (rentalCovenant.ftContract == address(0)) {\r\n            require(msg.value == amount, \"Rental amount not exact\");\r\n            if (refund > 0) {\r\n                sendAssets(\r\n                    address(this),\r\n                    msg.sender,\r\n                    rentalCovenant.ftContract,\r\n                    refund\r\n                );\r\n            }\r\n        } else {\r\n            sendAssets(\r\n                msg.sender,\r\n                address(this),\r\n                rentalCovenant.ftContract,\r\n                realAmount\r\n            );\r\n        }\r\n        duration += _idToProfile[itemId].duration;\r\n        IERC4907(rentalCovenant.nftContract).setUser(\r\n            rentalCovenant.tokenId,\r\n            msg.sender,\r\n            uint96(duration * rentalCovenant.cycleTime + _idToProfile[itemId].startTime)\r\n        );\r\n        rentalCovenant.status = CovenantStatus.RENTING;\r\n        _idToProfile[itemId].borrower = msg.sender;\r\n        _idToProfile[itemId].duration = duration;\r\n    }\r\n\r\n    function cancel(uint256 itemId)\r\n        public\r\n        payable\r\n        onlyBorrower(itemId)\r\n        nonReentrant\r\n    {\r\n        uint256 currentTime = block.timestamp;\r\n        uint256 currentCycle = (currentTime - _idToProfile[itemId].startTime) /\r\n            _idToCovenant[itemId].cycleTime;\r\n        currentCycle++;\r\n\r\n        require(\r\n            (_idToCovenant[itemId].status == CovenantStatus.RENTING ||\r\n                _idToCovenant[itemId].status == CovenantStatus.REDEEM) &&\r\n                currentCycle < _idToProfile[itemId].duration,\r\n            \"Rental covenant must be renting.\"\r\n        );\r\n\r\n        Covenant storage rentalCovenant = _idToCovenant[itemId];\r\n        uint256 refund = rentalCovenant.releaseFrequency *\r\n            (_idToProfile[itemId].duration - currentCycle);\r\n\r\n        // refund user\r\n        sendAssets(\r\n            address(this),\r\n            _idToProfile[itemId].borrower,\r\n            rentalCovenant.ftContract,\r\n            refund\r\n        );\r\n        uint256 amount = rentalCovenant.releaseFrequency * currentCycle;\r\n        uint256 fee = _feeOf(rentalCovenant.lender, rentalCovenant.ftContract);\r\n        fee = (amount * fee) / DENOMINATOR;\r\n        if (\r\n            ERC165Checker.supportsInterface(\r\n                rentalCovenant.nftContract,\r\n                ERC2981INTERFACE\r\n            )\r\n        ) {\r\n            (address creator, uint256 royaltyAmount) = IERC2981(\r\n                rentalCovenant.nftContract\r\n            ).royaltyInfo(rentalCovenant.tokenId, amount);\r\n            if (creator != rentalCovenant.lender && royaltyAmount > 0) {\r\n                sendAssets(\r\n                    address(this),\r\n                    creator,\r\n                    rentalCovenant.ftContract,\r\n                    royaltyAmount\r\n                );\r\n                sendAssets(\r\n                    address(this),\r\n                    rentalCovenant.lender,\r\n                    rentalCovenant.ftContract,\r\n                    amount - fee - royaltyAmount\r\n                );\r\n            } else {\r\n                sendAssets(\r\n                    address(this),\r\n                    rentalCovenant.lender,\r\n                    rentalCovenant.ftContract,\r\n                    amount - fee\r\n                );\r\n            }\r\n        } else {\r\n            sendAssets(\r\n                address(this),\r\n                rentalCovenant.lender,\r\n                rentalCovenant.ftContract,\r\n                amount - fee\r\n            );\r\n        }\r\n        sendAssets(\r\n            address(this),\r\n            hubAddr,\r\n            rentalCovenant.ftContract,\r\n            fee\r\n        );\r\n        IERC4907(rentalCovenant.nftContract).setUser(\r\n            rentalCovenant.tokenId,\r\n            msg.sender,\r\n            uint96(currentCycle *\r\n                rentalCovenant.cycleTime +\r\n                _idToProfile[itemId].startTime)\r\n        );\r\n        _idToProfile[itemId].duration = currentCycle;\r\n    }\r\n\r\n    function withdraw(uint256 itemId)\r\n        public\r\n        payable\r\n        onlyLender(itemId)\r\n        nonReentrant\r\n    {\r\n        internalWithdraw(itemId);\r\n    }\r\n\r\n    function internalWithdraw(uint256 itemId) private {\r\n        uint256 currentTime = block.timestamp;\r\n        uint256 currentCycle = (currentTime - _idToProfile[itemId].startTime) /\r\n            _idToCovenant[itemId].cycleTime;\r\n        currentCycle = currentCycle < _idToProfile[itemId].duration\r\n            ? currentCycle\r\n            : _idToProfile[itemId].duration;\r\n        require(\r\n            currentCycle > _idToProfile[itemId].withdrawRound,\r\n            \"You withdraw all available\"\r\n        );\r\n\r\n        Covenant storage rentalCovenant = _idToCovenant[itemId];\r\n\r\n        uint256 amount = rentalCovenant.releaseFrequency *\r\n            (currentCycle - _idToProfile[itemId].withdrawRound);\r\n        uint256 fee = _feeOf(rentalCovenant.lender, rentalCovenant.ftContract);\r\n        fee = (amount * fee) / DENOMINATOR;\r\n        if (\r\n            ERC165Checker.supportsInterface(\r\n                rentalCovenant.nftContract,\r\n                ERC2981INTERFACE\r\n            )\r\n        ) {\r\n            (address creator, uint256 royaltyAmount) = IERC2981(\r\n                rentalCovenant.nftContract\r\n            ).royaltyInfo(rentalCovenant.tokenId, amount);\r\n            if (creator != rentalCovenant.lender && royaltyAmount > 0) {\r\n                sendAssets(\r\n                    address(this),\r\n                    creator,\r\n                    rentalCovenant.ftContract,\r\n                    royaltyAmount\r\n                );\r\n                sendAssets(\r\n                    address(this),\r\n                    rentalCovenant.lender,\r\n                    rentalCovenant.ftContract,\r\n                    amount - fee - royaltyAmount\r\n                );\r\n            } else {\r\n                sendAssets(\r\n                    address(this),\r\n                    rentalCovenant.lender,\r\n                    rentalCovenant.ftContract,\r\n                    amount - fee\r\n                );\r\n            }\r\n        } else {\r\n            sendAssets(\r\n                address(this),\r\n                rentalCovenant.lender,\r\n                rentalCovenant.ftContract,\r\n                amount - fee\r\n            );\r\n        }\r\n        sendAssets(\r\n            address(this),\r\n            hubAddr,\r\n            rentalCovenant.ftContract,\r\n            fee\r\n        );\r\n\r\n        _idToProfile[itemId].withdrawRound = currentCycle;\r\n    }\r\n\r\n    function stop(uint256 itemId)\r\n        public\r\n        payable\r\n        onlyLender(itemId)\r\n        nonReentrant\r\n    {\r\n        uint256 currentTime = block.timestamp;\r\n        uint256 endCycle = (currentTime - _idToProfile[itemId].startTime) /\r\n            _idToCovenant[itemId].cycleTime;\r\n        endCycle += _idToCovenant[itemId].cycleEnded;\r\n        endCycle = endCycle < _idToProfile[itemId].duration\r\n            ? endCycle\r\n            : _idToProfile[itemId].duration;\r\n\r\n        Covenant storage rentalCovenant = _idToCovenant[itemId];\r\n        uint256 refund = _idToCovenant[itemId].releaseFrequency *\r\n            (_idToProfile[itemId].duration - endCycle);\r\n        if (refund > 0) {\r\n            sendAssets(\r\n                address(this),\r\n                _idToProfile[itemId].borrower,\r\n                rentalCovenant.ftContract,\r\n                refund\r\n            );\r\n        }\r\n\r\n        _idToProfile[itemId].duration = endCycle;\r\n        rentalCovenant.status = CovenantStatus.REDEEM;\r\n    }\r\n\r\n    function redeem(uint256 itemId) external onlyLender(itemId) nonReentrant {\r\n        require(\r\n            _idToProfile[itemId].startTime +\r\n                _idToProfile[itemId].duration *\r\n                _idToCovenant[itemId].cycleTime <\r\n                block.timestamp &&\r\n                _idToCovenant[itemId].status == CovenantStatus.REDEEM,\r\n            \"Covenant must be redeem\"\r\n        );\r\n        Covenant storage rentalCovenant = _idToCovenant[itemId];\r\n        IERC721(rentalCovenant.nftContract).transferFrom(\r\n            address(this),\r\n            msg.sender,\r\n            rentalCovenant.tokenId\r\n        );\r\n        if (\r\n            _idToProfile[itemId].duration != _idToProfile[itemId].withdrawRound\r\n        ) {\r\n            internalWithdraw(itemId);\r\n        }\r\n\r\n        _idToProfile[itemId] = CovenantProfile(address(0), 0, 0, 0);\r\n        rentalCovenant.status = CovenantStatus.UNLISTED;\r\n    }\r\n\r\n    function getCovenants() public view returns (CovenantData[] memory) {\r\n        uint256 covenantCount = _itemCount.current();\r\n\r\n        CovenantData[] memory covenants = new CovenantData[](covenantCount);\r\n        uint256 covenantIndex = 0;\r\n        for (uint256 i = 1; i <= covenantCount; i++) {\r\n            covenants[covenantIndex] = CovenantData(_idToCovenant[i], _idToProfile[i]);\r\n            covenantIndex++;\r\n        }\r\n        return covenants;\r\n    }\r\n\r\n    function getCovenantsByAddress(address addr)\r\n        public\r\n        view\r\n        returns (CovenantData[] memory)\r\n    {\r\n        uint256 covenantCount = _itemCount.current();\r\n        uint256 myListedCovenantCount = 0;\r\n        for (uint256 i = 1; i <= covenantCount; i++) {\r\n            if (\r\n                _idToProfile[i].borrower == addr ||\r\n                _idToCovenant[i].lender == addr\r\n            ) {\r\n                myListedCovenantCount++;\r\n            }\r\n        }\r\n\r\n        CovenantData[] memory covenants = new CovenantData[](covenantCount);\r\n        uint256 covenantIndex = 0;\r\n        for (uint256 i = 1; i <= myListedCovenantCount; i++) {\r\n            if (\r\n                _idToProfile[i].borrower == addr ||\r\n                _idToCovenant[i].lender == addr\r\n            ) {\r\n                covenants[covenantIndex] = CovenantData(_idToCovenant[i], _idToProfile[i]);\r\n                covenantIndex++;\r\n            }\r\n        }\r\n        return covenants;\r\n    }\r\n\r\n    function getCovenant(uint256 itemId)\r\n        public\r\n        view\r\n        returns (Covenant memory, CovenantProfile memory)\r\n    {\r\n        Covenant memory covenant = _idToCovenant[itemId];\r\n        CovenantProfile memory profile = _idToProfile[itemId];\r\n        return (covenant, profile);\r\n    }\r\n\r\n    function getRentalData(address contractAddress, uint256 tokenId)\r\n        public\r\n        view\r\n        returns (Covenant memory, CovenantProfile memory)\r\n    {\r\n        Covenant memory covenant;\r\n        CovenantProfile memory profile;\r\n        uint256 cCount = _itemCount.current();\r\n        for (uint256 i = 1; i <= cCount; i++) {\r\n            if (\r\n                _idToCovenant[i].nftContract == contractAddress &&\r\n                _idToCovenant[i].tokenId == tokenId\r\n            ) {\r\n                covenant = _idToCovenant[i];\r\n                profile = _idToProfile[i];\r\n                break;\r\n            }\r\n        }\r\n\r\n        return (covenant, profile);\r\n    }\r\n\r\n    function sendAssets(\r\n        address from,\r\n        address to,\r\n        address ftToken,\r\n        uint256 value\r\n    ) private {\r\n        if (ftToken == address(0)) {\r\n            payable(to).transfer(value);\r\n        } else {\r\n            if (from != address(this)) {\r\n                IERC20(ftToken).transferFrom(from, to, value);\r\n            } else {\r\n                IERC20(ftToken).transfer(to, value);\r\n            }\r\n        }\r\n    }\r\n}\r\n",
  "sourcePath": "G:\\Learning\\Project\\source\\picasarts-contracts\\contracts\\Rental.sol",
  "compiler": {
    "name": "solc",
    "version": "0.8.4+commit.c7e474f2.Emscripten.clang"
  },
  "schemaVersion": "3.4.10",
  "updatedAt": "2023-03-16T10:34:52.303Z",
  "devdoc": {
    "kind": "dev",
    "methods": {
      "owner()": {
        "details": "Returns the address of the current owner."
      },
      "renounceOwnership()": {
        "details": "Leaves the contract without owner. It will not be possible to call `onlyOwner` functions anymore. Can only be called by the current owner. NOTE: Renouncing ownership will leave the contract without an owner, thereby removing any functionality that is only available to the owner."
      },
      "transferOwnership(address)": {
        "details": "Transfers ownership of the contract to a new account (`newOwner`). Can only be called by the current owner."
      }
    },
    "version": 1
  },
  "userdoc": {
    "kind": "user",
    "methods": {},
    "version": 1
  }
}